:100000000C940B070C9443070C9443070C94C52FD6
:100010000C9443070C9443070C9443070C94430738
:100020000C9443070C9443070C94E3160C94D115DD
:100030000C94A5180C9443070C9443070C944307A5
:100040000C9443070C9443070C9443070C94430708
:100050000C9443070C943C180C9443070C944307EE
:100060000C9443070C9443070C9443070C944307E8
:100070000C9443070C9443070C9443070C944307D8
:100080000C9443070C9443070C9443070C944307C8
:100090000C9443070C9443070C9443070C944307B8
:1000A0000C9443070C9443070C944307EC10F21094
:1000B000DD10E310F810FE1004115E11D21166116C
:1000C000301134116A1137116D1178114211C811B4
:1000D00046117C114A118011AA114E118411B411DC
:1000E00054118A1194113B1171113E11741159115F
:1000F0008F11A011C011C2112C116211DB11BD12A0
:10010000BD12EF12EF126B138913AD14AD148E13E1
:100110001C142D142D14D514E314E814ED14F2144A
:10012000F714FC14011506150B15101517150612FA
:1001300006120612061206120612061206120612FF
:10014000C32BEA2B822DEA2B822D322C552C822DAB
:10015000442D572D00DA0281FFD9F1DB20A4A62E11
:10016000AF00A0C0D30000A1C8D30000AED580A8C6
:100170001F408D142000000000E000F8C0F8E0C02F
:10018000FC007E180080000280F000C080F8C0E013
:1001900070603C383C1C003F0C0F1F030701C3007C
:1001A000E08000E080F880C0F7C76F7B39300080C6
:1001B00000C000C0C2E000403830381E181E0F0CCE
:1001C00007070703032121313018181C080C0E07FC
:1001D000060703C303014CCCC2C24149092B2A6A5A
:1001E0006E2424049292B1F1F1F2E6A4A40404284E
:1001F0002828282828286C696C7920002094959656
:100200002020B4B5B62020D4D5D62000209D9E9FB6
:100210002020BDBEBF2020DDDEDF20002097989982
:100220002020B7B8B92020D7D8D92000209A9B9C8D
:100230002020BABBBC2020DADBDC200020202020DC
:100240002000A7A800AFB000C600CA00C800A5A63D
:1002500000ADAE008788008F9000C500C900C700C0
:10026000CB008586008D8E00ABAC00CFD000C600E1
:10027000CA00C800A9AA00B1B2008B8C00CDCE0084
:10028000C500C900C700CB00898A009192002020D8
:10029000005320002020004320002020004E20009A
:1002A0000000001000000000000000081C08000012
:1002B000000000000000020000000000100000002C
:1002C00000000000200000000000000000020040CC
:1002D000E040000000000000040000000080C0803A
:1002E000C080000000000000E0008000F00000C0BE
:1002F00000000000000000400000000000000100BD
:100300008100C000FE00FC00FF20FFF00FF000FFA6
:10031000000000001000000000009000F80000F84D
:10032000FF10FF84FF60FF36FF0FFF3F005F0005F7
:1003300080008000C03800ECF000FB80FFF0FFEF91
:10034000FFE8FF03FF0CFF00FF00030000F8008040
:10035000FF20FFD0FFE0FEF8FFFCFFFF0FFF013F93
:10036000FF000F0001000300FE80FE00C0FFC4FB81
:10037000FFFEFFFFFF3FFFFF07FF033F000FC0002F
:100380000000B800FF40BEF0FFF1FFFEFFFFFFFFDF
:100390001FFF6700EF001F0000070000E000FFF0F4
:1003A000FF88FFC4FFF8FFFFFFFFFFFF8F7F0FFFF6
:1003B0000007FE000700000000F800C03FF8E7FF5C
:1003C000FFFFFF1FFFFF1F3F01FF0B00FF000005A6
:1003D000000000E000F86080FEE3FCFF1EFFFF234A
:1003E000FF09FF20003F0200000F004000C000FC9A
:1003F000E0FCF0FFFF7FFCFF0FFF071F00010F0075
:100400000F0081700CF0800000E4F8E6703FCFFF31
:100410001FFF48FF0F000700004360F8F0FE38FEA2
:1004200000FC0300C872CFFC00030F01E01CE003D6
:10043000000F00000000000000F806F900030007AC
:10044000FF001012C9F0CFB47F80E01E0140655E4E
:10045000E00000F00CF000807E018093FCC0000002
:100460000000000089182C46000721101080091395
:1004700031BFFF00081AF70F0000444534BFB80031
:1004800010F008F41811FC18FB0E10F804F81020F6
:100490001809FF0CEA1F286030F820C04233210001
:1004A00000AF00AE167C1E001F00200021002200BD
:1004B0002B0014001A00080015001700E1000400CA
:1004C0001600070009000A00E0001D001B000600DE
:1004D0001900050000000057E200E30021522C2221
:1004E0002E00270026002500240023002D001300E5
:1004F00012000C0018001C00340033000F000E0026
:100500000D000B00313238003700360010001100AA
:10051000000000574C002A0022522832350000000B
:100520000000000000000000390000000000B600DC
:10053000B7000000E1001E021F0220022102220279
:10054000E0000000000006131913000000003D0445
:1005500001000100010001005700270226020000EF
:10056000000000002D0230002F00310230022F0267
:100570003402330200002502240223023200380232
:1005800037023602000000000000000001004C00AD
:100590002352010001003A003B003C003D003E00B8
:1005A000000000000000000000000000E100220048
:1005B000210020001F001E00E0002700260025006B
:1005C0002400230000000501010001002352010066
:1005D0004D004A004500440043003D004E004B00E2
:1005E0000000000000000000000000004F0052006A
:1005F0005100500000003800370036004D004A001E
:1006000000004600010001000100010000000000A0
:1006100000000000000000000000000000000000DA
:10062000000000000000000000000000D100D20027
:1006300000000000000000000000000000000000BA
:100640000100010001000100A900AA000000000053
:1006500000000000BD00BE0000000000000000001F
:1006600000000000D000CD00CE00CF000000000050
:10067000D900DA00000000000000000001000100C5
:10068000010001000001010101010101010102025B
:100690000202020202020203030303030303030430
:1006A00004040404040405050505050606060606FB
:1006B000070707070708080808090909090A0A0AB5
:1006C0000B0B0B0C0C0C0D0D0D0E0E0E0F0F0F1057
:1006D00010111111121213131414151516161717E1
:1006E000181819191A1A1B1B1C1D1D1E1E1F20204D
:1006F000212222232424252626272829292A2B2C97
:100700002D2D2E2F30313232333435363738393AB9
:100710003B3C3D3E3F404142434445464748494AB1
:100720004C4D4E4F50515354555658595A5B5D5E7F
:100730005F616264656668696B6C6D6F707273751A
:1007400077787A7B7D7E8082838587888A8C8E8F7E
:1007500091939596989A9C9EA0A2A3A5A7A9ABADAC
:10076000AFB1B3B5B7BABCBEC0C2C4C6C9CBCDCF9A
:10077000D1D4D6D8DBDDDFE2E4E7E9EBEEF0F3F548
:10078000F8FAFDFF05010902A10185020901A10096
:10079000050919012908150025019508750181022F
:1007A0000501093009311581257F950275088106FB
:1007B00009381581257F950175088106050C0A38D1
:1007C000021581257F950175088106C0C0050109C4
:1007D00080A101850319012AB700150126B70095EC
:1007E0000175108100C0050C0901A10185041901E2
:1007F0002AA002150126A002950175108100C005EE
:10080000010906A101050719E029E7150025019551
:1008100008750181029501750881010507190029F4
:10082000FF150026FF0095067508810005081901CF
:10083000290515002501950575019102950175039E
:100840009101C009023B00020100A0FA0904000066
:1008500001030101000921110100012244000705E3
:1008600081030800010904010001030000000921BF
:1008700011010001227B0007058203200001120103
:100880000002000000081D8DC2B400010102000139
:1008900026034100750072006F00720061002000A5
:1008A0004C0069006C0079003500380020007200AF
:1008B00065007600310000001803730070006C00C2
:1008C000690074006B0062002E0063006F006D0011
:1008D0000000040309040000000000003E5B4F5BC1
:1008E0003E003E6B4F6B3E001C3E7C3E1C00183CA5
:1008F0007E3C18001C577D571C001C5E7F5E1C0050
:1009000000183C180000FFE7C3E7FF000018241898
:100910000000FFE7DBE7FF0030483A060E0026291B
:1009200079292600407F05050700407F05253F0007
:100930005A3CE73C5A007F3E1C1C0800081C1C3E29
:100940007F0014227F2214005F5F005F5F000609B2
:100950007F017F00006689956A00606060606000CA
:1009600094A2FFA2940008047E04080010207E20B8
:10097000100008082A1C0800081C2A0808001E107D
:10098000101010000C1E0C1E0C0030383E383000C9
:10099000060E3E0E060000000000000000005F0092
:1009A0000000000700070000147F147F1400242AB1
:1009B0007F2A120023130864620036495620500033
:1009C000000807030000001C224100000041221C17
:1009D00000002A1C7F1C2A0008083E08080000802E
:1009E000703000000808080808000000606000007F
:1009F0002010080402003E5149453E0000427F405D
:100A000000007249494946002141494D33001814FC
:100A1000127F10002745454539003C4A49493100BD
:100A200041211109070036494949360046494929FB
:100A30001E00000014000000004034000000000808
:100A4000142241001414141414000041221408004C
:100A50000201590906003E415D594E007C121112F7
:100A60007C007F49494936003E41414122007F4197
:100A700041413E007F49494941007F090909010080
:100A80003E41415173007F0808087F0000417F41CB
:100A900000002040413F01007F08142241007F40B8
:100AA000404040007F021C027F007F0408107F004E
:100AB0003E4141413E007F09090906003E41512166
:100AC0005E007F0919294600264949493200030181
:100AD0007F0103003F4040403F001F2040201F0097
:100AE0003F4038403F006314081463000304780457
:100AF00003006159494D4300007F41414100020418
:100B000008102000004141417F000402010204005E
:100B10004040404040000003070800002054547843
:100B200040007F2844443800384444442800384476
:100B300044287F0038545454180000087E090200ED
:100B40001824241C78007F080404780000447D40A9
:100B500000002040403D00007F102844000000417C
:100B60007F4000007C04780478007C08040478004E
:100B70003844444438007C182424180018242418CD
:100B80007C007C08040408004854545424000404E5
:100B90003F4424003C4040207C001C2040201C009E
:100BA0003C4030403C004428102844004C90909039
:100BB0007C004464544C44000008364100000000AE
:100BC0007700000000413608000002010204020024
:100BD0003C2623263C000000000000000000C0E08E
:100BE000F0F8F81800C0F0FCFEFFFFFFFFFFFFFF6A
:100BF0007E00000000F8042252E2424242E2522209
:100C000022224282020222220204F80000F8040298
:100C10000282422242820202028242221222428244
:100C20000204F80000F8FCDEAE1EBEBEBE1EAEDE44
:100C3000DEDEBE7EFEFEDEDEFEFCF80000F8FCFE20
:100C4000FE7EBEDEBE7EFEFE000000000000808054
:100C500040402020101008081010202040408080C4
:100C60008080C0C0E0E0F0F0F8F8F0F0E0E0C0C054
:100C70008080808040402020101008081010202024
:100C800040408080808040C060A050B058A850B0E4
:100C900060A040C0808000F8FCFEFFE000FFFFFF86
:100CA000FFFFFF80FFFFFFFFFFFFFFFFFF1F0701A9
:100CB00000000000001F20444A47424242474A4485
:100CC000404040404142444440201F00001F20401B
:100CD000414040404040414041414F4848484F41D9
:100CE00041201F00001F3F7B75787D7D7D78757BDF
:100CF0007F7F7F7F7E7D7B7B7F3F1F00001F3F7F4D
:100D00007E7F7F7F7F7F7E7F0000000000008888DD
:100D10005D5D3E3E7C7CF8F87C7C3E3E5D5D888877
:100D200088885555232347478F8F47472323555599
:100D300088888888D5D5E2E2C4C48888C4C4E2E241
:100D4000D5D5888888885DD56BB66DD6ADDA6DD679
:100D50006BB65DD5888800030F1F3F3F3F3F1F1FC5
:100D60003F3F7F7F7F3F3F1F3F7F7F7F7F7C787844
:100D7000381C0F0004F80000F804201F00001F209A
:100D8000FCF80000F8043F1F00001F2004F80000DA
:100D9000F8FC201F00001F3FFCF80000F8FC3F1F7C
:100DA00000001F3FFE7EBEDEEEDEBE7EFEFCF800D3
:100DB0007E7E70777777707E7E3F1F000000000098
:100DC0000000000000000000000000000000000023
:100DD00001010202040408080404020201010000E7
:100DE00000000101020204040808040402020101D7
:100DF000000000000101030307070F0F07070303AB
:100E00000101000000000101030205060D0A0506AC
:100E100003020101000011241FBECFEFDAE0DEBFA4
:100E2000CDBF04B603FE18C08091340790913507FA
:100E3000A0913607B09137078730904BA740B04B51
:100E400059F4109234071092350710923607109219
:100E50003707E0E0F8E3099512E0A0E0B1E0E4E94B
:100E6000F3E602C005900D92A83EB107D9F727E03E
:100E7000A8EEB2E001C01D92A433B207E1F70E94D0
:100E800045070C94C8310C940000A0E1B0E0EBE4FD
:100E9000F7E00C94FA3085B7806885BF85B7806825
:100EA00085BF84B7877F84BF0FB6F894A8958091DB
:100EB0006000886180936000109260000FBE90E037
:100EC00080E80FB6F89480936100909361000FBEA4
:100ED00081EC90E29093E9028093E8020E9415165B
:100EE0000E9488168091E20084608093E2007894EA
:100EF000809116058823A1F01091E9001F70909150
:100F0000EC00892F817090FD80E8182B1092E90089
:100F10008091E80083FD0E94E22A1F701093E9008F
:100F200082E084BD93E095BD9AEF97BD80936E00FB
:100F30001092EA021092EB021092EC021092ED0273
:100F40008091D80080618093D8002AE12A95F1F73A
:100F500000C08091D900182F117080FD04C00E943C
:100F600015161092160510936B0385988D988FE8CF
:100F700091E00197F1F700C000008FB185FB882751
:100F800080F980936C0380930B0180916B03811136
:100F90000E94802F86E0EEE4F3E0DF011D928A9547
:100FA000E9F780910B0191E08927809315038091E7
:100FB0000B019093180380910B0180910B0181111B
:100FC00006C087EF80932D0186EF80932E0160E0AD
:100FD00080E00E94C81A61E080E00E94C81AEFE831
:100FE000F1E03197F1F700C0000010E080911803A4
:100FF000181790F460E0812F0E94AC1A082F61E06E
:10100000812F0E94AC1AE12FF0E0EA5EFC4F880FBE
:10101000082B00831F5FEACF80910B01811128C04C
:1010200085E0EEE7F1E0DE01199601900D928A95D8
:10103000E1F7FE013996A6E0B1E0CE010E962191CE
:101040002D93E817F907D9F786E0E3E8F1E0DE0130
:10105000119601900D928A95E1F7FE013196A0E07C
:10106000B1E0CE01079621912D938E179F07D9F7F6
:1010700080910B01811102C095E001C090E0909336
:10108000F90285E0891B8093F80200E011E066E038
:10109000E62E61E0F62ED8018D918D018F3F11F083
:1010A0000E948E23E016F106B1F706E011E0F80188
:1010B00081918F018F3F11F00E948E23F1E00B3060
:1010C0001F07A9F78AE0ECEFF2E0DF01282F1D925D
:1010D0002A95E9F7EEEEF2E0DF011D928A95E9F735
:1010E00080E090E00E945231863E9E4F09F466C037
:1010F00066EE7EEF80E090E00E94863160E082E064
:1011000090E00E94683181E090E090931A03809310
:10111000190361E083E090E00E94683160E074E1CF
:1011200084E090E00E94863160E086E090E00E94DA
:10113000683160E087E090E00E94683140E050E074
:10114000BA0188E090E00E947A3160E084E290E0A9
:101150000E94683160E087E190E00E94683160E0C1
:101160008CE090E00E94683160E08DE090E00E94A9
:10117000683119821A821B821C821D821E821F8284
:10118000188648E050E068E170E0CE0101960E94C8
:10119000583140E050E0BA0180E290E00E947A319C
:1011A00040E050E0BA018FE090E00E947A3140E0E8
:1011B00050E0BA0183E190E00E947A3182E090E051
:1011C0000E944A318093060384E090E00E945231ED
:1011D0009093FB028093FA020E946A25EFEFF6E7F4
:1011E00021E0E150F0402040E1F700C000000E9403
:1011F0006A2580916C03811102C0E5E001C0E0E046
:10120000F0E0E450FD4F808180FF08C06FEF7FEF7A
:1012100080E090E00E9486310E94181883E090E000
:101220000E944A3190E00E94D91E0E94742781E0FA
:101230008093200548E050E068E170E081E295E0AD
:101240000E943A3110922005809121058C7FF9F49B
:1012500085E0809321058091890190918A01A09178
:101260008B018093220590932305A09324058FE79B
:10127000809325058FEF8093260548E050E068E1D4
:1012800070E081E295E00E9458311092200583E0E1
:1012900080933E0380E2809329050E94102E6BE02C
:1012A00070E08BE691E00E947428882309F443C023
:1012B00080913E0365E070E081FD3AC086E691E0F2
:1012C0000E9474288823B9F16DE070E084E591E014
:1012D0000E947428882379F10E948D18DC01CB01CB
:1012E000805A9541AF4FBF4F809348039093490375
:1012F000A0934A03B0934B03ECE2F5E080E092E068
:10130000DF019C011D9221503040E1F7F09333073B
:10131000E09332078FEF9FEF90932B0580932A0580
:1013200081E080934D0380934C0310923F0303C0F0
:1013300081E691E0C5CF80916B03811102C00E94CC
:10134000832F8CE091E09093700380936F032224AD
:101350002394312C80911605853009F048C000E1B6
:1013600012E180911605853009F03DC08091160587
:10137000843041F10E9488280E94331B109273032D
:1013800088E190E0A0E40FB6F894A89580936000FF
:101390000FBEA093600083B7817F846083BF83B753
:1013A000816083BF7894889583B78E7F83BF0FB6A3
:1013B000F894A895809160008861809360001092F5
:1013C00060000FBE80911505882309F4CACF0E94E2
:1013D0006A25ECEFF2E081918111DCC3B3E0E630E5
:1013E000FB07C9F7BECF0E94DE1E0E9432190E9481
:1013F0006A2537E0E32E33E0F32E4CEFC42E42E0B3
:10140000D42E21E133E0D601F70191918D91892706
:101410002E173F0719F08823C1F306C0811104C0BD
:101420000E944625D12C38C080906B0310E07724B1
:101430007394F60191906F01D701AC90A92411F13A
:1014400000E0BB24B3948A2D8B21B1F08820A1F059
:1014500009871A870E9499189C878B877D8691E05F
:10146000892D8B2109F490E09E8749855A856B85EB
:101470007C858D850E94CC0E0F5FBB0C063019F762
:10148000F70190821F5FFFEFEF1AFF0A1A3089F60B
:101490000E94A523DD24D39480916B038823A1F1BE
:1014A0008091690390916A03892BE9F0809111037F
:1014B000909112030E947E18893C9105A0F08091C2
:1014C000690390916A03992724E0880F991F2A9550
:1014D000E1F7FC01E55EFE4F208122FD04C08A5E3B
:1014E0009E4F0E94661980915603882369F00E94DE
:1014F00099182091540330915503821B930B8F3F11
:101500009F4710F40E948A1A0E94882880916B03DA
:10151000882321F00E94091BE82E01C0E12CF12C48
:1015200080911803F81608F042C061E08F2D0E94E8
:10153000AC1A182F60E08F2D0E94AC1AE12FEE0F2D
:101540008E2B0F2D10E0D801AA5EBC4FEC912E2FF0
:10155000237030E0482F50E02417350731F1EE0FAB
:10156000EE0FE82BEC93809115038F0DEF70F0E0F8
:10157000E457FE4F0D5E1C4FC080D8019C91C90EF0
:10158000CC92B3E0BC1514F460E004C0EDEFCE16CD
:101590001CF461E00E94E91A8C2DCC0C990B64E0DC
:1015A00070E00E949831D8018C93F394B9CF809168
:1015B0006B03882319F00E94091BE82AEE2021F012
:1015C0000E94A523DD24D39480914D03882309F440
:1015D000D7C180914003909141030E947E18C29729
:1015E00008F4C3C00E94991890934103809340036C
:1015F0008CE295E0909333078093320780916B03E0
:10160000882309F4ACC060E870E086E791E00E94AE
:10161000292880912905B4E08B9FC00111248115F0
:10162000E2E09E0714F080E090E0845D9A4F909392
:1016300033078093320786EF91E00E94B22A8CE351
:1016400092E00E94B22A20911B0330911C038091EA
:10165000190390911A03822B932B292F33272115DD
:10166000310519F0C90128E001C020E0AC0114E007
:10167000569547951A95E1F74115510511F02C5FE4
:10168000CA01AC01569547955695479541155105A8
:1016900011F02E5FCA0196958795892B09F02F5F6F
:1016A000223039F0233041F0213049F48CE292E0CD
:1016B00008C08CE192E005C08CE092E002C08CEFA3
:1016C00091E00E94B22A8CE392E00E94B22A10912B
:1016D0001D0380916803182B012F087814740023D0
:1016E00049F085E692E00E94B22A112361F080E67B
:1016F00092E00CC082E692E00E94B22A112359F0D7
:101700008CE592E003C08EE592E007C00E94B22A09
:101710001123A9F005C08AE592E00E94B22A0FC009
:1017200087E592E00E94B22A01114AC28EE492E05B
:101730000E94B22A112381F08AE492E047C284E534
:1017400092E00E94B22A002389F381E592E00E9490
:10175000B22A8CE492E088C288E492E085C260E01C
:1017600072E080EA92E00E94292880912A059091F7
:101770002B05892B31F480914C03882309F400C197
:10178000E8C080914D038823B1F380913F0381111C
:10179000F2CF0E944D1B20912A0530912B05211577
:1017A000310549F380E0082F10E07101082E02C0D6
:1017B000EE0CFF1C0A94E2F7A70142235323452BAA
:1017C00011F48F5FF0CF90913E039801F5E0220F66
:1017D000331FFA95E1F790FF13C0E5E036952795A2
:1017E000EA95E1F7220F220F220F20932801109291
:1017F0002B01295F2093290183E080932C0111C0E4
:10180000220F232F221F330B31958295880F80766C
:101810008093280120932B01815E809329012093DE
:101820002C0124E630E047E050E066E271E088E712
:101830000E94452E892B09F09ECF80913E0380FFA8
:1018400068C080E2EEE1F3E0DF011D928A95E9F7DE
:10185000A80135E0440F551F3A95E1F7E0EAF1E0C1
:10186000F88BEF870CE911E064EA462E61E0562E12
:10187000AF85B8898D91B88BAF87F80191918F01B1
:10188000BA01690F711D645D7A4F90E0825E9C4FD2
:10189000FC0127E0922E9F01281B390B722C01C0FE
:1018A000770C2A95EAF75B01812CD501CD905D017B
:1018B000C720292D28192770622E022E000C330B09
:1018C000BC2D01C0BB0F6A94EAF76B2E31952195B0
:1018D00031092770332701C0C6942A95EAF76C288E
:1018E000C0806C286082839428E08212DECF9A94B4
:1018F00031963FEF9312CFCF8F85988948165906BE
:1019000009F0B6CF04E610E020E230E04EE153E00B
:101910000CC0A80185E0440F551F8A95E1F7445D8E
:101920005A4F04E610E020E230E060E488E70E94CD
:10193000DC2E892B09F01FCFE094F09480912A05CA
:1019400090912B05E822F922F0922B05E0922A05CE
:1019500012CF0E948D1800914803109149032091E5
:101960004A0330914B03DC01CB01801B910BA20B8E
:10197000B30B8F3F9F4FAF4FBF4710F40E94331BF5
:10198000D1100E944D1B86E0EEE5F3E0DE011196DA
:1019900001900D928A95E1F7D0905F03109160035A
:1019A00000916103E0906203F09063031092600382
:1019B000109261031092620310926303111103C02D
:1019C000002309F447C080915C0390915D030E945D
:1019D0007E189C0190915703992309F47FC125310A
:1019E0003105C0F19F3F19F09F5F9093570311237A
:1019F00061F00E94451A111614F09FEF01C091E0AA
:101A0000899F802D112480936003002361F00E9440
:101A1000451A101614F491E001C09FEF899F802DA4
:101A200011248093610380916003882399F0C09012
:101A30006103CC2079F00E94651A811101C081E018
:101A4000809360038C2D0E94651A811101C081E092
:101A500080936103E11003C0FF2009F447C0809127
:101A60005A0390915B030E947E189C019091580349
:101A7000992309F438C121353105C0F19F3F19F090
:101A80009F5F90935803EE2061F00E94231A1E146A
:101A900014F09FEF01C091E0899F802D1124809365
:101AA0006203FF2061F00E94231A1F1414F491E0D6
:101AB00001C09FEF899F802D112480936303809143
:101AC0006203882399F0C0906303CC2079F00E94D0
:101AD000651A811101C081E0809362038C2D0E9400
:101AE000651A811101C081E08093630380915F03D7
:101AF000D8121AC080916003882311F0181314C003
:101B000080916103882311F008130EC08091630354
:101B1000882311F0F81208C090916203992331F0E4
:101B200081E0E91204C002C081E001C080E080FDD4
:101B300015C08091600381110FC0809161038111F4
:101B40000BC080916203811107C081E09091630313
:101B5000911103C080E001C081E080FD0E94F9196D
:101B6000DA821B830C83ED82FE8286E0FE013196D1
:101B7000AEE5B3E001900D928A95E1F70E9432192B
:101B800090914203891709F4E5CB809342030E94A8
:101B90008D18E0CB09BD19BD09B400FEFDCF8091C1
:101BA000D8008F7D8093D8008091E0008260809380
:101BB000E0008091E00081FDFCCF0E94DE1ED1CBD1
:101BC00081E592E00E94B22A8CE492E00E94B22A5F
:101BD00085E492E00E94B22A10911D03809168036F
:101BE000182B012F01711272002349F08BE892E04B
:101BF0000E94B22A112361F086E892E00CC088E8C6
:101C000092E00E94B22A112359F082E892E003C0C8
:101C100084E892E007C00E94B22A1123A9F005C00F
:101C200080E892E00E94B22A0FC08DE792E00E9405
:101C3000B22A01111EC084E792E00E94B22A112349
:101C400081F080E792E01BC08AE792E00E94B22A0E
:101C5000002389F387E792E00E94B22A82E792E0AC
:101C600038C08EE692E035C00E94B22A82E492E04B
:101C7000B1CF87E792E00E94B22A82E792E00E9409
:101C8000B22A8BE692E00E94B22A0E94321981FBAE
:101C9000002700F982FB112710F980FD03C08AE9B3
:101CA00092E002C08DE992E00E94B22A011103C0C5
:101CB00084E992E002C087E992E00E94B22A111101
:101CC00003C08EE892E002C081E992E00E94B22A4D
:101CD0004CCD0E94B22A88E692E0D5CF2B30310558
:101CE00008F082CEB7CE2B30310508F0C9CEFECE3B
:101CF000A6E0B0E0EEE7FEE00C94093126E0FC013E
:101D0000DE01119601900D922A95E1F7FC012581E3
:101D100089819A81222359F0662349F00E94321C5E
:101D2000182F682F89819A810E94501E03C00E943B
:101D30001D1E182F69817A81812F0E94FF2326960C
:101D4000E3E00C9425310E94DE1E2FEF84E39CE03B
:101D5000215080409040E1F700C000009CE088E105
:101D60000FB6F894A895809360000FBE9093600022
:101D7000FFCFFC01858180FF05C080EE0E943E20E0
:101D800085E004C080EE0E943E2084E00E949D20F9
:101D900080EE0E9402200895ABE1B0E0E2EDFEE0AB
:101DA0000C9409314E8B5F8B688F798F8A8F9B8F54
:101DB000911110926703CE010F9627E0DC011D926E
:101DC0002A95E9F726E0FE017696DC0101900D9256
:101DD0002A95E1F72B89222319F061E00E94780E01
:101DE00087E0FE013F96DE01189601900D928A95DC
:101DF000E1F7CE0108960E94961C81112CC087E065
:101E0000FE013896DE01119601900D928A95E1F758
:101E10006C85662301F12091A80330E0C901019689
:101E2000877099274091E10350E08417950761F18D
:101E30006D8397E0929FD001939FB00D1124A75519
:101E4000BC4FFE01319601900D929A95E1F7809377
:101E5000A8030E94CF1B17E08091E1039091A80393
:101E60008917F9F0189FC001112487559C4F0E94D3
:101E7000961C8823B1F08091E10390E00196877071
:101E800099278093E103E8CF0E94DE1E1092A803F9
:101E90001092E103E1EAF3E087E0DF011D928A9509
:101EA000E9F76B96E3E00C9425318F929F92AF9205
:101EB000BF92EF92FF920F931F93CF93DF93FC019A
:101EC0002481222309F4CBC57C0161E00E94780EB5
:101ED000EC01F7018581882309F4AAC28091690386
:101EE00090916A03009779F1C817D90761F1992792
:101EF00034E0880F991F3A95E1F7FC01E55EFE4F4B
:101F00002081246020838A5E9E4FFC01D183C083A0
:101F10000E9466191092670361E0C7010E94780E63
:101F2000EC0183379C4799F4F7018581882309F4F4
:101F30006DC280915603882319F00E948A1A66C2E6
:101F40000E94981A63C2C337FCE7DF0791F3109130
:101F50001D0380916803182B80915603811134C0B2
:101F6000123221F40E94981A10926603F7018581BB
:101F7000882309F4B4C0C13ED10521F0C23AF2E58C
:101F8000DF07F9F480914503882371F0F70182811E
:101F900093812091430330914403821B930B8F3F25
:101FA0009F4710F00E94981A81E080934503F70143
:101FB0008281938188539F4F90934403809343037E
:101FC0008EC0109245038BC00E94991888579C4E72
:101FD0009093550380935403F7018581882309F476
:101FE0007EC01D7909F076C0C034F2E5DF07B8F491
:101FF000C11522E5D20708F072C0C11540E4D4072C
:1020000048F4C11550E2D50740F5C63ED10509F0A8
:1020100040C065C0C11580E5D807A0F13AC0C03EF8
:1020200092E5D907A0F4C03CE2E5DE0708F057C00E
:10203000C036F2E5DF0768F1C03A22E5D20708F4BE
:102040004EC0C43B42E5D40709F449C022C0CE01CA
:1020500087579C470297E8F442C0F7018681807F4A
:10206000A9F48D2F8F718231B1F028F4823091F56F
:1020700081EE90E012C0843191F1863159F586EEFF
:1020800092E10BC0F7018681807F49F1CE0199274B
:1020900004C0CE0102C085EE90E010926703883242
:1020A000910530F48E319105C0F4049798F00EC07C
:1020B0008D32910559F018F48A9779F00BC08C3461
:1020C000910559F08D32924041F004C082E0809336
:1020D000670303C00E948A1A02C00E94931BCE01AC
:1020E00097558F3F910511F008F05CC05E01BB244D
:1020F000C50124E0880F991F2A95E1F78C010A5E3B
:102100001E4FF7012581AC01455E5E4F5A01FA0171
:10211000808120FB80F98083F7018581882341F14C
:102120000E9499189093120380931103F801828101
:102130008F5F82839091670380916803892B8383EB
:1021400080911D0384834681578166857785C80108
:102150000E944319F501808181FF03C090E080E077
:1021600002C09C2F8D2F9093690380936A031AC03D
:10217000F8014485558566857785C8010E94431915
:10218000F501808181FF0EC0C8010E94491980912C
:10219000690390916A038C179D0721F410926A03DA
:1021A000109269034E01FE01E851FC47E730F1054A
:1021B00088F5EA5AFF4F0C94AC3106E221EE41EE6D
:1021C0006AE17CE705C007E225EE45EE6BE17CE7BE
:1021D000C7010E9490191AC106E221EE40EE68E1A3
:1021E0007CE7F6CF07E225EE44EE69E17CE7F0CF2D
:1021F00006E221EE42EE6CE17CE7EACF07E225EE53
:1022000046EE6DE17CE7E4CF08E221E045EE6EE1C9
:102210007CE7DECFF7018581882309F44BC110925A
:102220006603CE019057839708F0DBC084E090E00E
:102230000E9452319093FB028093FA02FE01E1501A
:10224000F047E232F10520F4E35AFF4F0C94AC3131
:102250008091FA028160ACC08091FB028860B4C0BA
:102260008091FA028260A4C08091FA0220C080911D
:10227000FA0288609DC08091FB021EC08091FB0223
:102280008260A2C08091FA02806192C08091FA02BD
:1022900080628EC08091FA0280648AC00E94DE1E35
:1022A0008091FA02806884C08091FA02886084601C
:1022B0007FC08091FB028260816086C08091FA02BB
:1022C0008E7F76C08091FB02877F7EC08091FA026C
:1022D0008D7F6EC08091FA0220C08091FA02877FC4
:1022E00067C08091FB021EC08091FB028D7F6CC095
:1022F0008091FA028F7E5CC08091FA028F7D58C077
:102300008091FA028F7B54C00E94DE1E8091FA02F7
:102310008F774EC08091FA02877F8B7F49C0809172
:10232000FB028D7F8E7F50C08091FA0282FB2227B4
:1023300020F991E0922790FB82F990FB83F938C055
:102340008091FB02982F909591708E7F892B90FB46
:1023500081F93AC08091FA0286FB222720F991E0A8
:10236000922790FB86F924C00E94DE1E8091FA021B
:1023700087FB222720F991E0922790FB87F918C06C
:1023800061E001C060E08EE090E00E9468311EC014
:102390008091FA0284FB222720F991E0922790FB9A
:1023A00084F906C08091FA02982F909590FB80F9ED
:1023B0008093FA020BC08091FB0283FB222720F955
:1023C00091E0922790FB83F98093FB026091FA02DF
:1023D0007091FB0284E090E00E9486310E94DE1E34
:1023E00015C0C6314CE7D40749F5809168038A7A55
:1023F00091E009F490E0909346038111D0C269E224
:1024000089E793E00E94CE180E94931B8091E2031B
:10241000877009F424C3F7018581882309F41FC359
:102420008091FB0282FF1BC382E00E949B1E17C3A8
:10243000C3372CE7D20709F08ACDE8CFC330FCE7D9
:10244000DF0721F140F4C1154CE7D40789F0C13012
:10245000DC4711F13DC0CB358CE7D80739F1CC35DD
:102460009CE7D907D9F0CA35DC4791F581E01FC058
:102470000E94DE1EFFEF24E34CE0F150204040407C
:10248000E1F700C000000E941818C0CF6FEF7FEF87
:1024900080E090E00E9486310E94A30E8091FB02B2
:1024A00082FB882780F991E0892701C080E00E94A3
:1024B000B21E0EC0C631DC4709F4BDC2809168036C
:1024C0008272F401E052F847E531F10508F469C27F
:1024D000F7018581C081D181882349F0CE010E9416
:1024E000321C182F682FCE010E94501E04C0CE014E
:1024F0000E941D1E182FBE01812F0E94FF230E94E3
:102500001C24D82FC92F982EF7011581068102951A
:102510000F708091E203877001F11123F1F0892F90
:10252000807F803469F080E28D0F8830B0F0892F91
:10253000807E803229F4F1E0FD1778F4002369F001
:102540008091FB0282FF09C082E00E949B1E809165
:10255000E2038770BB24B3948111B12CAC2EA294FA
:102560008FE0A8228A2D90E08C30910508F0F5C10B
:10257000FC01E158FF4F0C94AC318C2F807FCF7061
:10258000882311F0C295C07F1123B9F0CC2309F440
:10259000D2C180E28D0F883010F0911006C090916A
:1025A0006803C92BC093680305C090916703C92BCA
:1025B000C09367030E94931BBEC18D2F0E9402200F
:1025C000CC2309F4CAC1D05ED83080F1992071F1D2
:1025D000C09590916703C923C09367032AC08C2FCD
:1025E000807FCF70803211F0C295C07F992029F092
:1025F00021E0921609F44CC055C08091FB0282FD87
:102600001BC0112369F0CC2339F090916803C92BCA
:10261000C09368030E94931B80E00E943E209DC1EE
:1026200080E00E940220CC2309F497C18C2F0E94E5
:102630003F250E94931B91C1112381F00023B1F12A
:10264000013009F08AC190911D038C2F8923C8178E
:1026500009F483C1C92BC0931D037FC101117DC142
:102660008C2F0E94051F80911D039C2F982329F019
:102670009C2F9095892380931D03809147039C2F65
:10268000982309F46AC1C0958C238093470365C1E0
:10269000112321F0063008F060C108C0053008F0B1
:1026A0005CC115C0112331F0011145C18C2F0E946E
:1026B0000C1F53C1002359F0D93309F04BC14FEF20
:1026C00057EE83E0415050408040E1F741C18C2FEC
:1026D0000E94051F42C18C2F86958695837019F044
:1026E000813061F03AC1112321F08D2F9C2F93701E
:1026F00002C080E090E00E940D1935C1112321F045
:102700008D2F9C2F937002C080E090E00E94E8180B
:102710002AC1612F8D2F0E94161F25C18C2F837017
:1027200009F041C011111DC12D2F2295269527704A
:10273000220F220F8D2F8F7090E0022E02C0880F83
:10274000991F0A94E2F7D4FF0BC04FE050E002C09B
:10275000440F551F2A95E2F79A012095309502C043
:1027600020E030E0C695C695C370C23099F068F499
:102770004091190350911A03C13029F0822B932BF9
:102780008423952304C0842B952B822B932B0E94AA
:10279000D91EE7C0822B932B2091190330911A0385
:1027A00082279327F4CF112319F08C2F817001C059
:1027B0008695882309F4D5C02D2F2295269527705C
:1027C000220F220F8D2F8F7090E0022E02C0880FF3
:1027D000991F0A94E2F7D4FF0BC04FE050E002C00B
:1027E000440F551F2A95E2F79A012095309502C0B3
:1027F00020E030E0C695C695C370C23079F0B8F4D9
:1028000040911B0350911C03C13029F0822B932B64
:10281000842395230EC0842B952B09C0822B932BE8
:1028200020911B0330911C038227932702C0822B27
:10283000932B0E94841E95C0CF70112339F08C2FEA
:102840000E94C91E8D2F0E940C1F8BC08D2F0E94CD
:10285000051F8C2F0E94891E84C08D2F92EF991620
:1028600089F1991538F0E0EF9E1659F0F1EF9F16B7
:1028700021F15DC023EF921661F144EF9416C9F087
:1028800056C0112391F0053008F067C0CF7181E088
:1028900090E002C0880F991FCA95E2F720911B03B0
:1028A00030911C038227932721C0063008F055C0C1
:1028B000EDCF8091FB0282FD1CC0112329F08C2FEB
:1028C0008F7129C01123D9F38C2F8F710E94891E1B
:1028D00044C0112349F0CF7181E090E002C0880F1D
:1028E000991FCA95E2F702C080E090E00E94841E22
:1028F00034C0112399F0CF718C2F0E94C91E809192
:10290000FB0282FF07C058E0C59FC001112483600D
:102910008093E2038C2F0E94C91E1FC081E00E9499
:102920009B1E0230D0F082E00E949B1E16C0112335
:1029300021F0002321F28D2F70CE002329F289335C
:1029400049F48FEF97EEE3E081509040E040E1F7EB
:1029500000C000008D2F0E94022088EF8A0D843075
:1029600010F40E943219BB20A9F08091E20380FD8F
:1029700011C0F70115828695869586950E94C91E1D
:10298000C7010E94550F8091E20386958695869532
:102990000E94891E60E0C7010E94780E60C065E356
:1029A0002FCDE557FF4F0C94AC319091210581E07C
:1029B00089278093210510927D01809120058160F7
:1029C0008093200523CD4BE158E265E278E22CC0EC
:1029D00045E258E26BE178E227C047E058E261E166
:1029E00078E222C041E158E267E078E21DC04DEE96
:1029F00057E26AEF77E218C04AEF57E26DEE77E2EE
:102A000013C043ED57E260EE77E20EC040EE57E2AE
:102A100063ED77E209C047E757E265E877E204C073
:102A200045E857E267E777E20E948128EFCC81E032
:102A30000E94C02AEBCC8091460381110EC089E22E
:102A4000E9E7F3E02FE733E09281891301C01282B6
:102A500031962E173F07C1F7D7CC85E3F1CFDF9131
:102A6000CF911F910F91FF90EF90BF90AF909F90EB
:102A70008F9008952091E4003091E50095E6409113
:102A8000EC00842F817040FF23C08091E80080FD1E
:102A90001DC080911605882399F0853099F08091AA
:102AA000EB0085FD11C04091E4005091E500241732
:102AB000350729F3915011F09A01E1CF84E0089590
:102AC00082E0089583E0089581E0089580E008950C
:102AD0004091E80042FFDDCF0895089580910B05F5
:102AE00008950F931F93CF93DF938B01EA01909189
:102AF0001605943079F58F708093E9008FEF9091EF
:102B0000E800815095FD06C095ED9A95F1F700001B
:102B10008111F5CF8091E80085FF1CC00E943A1515
:102B2000882361F08091E8008E778093E80012C0DE
:102B3000F80181918F018093F1002197209791F303
:102B40008091E80085FDF4CF8091E8008E77809336
:102B5000E800E4CFDF91CF911F910F91089543E0FA
:102B600050E0BC0182E00E947115089546E050E0FB
:102B7000BC0182E00E9471150895CF93DF93EC01B0
:102B800048E050E0BC0181E00E94711588E0FE0140
:102B9000ACE0B5E001900D928A95E1F7DF91CF911D
:102BA00008951F920F920FB60F9211242F933F9307
:102BB0004F935F936F937F938F939F93AF93BF9345
:102BC000CF93DF93EF93FF93C091E900CF70809193
:102BD000EC00D82FD17080FDD0E81092E9008091F0
:102BE000F000877F8093F00078940E94E22A109290
:102BF000E9008091F00088608093F000CD2BCF70C9
:102C0000C093E900FF91EF91DF91CF91BF91AF9118
:102C10009F918F917F916F915F914F913F912F91F4
:102C20000F900FBE0F901F901895E8EDF0E0808197
:102C30008E7F80831092E2001092DA001092E10001
:102C4000A0EEB0E08C9181608C9380818F7780833F
:102C500019BCA7EDB0E08C918E7F8C9380818F7E24
:102C600080831092780308958091180587FF11C022
:102C70008091E80082FD05C0809116058111F8CF92
:102C800011C08091E8008B770BC0809116058823D6
:102C900049F08091E80080FFF8CF8091E8008E77BE
:102CA0008093E8000895982F973068F59093E90095
:102CB000981739F07091EC002091ED005091F000E0
:102CC00003C0242F762F50E021FD02C09F5FECCF80
:102CD0003091EB003E7F3093EB003091ED003D7F73
:102CE0003093ED003091EB0031603093EB00709346
:102CF000EC002093ED005093F0002091EE0027FDB2
:102D0000E5CF80E008958F708093E90081E0089519
:102D1000A0E0B0E0EEE8F6E10C940431C8EDD0E0BC
:102D200088818F7E8883E7EDF0E0808181608083F9
:102D300084E082BF81E08093780388818E7F8883DE
:102D400002EE10E0F80110821092DA0081EEC82E37
:102D5000D12CF601108288818F77888388818068E2
:102D6000888388818F7D888319BC10921605109204
:102D70001705109215051092140590EEE92EF12C0E
:102D8000F70180818B7F808388818160888342E026
:102D900060E080E00E945316F60180818E7F808380
:102DA000F801808181608083808188608083F70161
:102DB00080818E7F8083888180618883CDB7DEB7F4
:102DC000E8E00C9420311F920F920FB60F9211245D
:102DD0002F933F934F935F936F937F938F939F9323
:102DE000AF93BF93EF93FF938091E10082FF09C0FF
:102DF0008091E20082FF05C08091E1008B7F80938B
:102E0000E1008091DA0080FF2AC08091D80080FF25
:102E100026C08091DA008E7F8093DA008091D900FD
:102E200080FF18C080E189BD82E189BD09B400FE40
:102E3000FDCF81E0809316058091780381110FC04A
:102E40000E9415160E9488168091E200846080938B
:102E5000E20005C019BC109216051092780380910B
:102E6000E10080FF17C08091E20080FF13C08091D5
:102E7000E2008E7F8093E2008091E2008061809387
:102E8000E2008091D80080628093D80019BC85E070
:102E9000809316058091E10084FF30C08091E200AC
:102EA00084FF2CC080E189BD82E189BD09B400FEA8
:102EB000FDCF8091D8008F7D8093D8008091E10074
:102EC0008F7E8093E1008091E2008F7E8093E2000C
:102ED0008091E20081608093E20080911705882351
:102EE00011F084E007C08091E30087FD02C081E01B
:102EF00001C083E080931605809116058091E10062
:102F000083FF27C08091E20083FF23C08091E1000E
:102F1000877F8093E10082E0809316051092170569
:102F20008091E1008E7F8093E1008091E2008E7FAE
:102F30008093E2008091E20080618093E20042E0B1
:102F400060E080E00E9453168091F00088608093DA
:102F5000F000FF91EF91BF91AF919F918F917F9181
:102F60006F915F914F913F912F910F900FBE0F90F6
:102F70001F90189520911E0530911F0526173707C1
:102F800048F06115710539F42091E8002E772093FF
:102F9000E80001C0B901FC0120E06115710579F17B
:102FA000809116058823F1F18530F1F18091E800D8
:102FB00083FD3CC08091E80082FD2EC08091E80036
:102FC00080FFEBCF2091F3008091F20090E0922BF4
:102FD0006115710551F08830910538F421912093E5
:102FE000F100615071090196F3CF21E0089709F0D3
:102FF00020E08091E8008E778093E800CECF211109
:10300000CFCF0AC080911605882361F0853061F02A
:103010008091E80083FD0AC08091E80082FFF2CF32
:1030200080E0089582E0089583E0089581E00895A6
:1030300081E08093E00080E28093D8001092C90084
:103040008FE19EE40197F1F700C0000087E090EB6C
:10305000DC018093340790933507A0933607B09333
:1030600037079CE088E10FB6F894A895809360003C
:103070000FBE90936000FFCF78941F920F920FB60F
:103080000F9211248F939F93AF93BF9380917403FA
:1030900090917503A0917603B09177030196A11DDD
:1030A000B11D8093740390937503A0937603B0933E
:1030B0007703BF91AF919F918F910F900FBE0F90AB
:1030C0001F901895CF92DF92EF92FF922FB7F8944E
:1030D000C0907403D0907503E0907603F09077036E
:1030E0002FBFA7019601261B370B480B590BCA01AE
:1030F000B901FF90EF90DF90CF9008959C014FB7FA
:10310000F8948091740390917503A0917603B09127
:1031100077034FBF821B930B08952FB7F8946091EC
:1031200074037091750380917603909177032FBF9C
:1031300008952FB7F8948091740390917503A0912E
:103140007603B09177032FBF08951F920F920FB6A9
:103150000F9211248F939F93AF93BF93809173032A
:10316000811113C08091740390917503A09176032F
:10317000B09177034196A11DB11D80937403909384
:103180007503A0937603B0937703BF91AF919F919E
:103190008F910F900FBE0F901F9018959C01FC010E
:1031A00032969FEF80E04191461789F09F3F19F4D6
:1031B000411101C0982F8F5F8630A9F79F3F39F0EA
:1031C000F901E90FF11D97FDFA95628308950895BD
:1031D000A3E0B0E0EEEEF8E10C940A312091710327
:1031E0003091720328173907A1F0909372038093EE
:1031F0007103E0916F03F0917003309751F024E078
:1032000029839B838A830084F185E02DCE0101967A
:1032100009952396E2E00C942631A3E0B0E0E3E1C7
:10322000F9E10C940A3120916D0330916E03281757
:103230003907A1F090936E0380936D03E0916F03C3
:10324000F0917003309751F023E029839B838A83A8
:103250000084F185E02DCE01019609952396E2E0E8
:103260000C94263180916B03882359F0E0916F0311
:10327000F0917003309729F00190F081E02D0995CD
:10328000089580E008954115510511F0FA0109955E
:103290000895CF93DF93EC014A855B856E857F852A
:1032A0000E9443198B8180959091670389238093B5
:1032B00067038C810E943F250E94931B86E0FE01DC
:1032C00011928A95E9F7DF91CF910895CF93DF931B
:1032D000EC018D8181FD17C082608D839091670321
:1032E0008B81892B80936703909168038C81892B54
:1032F000809368030E94931B488559856E857F855E
:10330000CE010E94431910926A03109269038D81C5
:1033100080FD03C0CE010E944919DF91CF9108952D
:103320000F931F93CF93DF93C42FD22FFC0185817E
:103330008823B1F0409366030E9499189093650327
:103340008093640380E28C0F883008F04DC0C77012
:1033500081E001C0880FCA95EAF70E940C1F44C0A3
:1033600080916603481330C0809164039091650397
:103370000E947E18883C910538F510E21D0FCD178C
:10338000B9F080E28C0F883040F4C77081E001C052
:10339000880FCA95EAF70E94051F183010F581E0E2
:1033A0009D2F977001C0880F9A95EAF70E940C1F15
:1033B000802F0E949D201830B8F4D77081E001C0A2
:1033C000880FDA95EAF70AC080E28C0F883060F443
:1033D000C77081E001C0880FCA95EAF70E94051FF7
:1033E00003C0802F0E949D20DF91CF911F910F91EC
:1033F00008950E94991820916003211104C0209122
:103400006103222321F090935D0380935C0320915C
:103410006203211104C020916303222321F09093C1
:103420005B0380935A03E0916F03F0917003309730
:1034300049F082E080935E030680F781E02D8EE5FF
:1034400093E0099508958091590380FD16C081FD90
:1034500016C082FD18C080915803882391F08832ED
:1034600090F428E0829FC001112468E270E00E947D
:103470009831862F672B29F007C082E0089584E0F9
:10348000089581E0089588E008958091590380FDB2
:1034900014C081FD14C082FD16C08091570388239B
:1034A00081F08E3180F420E5829FC00111246EE10D
:1034B00070E00E949831862F089584E1089588E293
:1034C000089588E0089580E50895282F35EB2303BB
:1034D000C001112497FF03C08058910902C0805891
:1034E0009F4F892F0895FC01680F791F8FEF91E39B
:1034F000E617F70771F02191822728E030E087FF77
:1035000003C0880F892701C0880F21503109B9F7FE
:10351000EFCF089580915603882349F08091670387
:103520008D7D809367030E94931B1092560308952C
:103530008091560381110FC0109268030E943925B3
:103540000E94991888579C4E90935503809354037A
:1035500081E080935603089590E0FC01662319F002
:10356000E25DFE4F02C0E35DFE4F20812F3F71F010
:10357000E22FE295EF70F0E080A190E02F7002C0A2
:10358000959587952A95E2F78170089580E00895D2
:1035900090E0FC01662319F0E25DFE4F02C0E35D9E
:1035A000FE4F80818F3FA1F0E82FE295EF70F0E0B1
:1035B00031A1282F2F7081E090E001C0880F2A955B
:1035C000EAF7982F9095932391A392A1892B82A338
:1035D000089590914E03E92FF0E0AF014F5F5F4FE8
:1035E0004370552720914F0330E04217530779F07D
:1035F000E05BFC4F8F7720812078822B60FB87F97E
:1036000080839F5F937090934E0381E0089580E0E4
:10361000089580E090914F0320914E03921711F18D
:10362000292F30E0F901E25BFC4F8281F901E05B78
:10363000FC4F20812F779F5F937090934F0380788A
:10364000211105C011F089EA09C08AEA07C02130BA
:1036500039F4882311F08EE401C08BE40E949D2090
:1036600081E0D8CF089580914D0390914C03882339
:1036700089F0992369F062E070E082EA94E00E94A8
:103680007428811103C080914C03089510924C035B
:1036900090914C0381E08927089580914D03882300
:1036A000F9F00E948D18DC01CB01805A9541AF4F93
:1036B000BF4F8093480390934903A0934A03B0936C
:1036C0004B0380914C0381110BC062E070E080EAF3
:1036D00094E00E947428882319F081E080934C03C1
:1036E00080914C0308952091E1039091A80357E045
:1036F0002917A9F030E0529FF001539FF00D1124DB
:10370000E755FC4F7181761306C07081781303C0B2
:103710007581741306C02F5F3F4F2770E9CF80E09B
:10372000089581E00895CF93C09168038091670365
:10373000C82B80911D03882379F0C82BEBE7F3E0B9
:1037400097E080E0915029F021912223D9F38F5FF7
:10375000F9CF81110E943925C093790348E050E0E8
:1037600063EE73E089E793E00E94B231892BA9F000
:1037700088E0E9E7F3E0A3EEB3E001900D928A95CB
:10378000E1F7E0916F03F0917003309731F0028020
:10379000F381E02D89E793E00995CF910895809119
:1037A000E1039091A803891719F08F5F8770FBCF11
:1037B0000895CF93DF938091A70382958F7009F0CE
:1037C0004EC08091A603882309F449C08091E1038B
:1037D0004091A8035091A2036091A103C091A3035B
:1037E000D091A40377E08417D1F190E0789FF001A5
:1037F000799FF00D1124DF01A755BC4F14962C9131
:103800001497222349F111962C911197251324C066
:103810002C91261321C015962C91159721111CC0AF
:1038200012962D913C9113972C1B3D0B283C310592
:1038300098F48091A7038F7080618093A703E1556E
:10384000FC4F80818F708061808381EA93E00E94C9
:10385000550F0E94CF1B03C001968770C4CFDF9124
:10386000CF910895A0E0B0E0E8E3FCE10C940331CF
:103870007C0100911B0310911C038091190390910E
:103880001A03082B192BCFE0D0E0CC24C394D12C01
:10389000C6010C2E02C0880F991F0A94E2F78023FC
:1038A0009123892B21F4219798F7B12C09C0BC2EC4
:1038B000B7018C2F0E94FF230E941C24019799F3CB
:1038C0008B2DCDB7DEB7E9E00C941F31CF93DF939A
:1038D000EC010E94321CBE010E94FF230E941C24A6
:1038E000DF91CF910895FC0124812223D9F08081BA
:1038F00091810E94661C92959F70963079F010F429
:10390000925001C09A50923068F4803F69F018F4E8
:10391000883E40F409C0843F29F406C0883E20F068
:10392000813F11F080E0089581E00895A4E1B0E0C6
:10393000ECE9FCE10C9400318C0186E0F801DE0139
:103940001F9601900D928A95E1F7F8018481E58038
:1039500091EA892E93E0992E9091A503911120C0B0
:10396000882309F463C1EE2009F442C0C8010E9413
:10397000731CF82E8823E1F187E0F801D40101904F
:103980000D928A95E1F78091A503813031F4809101
:10399000A1039091A2030E94661C0E94D91B48C1FA
:1039A000F801D080C180A280B380F090A60320915E
:1039B000A3033091A403FF2009F4E7C0A501421B33
:1039C000530B483C510508F09DC0882309F430C1D1
:1039D0008091A703282F207F9091A203222361F0DA
:1039E0009C1509F460C0C8010E94731C811163C05A
:1039F000C8010E94550F1AC19C1113C09091A103D8
:103A00009D110FC0E1100DC08F7080618093A703DE
:103A100081EA93E00E94550F8091A703F801868305
:103A200003C1E1103AC040E06C2D8D2D0E94731B44
:103A300040E06C2D8D2D0E94731BE82E8111F4C087
:103A4000DF86C88A8F8598890E94661C292F229557
:103A50002F70243020F49F70223028F009C02A50A3
:103A6000223080F014C0992349F0811107C013C09F
:103A7000992321F0F8019681907F69F0805E88306B
:103A800030F409C0803F38F0815F833020F0C801F6
:103A90000E94550FEF2CFE2CCBC08091A7038160B4
:103AA0008093A703C1C09091A1039D119CCFE11009
:103AB0009ACFF80198C0EE2009F49ACF2091A7037D
:103AC000822F82958F7090E002978CF08091A103F5
:103AD0009091A20399878887BB86AA868091A503C7
:103AE0008C871D862E87CE0108960E94550F87E091
:103AF000F801A1EAB3E001900D928A95E1F70E94E6
:103B0000D91B94C09091A703292F207F51F481EAFB
:103B100093E00E94550F87E0F40111928A95E9F72E
:103B200083C0882309F484C08091A2038C110CC047
:103B30008091A1038D1108C0E11006C0F8019683A1
:103B4000C8010E94550F6AC0C8010E94731C8823D7
:103B500009F44ECFEE2009F44BCF2091A703822F1A
:103B600082958F7090E0029714F28091A10390915A
:103B7000A2039A838983BC82AB828091A5038D8343
:103B80001E822F83CE010196B0CFA21AB30AF8ECA1
:103B9000AF16B10408F042C0882309F447C0FE2CD8
:103BA000EE2009F425CF8091A2038C1129C08091C9
:103BB000A1038D1125C09091A70390FD18C0892FF6
:103BC00082958F70282F30E02115310581F0F801A2
:103BD00096832F30310541F08F5F982F9295907F1B
:103BE00086818F70892B8683C8010E94550F87E0DC
:103BF000F801A1EAB3E001900D928A95E1F718C0AF
:103C0000C8010E94731C811172CF8091A70381604B
:103C10008093A703C8010E94550F0AC087E0F401F2
:103C200011928A95E9F704C0F12C02C0FF24F394A5
:103C30008F2D6496ECE00C941C319A3078F5863028
:103C400068F5E82FF0E086E0989FE00DF11D112463
:103C50009E2F977083E0F695E7958A95E1F7EE0F32
:103C6000FF1FEE0FFF1FEF57FC4F40E050E080E0DA
:103C7000219130E0092E02C0369527950A94E2F78B
:103C800021703327042E01C0220F0A94EAF7822BF9
:103C90004F5F5F4F4430510559F7089580E0089514
:103CA0009A3088F5863078F5E82FF0E086E0989F26
:103CB000E00DF11D11248E2F877051E001C0550FCA
:103CC0008A95EAF783E0F695E7958A95E1F7EE0F96
:103CD000FF1FEE0FFF1FEF57FC4F20E030E070E0BA
:103CE0004081CB01022E02C0969587950A94E2F797
:103CF0008170819584278523842781932F5F3F4F8F
:103D00002430310569F7089590931C0380931B03B9
:103D1000089521E030E002C0220F331F8A95E2F7B8
:103D20002095309580911B0390911C03822393234F
:103D30000E94841E08959091E203809589238093C8
:103D4000E203282F277069F4981759F09091FB022D
:103D500092FF07C08695869586950E94891E1092CF
:103D6000E20308959091FB0292FB222720F9281785
:103D700079F080FB92F99093FB026091FA027091C6
:103D8000FB0284E090E00E94863182E00E949B1E4C
:103D9000089521E030E002C0220F331F8A95E2F738
:103DA00080911B0390911C03822B932B0E94841EF5
:103DB000089590931A03809319030895CF93109256
:103DC0006803C6E0EBE7F3E0DF018C2F1D928A95D4
:103DD000E9F780E090E00E940D1980E090E00E94F9
:103DE000E818109267030E94931BEEE5F3E0DF01F1
:103DF0001D92CA95E9F7109257031092580310923A
:103E000059030E94F919CF910895882321F00E9447
:103E10003F250E94931B0895882339F090916803F1
:103E2000892B809368030E94931B089590916003EF
:103E3000662309F470C091110CC090916103911137
:103E400008C090916303911104C09091620399237B
:103E500031F098E09093570391E0909358038D3C94
:103E600021F40E94451A819504C08E3C29F40E94D9
:103E7000451A80936103C3C08F3C21F40E94451A08
:103E8000819504C0803D29F40E94451A8093600307
:103E9000B6C0893D19F40E94231A05C08A3D31F449
:103EA0000E94231A819580936203A9C08B3D21F45F
:103EB0000E94231A819504C08C3D29F40E94231A84
:103EC000809363039CC09FE2980F983078F421E0C0
:103ED00030E0A90102C0440F551F9A95E2F7CA01CC
:103EE00090915F03892B80935F0389C08D3D21F4FE
:103EF0008091590381600CC08E3D21F4809159035B
:103F0000826006C08F3D09F07AC0809159038460B9
:103F10008093590374C08D3C39F49091610397FFED
:103F200033C01092610357C08E3C29F49091610315
:103F30001916BCF329C08F3C29F497FF25C01092B5
:103F4000600349C0803D19F41916CCF31DC090914F
:103F50006203893D29F41916BCF4109262033BC038
:103F60008A3D19F497FF10C0F8CF8B3D39F490913A
:103F7000630397FF09C0109263032DC08C3D21F4A9
:103F8000909163031916BCF39FE2980F983080F468
:103F900021E030E0A90102C0440F551F9A95E2F7D5
:103FA000CA01809590915F03892380935F0313C0BA
:103FB0008D3D21F4809159038E7F0BC08E3D21F4FD
:103FC000809159038D7F05C08F3D29F4809159035D
:103FD0008B7F8093590380916003811106C080918B
:103FE0006103811102C01092570380916203811115
:103FF00006C080916303811102C0109258030E9491
:10400000F91908958823C9F19CEF980F913A60F44B
:10401000E9E7F3E09281891301C01282319693E0BF
:10402000EF37F907B9F70DC090E2980F983060F4B8
:10403000877091E001C0990F8A95EAF7892F0E9455
:104040003F250E94931B08959BE5980F933028F419
:1040500080E090E00E940D19089598E5980F9B313B
:1040600028F480E090E00E94E818089593E3980F08
:10407000933118F460E00E94161F0895CF938823AF
:1040800009F459C0C82F8CEF8C0F813AF8F4EBE794
:10409000F3E081E893E02191C21721F08E179F078A
:1040A000D1F70EC0E9E7F3E08FE793E02281C21376
:1040B00001C0128231968E179F07C1F70E94931B91
:1040C0006C2F89E793E00E94CE1810C080E28C0F1D
:1040D000883078F4C77081E090E001C0880FCA95FD
:1040E000EAF790916803892B809368030E94931BE1
:1040F00022C0EBE5EC0FE33040F4F0E0EC55FE4F6E
:10410000808190E00E940D1916C0E8E5EC0FEB31BC
:1041100050F4F0E0EE0FFF1FE955FE4F80819181D2
:104120000E94E81808C083E38C0F833120F461E01B
:104130008C2F0E94161FCF9108951F93CF93DF936A
:10414000182F893319F0C0E0D0E002C0C0E5D0E0FC
:10415000812F0E943E20209741F08FE99FE0019738
:10416000F1F700C000002197F6CF812F0E940220B6
:10417000DF91CF911F910895FB01808180934F03C0
:10418000089580E008959091FA0292FF10C041E0F6
:10419000282F2471243009F040E031E0282F2871C5
:1041A000283009F030E0431711F02CE0822793FF0C
:1041B00010C041E0282F2471243109F040E031E0A3
:1041C000282F2871283109F030E0431711F02CE036
:1041D00082273091FB0230FF10C051E0282F21715F
:1041E000213009F050E041E0282F2871283009F0F3
:1041F00040E0541711F029E0822731FF10C041E060
:10420000282F2171213109F040E031E0282F287159
:10421000283109F030E0431711F029E0822794FD9E
:10422000877E08958238910569F1B0F48133910554
:1042300009F475C048F48932910509F467C08A32DF
:10424000910509F471C008958533910509F459C0A9
:1042500089339105B9F00895833E910589F138F4C9
:10426000803E9105D1F0823E910529F10895863E68
:104270009105C9F1873E9105D9F1843E910509F078
:104280006CC027C02091FA0220FD57C021FD55C007
:104290002091FB0223FD5BC008958091FA0280FD0E
:1042A00048C08091FB0280FF48C08091FA0284FDE3
:1042B00046C083EE51C08091FA0282FF3CC0F5CF28
:1042C0008091FA0282FD37C08091FB0280FD35C0EB
:1042D000ECCF8091FB0281FF36C08091FA0284FD11
:1042E0002EC087EE39C08091FA0283FF2AC0F5CF35
:1042F0008091FA0283FD25C08091FB0281FD23C0DD
:10430000ECCF8091FA0285FD22C01FC08091FA0295
:1043100085FD1BC08091FB0283FF19C00AC08091FC
:10432000FA0286FD16C017C08091FA0286FD13C0FE
:1043300010C089E311C082EE0FC080EE0DC080E096
:104340000BC086EE09C084EE07C085E305C089E294
:1043500003C08AE201C081E390E00895A0E0B0E0EC
:10436000E4EBF1E20C9402317C015B016A01809183
:1043700034048A3018F001E010E002C00AE010E0D6
:10438000C1E0D0E0B501C701F6010995811115C062
:1043900021960C171D0794F0CC9F9001CD9F300DF6
:1043A000300D112480E090E045E34A95F1F70000DC
:1043B000019682179307C1F7E5CF81E0CDB7DEB74D
:1043C000EAE00C941E31A0E0B0E0E9EEF1E20C94DA
:1043D00005317901C82F880FDD0B41155105A9F072
:1043E000FE0193E0EE0FFF1F9A95E1F7E15DFE4FAE
:1043F0008181928189509C4F208130E04217530780
:1044000008F49A01A9010E94BF31CE010E946B30CD
:10441000D82E8823D1F001151105B9F083E0CC0F17
:10442000DD1F8A95E1F7FE01E15DFE4F438150E01B
:104430000417150708F4A801C15DDE4F6C817D816A
:1044400069507C4FC7010E94BF318D2DCDB7DEB7BB
:10445000E7E00C942131A0E0B0E0E1E3F2E20C945B
:104460000231C82F7B01D42F69015801FB01608103
:104470007181828193810E94621864367105810581
:10448000910510F4DD23A1F000E010E020E030E021
:10449000A501B6018C2F0E94E321C82F882349F083
:1044A0000E948D18F701608371838283938301C01A
:1044B000C1E08C2FCDB7DEB7EAE00C941E31A1E04D
:1044C000B0E0E5E6F2E20C94083180914C03898378
:1044D0002091160430E090E041E02817390709F4F4
:1044E00040E001E010E09E012F5F3F4F60E374E089
:1044F00088E00E942B222196E4E00C942431A9E06C
:10450000B0E0E5E8F2E20C94083188E0E1E2F5E0A1
:10451000DE01119601900D928A95E1F7198649E026
:1045200050E06DE074E0CE0101960E94B23141E0AE
:10453000892B09F440E009E010E09E012F5F3F4F16
:104540006CE274E087E00E942B222996E4E00C9450
:1045500024310F931F93CF93DF93EC0145E050E09C
:104560006DEF73E00E94B23141E0892B09F440E025
:1045700005E010E09E0160E274E082E00E942B22E0
:10458000DF91CF911F910F910895A1E0B0E0EBEC86
:10459000F2E20C94FF30762E4A015901680101E0E5
:1045A00010E09E012F5F3F4F40E050E060E070E080
:1045B0000E94E321182F882379F1F4016081718131
:1045C000828193810E94621864367105810591058C
:1045D00038F4B701C6010E94731A99818917E1F076
:1045E0008701950140E050E060E070E0872D0E9477
:1045F000E321182FB701C6010E94731A91E02981A7
:10460000281390E0192369F00E948D18F40160834B
:1046100071838283938305C0A701B601C5010E94FF
:10462000BF31812F2196EDE00C941B31A6E0B0E064
:10463000ECE1F3E20C94063186E0E82EF12C03E085
:1046400014E09E012F5F3F4F44E254E064E083E0BA
:104650000E94C522F82E882381F190910404809154
:1046600003049817B9F0292F30E0F901E950FC4F05
:104670006685F901E750FC4F84858F779F5F9370C3
:10468000909304046078682B661F6627661F0E945B
:10469000E91AE3CF00E010E020E030E041E050E034
:1046A00064E074E085E00E94E32166E070E083E06E
:1046B00094E00E94731A809302048F2D2696E6E000
:1046C0000C942231A5E0B0E0E8E6F3E20C9404316A
:1046D0006B0185E0E82EF12C08EF13E09E012F5FBF
:1046E0003F4F4CE154E061E080E00E94C522882306
:1046F00049F095E0FE013196A7E1B4E001900D92FA
:104700009A95E1F795E0E7E1F4E0D60101900D928A
:104710009A95E1F72596E8E00C942031F894E82F7B
:10472000E295EF70F0E031A1282F2F7081E090E04A
:1047300001C0880F2A95EAF7982F9095932391A3AB
:1047400092A1892B82A3789408950F931F9380914F
:104750006B03882319F00E948D180EC00E948D18DB
:104760000091EA021091EB022091EC023091ED02EF
:10477000600F711F821F931F1F910F910895A4E076
:10478000B0E0E5ECF3E20C940831609128047091FC
:10479000290480912A0490912B040E9462186436A7
:1047A00071058105910528F10E94A523DC01CB014B
:1047B0000296A11DB11D89839A83AB83BC8300E05F
:1047C00010E020E030E044E050E0BE016F5F7F4F3A
:1047D00086E00E94E321182F882361F00E948D1843
:1047E000609328047093290480932A0490932B04E7
:1047F00001C011E0812F2496E4E00C9424317A303A
:10480000B0F46630A0F48430A0F49CE3899FF001FA
:10481000112486E0789FE00DF11D1124E60FF11DB3
:10482000EE0FFF1FEC55FB4F85919491089580E0AA
:1048300001C081E090E008951F93CF93DF930E9421
:104840001221EC01C11580E5D807E8F5C11590E407
:10485000D90708F0A8C0C03ED10530F5CD3CD10540
:1048600008F094C0C83AD10578F4C53AD10508F0EB
:1048700083C0C130D10509F47CC008F4F2C0C43053
:10488000D10508F0F1C0EDC0C33CD10508F0E9C086
:10489000C85AD0E0CC0FDD1FC955DE4F0990D88132
:1048A000C02DCE019464E1C0C11580E2D80708F0A4
:1048B000CBC0C11591E0D90708F06BC0C83ED10547
:1048C00008F4D2C0CEC0C03682E5D80728F5C0347F
:1048D00092E5D90708F079C0C03282E5D80708F020
:1048E0006CC0C11592E5D90708F481C04C2F4695DC
:1048F000469580E2489FA0011124C37021E030E07A
:10490000C90102C0880F991FCA95E2F7EA01C82BB6
:10491000D92BCE019D68A9C0C03A82E5D807B8F46A
:104920008C2F8F71C03892E5D90708F07BC086952F
:10493000869590E2899F90011124C37081E090E0F8
:1049400002C0880F991FCA95E2F79A6868C0C03CF8
:1049500082E5D80708F46DC0C03E92E5D90708F09B
:1049600080C0CF71DD27DC2FCC27CE01806F906A0D
:104970007CC081E090E079C0C55AD0E0CC55DE4FD4
:104980008881C82FD0E0CE0190646FC0CE019065C1
:104990006CC08D2F0E94C320182FCE0199270E9432
:1049A00012211F715CC0CE0199270E941221CC27D1
:1049B000DF70D06A8C2B9D2B58C0CF71D0E0DC2FDC
:1049C000CC27CE01816F906A50C08C2F8F71869555
:1049D000869590E2899F90011124C37081E090E058
:1049E00002C0880F991FCA95E2F79C6818C08C2FE7
:1049F0008F710E94C32095E0D695C7959A95E1F7EF
:104A0000CF70D0E0DC2FCC27282F30E084FF05C00A
:104A100084E0220F331F8A95E1F7D069CE01822B03
:104A2000932B23C090E0D82FCC27CE01846F906ABF
:104A30001CC08C2F8F710E94C3208F7190E0D82FE3
:104A4000CC27CE01906211C08D2F8F710E94C320A0
:104A5000182FCE0199270E9412211F719062912B6D
:104A600004C080E090E001C0CE01DF91CF911F91A2
:104A7000089580911D03811110921D030895809562
:104A8000909168038923809368030895A6E0B0E0BD
:104A9000ECE4F5E20C9408310E9499188C018091A5
:104AA000EB039091EC030817190781F019821A8221
:104AB0000E949918682F49815A81792F80E090E0EF
:104AC0000E94CC0E1093EC030093EB032696E4E0D7
:104AD0000C9424314F925F927F928F929F92AF926B
:104AE000BF92CF92DF92EF92FF920F931F93CF93DB
:104AF000DF93CDB7DEB72F970FB6F894DEBF0FBEAA
:104B0000CDBFAE014F5F5F4F7A018AE0DA011D929F
:104B10008A95E9F700E011E096E0C92E91E0D92EE0
:104B200077247394AA24A394B12C4E01B6E08B0E83
:104B3000911CF80180818F3F09F447C0F894E82F59
:104B4000E295EF70F0E021A18F70A50102C0440F43
:104B5000551F8A95E2F7CA01922F982B91A392A133
:104B60008095892382A3789400C086E0482E81E056
:104B7000582EF701472D4095D2018D912D018F3F81
:104B8000A1F0282F22952F7030E0D90190962C911A
:104B900030E08F70B90102C0759567958A95E2F78C
:104BA00060FD03C08081872902C0808184238083C7
:104BB00031968E169F0601F7D8018C918F3F11F028
:104BC0000E948E23B0EABA95F1F7770C0F5F1F4F62
:104BD000C016D10609F0ADCF4AE050E0B7018EEE25
:104BE00092E00E94B231892B99F08AE0F701AEEE93
:104BF000B2E001900D928A95E1F781E08093EF0396
:104C00000E9499189093EE038093ED03D12C27C056
:104C10008091EF038823D1F30091F9028091ED0395
:104C20009091EE030E947E18059780F310E00450E7
:104C30001D4F45E050E06EEE72E0C8010E94B231B7
:104C4000892B09F423C185E0EEEEF2E0D801019052
:104C50000D928A95E1F7DD24D3941092EF038091B1
:104C60006B03E091F902882309F478C07E01FBE030
:104C7000EF0EF11C85E0D7011D928A95E9F70E2F02
:104C800010E004501D4F809134048A3048F442E60D
:104C900053E2B701C8010E94AE21882399F10AC0EE
:104CA0008091F0039091F1030E947E18843F91401F
:104CB00070F73AC049EA52E2B701C8010E94AE213A
:104CC000882301F146E153E2B701C8010E94AE21F9
:104CD0008823C1F04FEB53E2B701C8010E94AE2117
:104CE000882381F04FE752E2B701C8010E94AE214C
:104CF000882341F04FE552E2B701C8010E94AE217E
:104D00008111B1C0809134048F3F19F08F5F80937F
:104D10003404809134048A3008F4A7C00E949918A2
:104D20009093F1038093F0038091F603882309F4B4
:104D300082C085E0F70111928A95E9F71092F60397
:104D4000A091F802B0E0A450BD4F85E0FE013B9673
:104D500001900D928A95E1F781E06EC00091F80212
:104D600010E004501D4FF0E0E450FD4F85E0A8EF47
:104D7000B3E001900D928A95E1F765E070E088EF6D
:104D800093E00E94731A8093F70385E0EDEFF3E060
:104D9000D80101900D928A95E1F786E0EEE4F3E008
:104DA000A3E0B4E001900D928A95E1F766E070E02F
:104DB00083E094E00E94731A8093020480900904B7
:104DC00090900A04A0900B04B0900C048091F20320
:104DD0009091F303A091F403B091F503881699061E
:104DE000AA06BB06B1F08092F2039092F303A09260
:104DF000F403B092F5030E948D18861A970AA80A48
:104E0000B90A8092EA029092EB02A092EC02B09270
:104E1000ED0288E0EDE0F4E0A1E2B5E001900D9252
:104E20008A95E1F780911604882319F00E944D1BA2
:104E300002C00E94331B80E08D292F960FB6F89494
:104E4000DEBF0FBECDBFDF91CF911F910F91FF90BD
:104E5000EF90DF90CF90BF90AF909F908F907F901A
:104E60005F904F900895109234048091F80290E082
:104E700045E050E0B70184509D4F0E94B23121E0DF
:104E80002093F603892B09F05BCFD5CFD12CE5CE4B
:104E900030916C03311105C08232910524F1829763
:104EA00003C082329105FCF4FC01EE0FFF1FDF010D
:104EB000A80FB91FA25CBB4F11963C9111973613F6
:104EC00007C03C91341304C012963C91321759F03C
:104ED00031E030933D048E0F9F1FFC01E25CFB4FDD
:104EE000618340832283089510923D040895E1E296
:104EF000F5E0248130E1231B08F420E02483809135
:104F000020058160809320050895E1E2F5E0248189
:104F100030E1230F08F42FEF248380912005816076
:104F20008093200508959EE0899F802D1124980F7D
:104F3000953408F094E420916C03222321F09332FD
:104F400028F092E20895823208F482E20895809176
:104F50003D04882339F1539A8BB1877F9BB19860C8
:104F60002FB7F894EEE3F4E035E0EA30F30789F088
:104F7000319148E09BB9000000C037FF8BB9330F77
:104F8000000000C000C000C08BB900C04A9591F776
:104F9000EBCF2FBF8FE594E00197F1F700C0000041
:104FA00010923D040895E1E2F5E0438120E1421BC7
:104FB00008F440E08181628190E00E94CF2A089548
:104FC000E1E2F5E0438120E1420F08F44FEF8181F7
:104FD000628190E00E94CF2A0895E1E2F5E06281CB
:104FE00020E1621B08F460E08181438190E00E942F
:104FF000CF2A0895E1E2F5E0628120E1620F08F432
:105000006FEF8181438190E00E94CF2A0895E1E211
:10501000F5E0818190E04381628108970E94CF2A68
:105020000895E1E2F5E0818190E043816281089694
:105030000E94CF2A089580912105869586958150FA
:1050400009F481E00E94C02A089581E00E94C02AEC
:105050000895EF92FF920F931F93CF93DF932091C8
:105060003207309133072C523540A901460F571FA4
:105070004130524020F060E072E0621B730BC0913F
:105080002A05D0912B05D901A45DBA4FA901620F61
:10509000731F01E010E046175707E8F4FA01E21B1E
:1050A000F30BE80FF91FE491FC91EF1781F0EC93FB
:1050B000FA01689414F8F695E7951694E1F77801EB
:1050C00002C0EE0CFF1CEA95E2F7CE29DF294F5F04
:1050D0005F4F1196E0CFD0932B05C0932A05CDB733
:1050E000DEB7E6E00C942231AB0124E630E0BC01EF
:1050F00088E70E94902E21E0892B09F020E0822F82
:105100000895882311F0FA0101C0FB010995089563
:105110008F929F92AF92BF92DF92EF92FF920F9386
:105120001F93CF93DF930E94A52360933504709360
:105130003604809337049093380430912105232F4F
:10514000237021F0C32FC695C69501C0C0E0209101
:105150007D01213091F028F0223099F12330E9F1DE
:1051600049C1109279016093390470933A04809395
:105170003B0490933C0481E02DC090917801C913C9
:105180000DC0832F837090E04091770150E021E0C3
:105190008417950709F420E0822F01C081E0817017
:1051A00080937B018091260590917A01981709F4EC
:1051B00042C080937A0140E060E080E00E94A42D2C
:1051C0003AC0C0937801832F8370809377010E9447
:1051D000A72783E080937D010DC18091200588235E
:1051E00051F048E050E068E170E081E295E00E9413
:1051F0005831109220058090390490903A04A09084
:105200003B04B0903C0480916B03882329F0C501D6
:10521000B4010E94621806C00E94A523681979098A
:105220008A099B09603171058105910508F4E2C086
:1052300010927D01DFC0C1110AC080917B018823DB
:1052400049F140E060E080E00E94A42D23C0C1301D
:1052500009F0CAC0809179010E949327D92ED82FD6
:105260004091220520912305E0912405F0E02111D1
:105270002CC0EC57F94F1491012FF12EDD1508F4D5
:105280009BC080916C03882309F4A8C081E051E29F
:105290005D1508F480E0909179019F5F909379010A
:1052A000811110C082E080937D0180917B0181118A
:1052B00009C0CC2309F48DCF8091790181500E94DF
:1052C000932798C0C111F8CF95C0E22EF12CEC576E
:1052D000F94F3491F32FA32EB12C56E0459FC00116
:1052E00011240FEF10E0B8010E94E6305BEA56038C
:1052F000C001579F900D1124840F911D840F911DA3
:10530000982E990C980EA8014E195F094A9DC0016C
:105310004B9D900D5A9D900D1124E92F299DA001C0
:105320001124452F5527D801A41BB50BAD014A9D6B
:10533000D0014B9DB00D5A9DB00D1124A801491903
:1053400051094A018E9CA0018F9C500D9E9C500DCE
:105350001124452F5527041B150B0A9D70010B9D29
:10536000F00C1A9DF00C11244F2D6230710591F054
:1053700048F461157105E1F061307105B9F4432F0E
:105380003B2F16C06430710569F040F0663071053E
:1053900079F00CC0432F392FEF2D0AC0392FEF2F92
:1053A0004B2F06C0492FE32F3F2D02C0492FEB2F73
:1053B0001E2F032FF42E62CFED2FF0E0DF01AD554D
:1053C000BD4F8C9190917A01982331F0212F4F2D70
:1053D000602FCF010E944827DF5F50CF81E093E428
:1053E0009D1508F058CF56CF809179018F5F80933B
:1053F000790158CFDF91CF911F910F91FF90EF90DE
:10540000DF90BF90AF909F908F900895CF93DF93E0
:10541000C0913207D09133078A30B1F42091290529
:10542000CE018C529540622F70E00E94E630281B1E
:10543000822F66E00E948C31C82FC15008F48FC0C3
:1054400080E20E94062AF9CF8D30E9F4CC52D54093
:1054500020912905622F70E0CE010E94E630281BC2
:10546000822F9E01280F311D2115324018F080E057
:10547000C0E0D0E0C80FD11DC45DDA4FD093330730
:10548000C09332076CC096E0FE01ACE2B7E0019039
:105490000D929A95E1F7803E30F086E0FE01119280
:1054A0008A95E9F70BC0F6E08F9FB00111246A528C
:1054B000774F46E050E0CE010E943131C091320773
:1054C000D091330746E050E0BE018CE297E00E94A5
:1054D000B231892B49F19E012C523540A90185E05A
:1054E000569547958A95E1F781E090E0BC0102C0AE
:1054F000660F771F4A95E2F740912A0550912B05D8
:10550000462B572B2B5F3F4F65E0369527956A95C5
:10551000E1F702C0880F991F2A95E2F7842B952B9B
:1055200090932B0580932A059E0126523540409189
:105530002905642F70E0C9010E94E630481B4630FF
:1055400010F4240F311D211582E0380710F020E0FF
:1055500030E0245D3A4F3093330720933207DF91D8
:10556000CF910895CF93DF93EC01FE0184918823BE
:1055700021F00E94062A2196F8CFDF91CF9108955D
:1055800080912105837051F08460809321051092F1
:105590007D01809120058160809320050895909180
:1055A0002105937071F080932205609323054138A3
:1055B00008F040E8409324058091200581608093A5
:1055C00020050895AAE2B0E0E8EEFAE20C94093171
:1055D000E8E1F5E080E295E02091F10021938E175B
:1055E0009F07D1F780911905833009F461C030F429
:1055F000813071F0823009F49BC0B2C08A3009F466
:1056000087C08B3009F46CC0893009F0A9C020C074
:1056100080911805813A09F0A3C08091E800877F46
:105620008093E80080911C0590911D05892B21F441
:1056300068E08CE095E003C060E080E090E070E01E
:105640000E94BA178091E8008B778093E80088C0A9
:1056500080911805813209F083C080911C059091DA
:105660001D05029708F07CC08091E800877F809339
:10567000E8008091E80082FD05C080911605811147
:10568000F8CF6EC02091F3008091F20090E0922B51
:10569000029731F48091F100813011F0863021F4CD
:1056A0008091F10080930B058091E8008B7754C0C6
:1056B00080911805813A09F053C080911C059091A2
:1056C0001D05892B09F04CC08091E800877F8093ED
:1056D000E8008091E80080FFFCCF80917C0137C01A
:1056E000809118058132E1F580911C0590911D058E
:1056F000892BB1F58091E800877F8093E8000E94B4
:10570000341680911A0580937C010E94DE1E28C009
:1057100080911805813221F58091E800877F809380
:10572000E8000E94341680911B0580930A0518C07A
:1057300080911805813AA1F48091E800877F8093D9
:10574000E8008091E80080FFFCCF80910A058093FB
:10575000F1008091E8008E778093E8000E94341673
:105760008091E80083FFCEC18091180590911905C2
:10577000492F50E04A30510508F0C4C1FA01E05603
:10578000FF4F0C94AC31803821F0823809F0BAC157
:1057900008C08091140590911505992389F08260C5
:1057A0000FC080911C058F70873008F0ABC18093CB
:1057B000E9008091EB0085FB882780F91092E900D1
:1057C0009091E800977F9093E8008093F100109209
:1057D000F10065C1282F2D7F09F094C1882319F0AD
:1057E000823061F08FC180911A05813009F08AC141
:1057F000933009F080E0809315052EC080911A0542
:1058000081112AC080911C058F702FEF280F263040
:1058100008F078C18093E9002091EB0020FF1CC0C4
:10582000933021F48091EB00806214C09091EB00E2
:1058300090619093EB0021E030E0A90102C0440F99
:10584000551F8A95E2F74093EA001092EA00809192
:10585000EB0088608093EB001092E9008091E800F3
:10586000877F20C181114EC110911A051F77809149
:10587000E3008078812B8093E3008091E800877FAC
:105880008093E8000E9434168091E80080FFFCCFEE
:105890008091E30080688093E300111102C082E0F0
:1058A00001C083E0809316052DC18058823008F036
:1058B00029C180911A0590911B058C3D53E09507F5
:1058C00079F583E08A838AE289834FB7F894DE0111
:1058D000139620E03EE051E2E32FF0E050935700B2
:1058E000E49120FF03C0E295EF703F5FEF708E2FD1
:1058F00090E0EA3010F0C79601C0C0968D939D935A
:105900002F5F243149F74FBF8091E800877F809354
:10591000E8006AE270E0CE0101960E94BA17AEC0BC
:1059200040911C0550911D05292F33272330310547
:10593000A9F068F42130310509F4F3C022303105B3
:1059400009F0E0C08BE390E0E3E4F8E044C02132EA
:10595000310521F12232310571F1D4C0992781300E
:105960009105A1F058F0029709F0CCC0E0E9F8E009
:10597000E4918E2F90E0E0E9F8E02AC0E2EDF8E053
:10598000E4918E2F90E0E2EDF8E022C0E8EBF8E041
:10599000E4918E2F90E0E8EBF8E01AC04115510534
:1059A00009F4C4C04130510509F0ACC089E090E071
:1059B000EEE6F8E010C04115510509F4BCC04130D5
:1059C000510509F09FC08BE790E0E4E8F7E003C0E1
:1059D000009709F497C02091E800277F2093E80002
:1059E00020911E0530911F058217930708F49C0132
:1059F00040E02115310589F180911605882309F4CD
:105A00003DC08530D9F18091E80083FD37C0809199
:105A1000E80082FD2FC08091E80080FFEACF40912E
:105A2000F3008091F20090E0942B2115310559F09C
:105A30008830910540F444914093F1003196215013
:105A400031090196F2CF41E0089709F040E08091DA
:105A5000E8008E778093E800CCCF4111CDCF0AC00B
:105A600080911605882351F0853041F08091E8003F
:105A700083FD04C08091E80082FFF2CF8091E800AE
:105A80008B778093E8003EC08038E1F58091E80094
:105A9000877F8093E800809117058093F1008091C3
:105AA000E8008E778093E8000E9434162BC08111A5
:105AB00029C080911A0590911B059927029714F52A
:105AC0008091E800877F8093E80010911A05109379
:105AD00017050E943416111106C08091E30087FD5E
