:100000000C940B070C9443070C9443070C94922E0A
:100010000C9443070C9443070C9443070C94430738
:100020000C9443070C9443070C94E5150C94D314DB
:100030000C94A7170C9443070C9443070C944307A4
:100040000C9443070C9443070C9443070C94430708
:100050000C9443070C943E170C9443070C944307ED
:100060000C9443070C9443070C9443070C944307E8
:100070000C9443070C9443070C9443070C944307D8
:100080000C9443070C9443070C9443070C944307C8
:100090000C9443070C9443070C9443070C944307B8
:1000A0000C9443070C9443070C9443073B10AF1088
:1000B00043100D101110471014104A1055101F1046
:1000C000A5102310591027105D1087102B106110F8
:1000D000911031106710711018104E101B10511034
:1000E00036106C107D109D109F1009103F10B81035
:1000F000E110E710D210D810ED10F310F910C9116B
:10010000C911FB11FB116D128B12AF13AF139012BB
:100110001E132F132F13DD13EB13F013F513FA1324
:10012000FF13041409140E14131418141F141411BB
:100130001411141114111411141114111411141197
:10014000A326CA266228CA266228122735276228D3
:100150002428372800DA0281FFD9F1DB20A4A62E5B
:10016000AF00A0C0D30000A1C8D30000AED580A8C6
:100170001F408D142000000000E000F8C0F8E0C02F
:10018000FC007E180080000280F000C080F8C0E013
:1001900070603C383C1C003F0C0F1F030701C3007C
:1001A000E08000E080F880C0F7C76F7B39300080C6
:1001B00000C000C0C2E000403830381E181E0F0CCE
:1001C00007070703032121313018181C080C0E07FC
:1001D000060703C303014CCCC2C24149092B2A6A5A
:1001E0006E2424049292B1F1F1F2E6A4A40404284E
:1001F0002828282828286C696C7920002094959656
:100200002020B4B5B62020D4D5D62000209D9E9FB6
:100210002020BDBEBF2020DDDEDF20002097989982
:100220002020B7B8B92020D7D8D92000209A9B9C8D
:100230002020BABBBC2020DADBDC200020202020DC
:100240002000A7A800AFB000C600CA00C800A5A63D
:1002500000ADAE008788008F9000C500C900C700C0
:10026000CB008586008D8E00ABAC00CFD000C600E1
:10027000CA00C800A9AA00B1B2008B8C00CDCE0084
:10028000C500C900C700CB00898A009192002020D8
:10029000005320002020004320002020004E20009A
:1002A0000000001000000000000000081C08000012
:1002B000000000000000020000000000100000002C
:1002C00000000000200000000000000000020040CC
:1002D000E040000000000000040000000080C0803A
:1002E000C080000000000000E0008000F00000C0BE
:1002F00000000000000000400000000000000100BD
:100300008100C000FE00FC00FF20FFF00FF000FFA6
:10031000000000001000000000009000F80000F84D
:10032000FF10FF84FF60FF36FF0FFF3F005F0005F7
:1003300080008000C03800ECF000FB80FFF0FFEF91
:10034000FFE8FF03FF0CFF00FF00030000F8008040
:10035000FF20FFD0FFE0FEF8FFFCFFFF0FFF013F93
:10036000FF000F0001000300FE80FE00C0FFC4FB81
:10037000FFFEFFFFFF3FFFFF07FF033F000FC0002F
:100380000000B800FF40BEF0FFF1FFFEFFFFFFFFDF
:100390001FFF6700EF001F0000070000E000FFF0F4
:1003A000FF88FFC4FFF8FFFFFFFFFFFF8F7F0FFFF6
:1003B0000007FE000700000000F800C03FF8E7FF5C
:1003C000FFFFFF1FFFFF1F3F01FF0B00FF000005A6
:1003D000000000E000F86080FEE3FCFF1EFFFF234A
:1003E000FF09FF20003F0200000F004000C000FC9A
:1003F000E0FCF0FFFF7FFCFF0FFF071F00010F0075
:100400000F0081700CF0800000E4F8E6703FCFFF31
:100410001FFF48FF0F000700004360F8F0FE38FEA2
:1004200000FC0300C872CFFC00030F01E01CE003D6
:10043000000F00000000000000F806F900030007AC
:10044000FF001012C9F0CFB47F80E01E0140655E4E
:10045000E00000F00CF000807E018093FCC0000002
:100460000000000089182C46000721101080091395
:1004700031BFFF00081AF70F0000444534BFB80031
:1004800010F008F41811FC18FB0E10F804F81020F6
:100490001809FF0CEA1F286030F820C04233210001
:1004A00000AF00AE167C1E001F00200021002200BD
:1004B0002B0014001A00080015001700E1000400CA
:1004C0001600070009000A00E0001D001B000600DE
:1004D000190005000000737CE200E30021522C2289
:1004E0002E00270026002500240023002D001300E5
:1004F00012000C0018001C00340033000F000E0026
:100500000D000B00313238003700360010001100AA
:1005100000003D044C002A0022521E7C35000000E1
:100520000000000000000000390000000000000092
:1005300000000000E1001E021F0220022102220230
:10054000E0000000000000000000000000000000CB
:1005500001000100010001005700270226020000EF
:10056000000000002D0230002F00310230022F0267
:100570003402330200002502240223023200380232
:10058000370236022E0267000000000001004C0016
:100590002352010001003A003B003C003D003E00B8
:1005A000000000000000000000000000E1001E004C
:1005B0001F00200021002200E0002300240025006D
:1005C0002600270000000000010001002352010066
:1005D0004D004A004500440043003D004E004B00E2
:1005E0000000000000000000000000004F0052006A
:1005F0005100500000003800370036004D004A001E
:1006000000004600010001000100010000000000A0
:1006100000000000000000000000000000000000DA
:10062000000000000000000000000000D100D20027
:1006300000000000000000000000000000000000BA
:100640000100010001000100A900AA000000000053
:1006500000000000BD00BE0000000000000000001F
:1006600000000000D000CD00CE00CF000000000050
:10067000D900DA00000000000000000001000100C5
:100680000100010005010902A10185020901A10083
:100690000509190129081500250195087501810230
:1006A0000501093009311581257F950275088106FC
:1006B00009381581257F950175088106050C0A38D2
:1006C000021581257F950175088106C0C0050109C5
:1006D00080A101850319012AB700150126B70095ED
:1006E0000175108100C0050C0901A10185041901E3
:1006F0002AA002150126A002950175108100C005EF
:10070000010906A101050719E029E7150025019552
:1007100008750181029501750881010507190029F5
:10072000FF150026FF0095067508810005081901D0
:10073000290515002501950575019102950175039F
:100740009101C009023B00020100A0FA0904000067
:1007500001030101000921110100012244000705E4
:1007600081030800010904010001030000000921C0
:1007700011010001227B0007058203200001120104
:100780000002000000081D8DC2B40001010200013A
:1007900026034100750072006F00720061002000A6
:1007A0004C0069006C0079003500380020007200B0
:1007B00065007600310000001803730070006C00C3
:1007C000690074006B0062002E0063006F006D0012
:1007D0000000040309040000000000003E5B4F5BC2
:1007E0003E003E6B4F6B3E001C3E7C3E1C00183CA6
:1007F0007E3C18001C577D571C001C5E7F5E1C0051
:1008000000183C180000FFE7C3E7FF000018241899
:100810000000FFE7DBE7FF0030483A060E0026291C
:1008200079292600407F05050700407F05253F0008
:100830005A3CE73C5A007F3E1C1C0800081C1C3E2A
:100840007F0014227F2214005F5F005F5F000609B3
:100850007F017F00006689956A00606060606000CB
:1008600094A2FFA2940008047E04080010207E20B9
:10087000100008082A1C0800081C2A0808001E107E
:10088000101010000C1E0C1E0C0030383E383000CA
:10089000060E3E0E060000000000000000005F0093
:1008A0000000000700070000147F147F1400242AB2
:1008B0007F2A120023130864620036495620500034
:1008C000000807030000001C224100000041221C18
:1008D00000002A1C7F1C2A0008083E08080000802F
:1008E0007030000008080808080000006060000080
:1008F0002010080402003E5149453E0000427F405E
:1009000000007249494946002141494D33001814FD
:10091000127F10002745454539003C4A49493100BE
:1009200041211109070036494949360046494929FC
:100930001E00000014000000004034000000000809
:10094000142241001414141414000041221408004D
:100950000201590906003E415D594E007C121112F8
:100960007C007F49494936003E41414122007F4198
:1009700041413E007F49494941007F090909010081
:100980003E41415173007F0808087F0000417F41CC
:1009900000002040413F01007F08142241007F40B9
:1009A000404040007F021C027F007F0408107F004F
:1009B0003E4141413E007F09090906003E41512167
:1009C0005E007F0919294600264949493200030182
:1009D0007F0103003F4040403F001F2040201F0098
:1009E0003F4038403F006314081463000304780458
:1009F00003006159494D4300007F41414100020419
:100A000008102000004141417F000402010204005F
:100A10004040404040000003070800002054547844
:100A200040007F2844443800384444442800384477
:100A300044287F0038545454180000087E090200EE
:100A40001824241C78007F080404780000447D40AA
:100A500000002040403D00007F102844000000417D
:100A60007F4000007C04780478007C08040478004F
:100A70003844444438007C182424180018242418CE
:100A80007C007C08040408004854545424000404E6
:100A90003F4424003C4040207C001C2040201C009F
:100AA0003C4030403C004428102844004C9090903A
:100AB0007C004464544C44000008364100000000AF
:100AC0007700000000413608000002010204020025
:100AD0003C2623263C000000000000000000C0E08F
:100AE000F0F8F81800C0F0FCFEFFFFFFFFFFFFFF6B
:100AF0007E00000000F8042252E2424242E252220A
:100B000022224282020222220204F80000F8040299
:100B10000282422242820202028242221222428245
:100B20000204F80000F8FCDEAE1EBEBEBE1EAEDE45
:100B3000DEDEBE7EFEFEDEDEFEFCF80000F8FCFE21
:100B4000FE7EBEDEBE7EFEFE000000000000808055
:100B500040402020101008081010202040408080C5
:100B60008080C0C0E0E0F0F0F8F8F0F0E0E0C0C055
:100B70008080808040402020101008081010202025
:100B800040408080808040C060A050B058A850B0E5
:100B900060A040C0808000F8FCFEFFE000FFFFFF87
:100BA000FFFFFF80FFFFFFFFFFFFFFFFFF1F0701AA
:100BB00000000000001F20444A47424242474A4486
:100BC000404040404142444440201F00001F20401C
:100BD000414040404040414041414F4848484F41DA
:100BE00041201F00001F3F7B75787D7D7D78757BE0
:100BF0007F7F7F7F7E7D7B7B7F3F1F00001F3F7F4E
:100C00007E7F7F7F7F7F7E7F0000000000008888DE
:100C10005D5D3E3E7C7CF8F87C7C3E3E5D5D888878
:100C200088885555232347478F8F4747232355559A
:100C300088888888D5D5E2E2C4C48888C4C4E2E242
:100C4000D5D5888888885DD56BB66DD6ADDA6DD67A
:100C50006BB65DD5888800030F1F3F3F3F3F1F1FC6
:100C60003F3F7F7F7F3F3F1F3F7F7F7F7F7C787845
:100C7000381C0F0004F80000F804201F00001F209B
:100C8000FCF80000F8043F1F00001F2004F80000DB
:100C9000F8FC201F00001F3FFCF80000F8FC3F1F7D
:100CA00000001F3FFE7EBEDEEEDEBE7EFEFCF800D4
:100CB0007E7E70777777707E7E3F1F000000000099
:100CC0000000000000000000000000000000000024
:100CD00001010202040408080404020201010000E8
:100CE00000000101020204040808040402020101D8
:100CF000000000000101030307070F0F07070303AC
:100D00000101000000000101030205060D0A0506AD
:100D100003020101000000010101010101010101C3
:100D2000020202020202020202030303030303039C
:100D30000304040404040404050505050506060669
:100D40000606070707070708080808090909090A26
:100D50000A0A0B0B0B0C0C0C0D0D0D0E0E0E0F0FCB
:100D60000F10101111111212131314141515161659
:100D70001717181819191A1A1B1B1C1D1D1E1E1FC8
:100D80002020212222232424252626272829292A17
:100D90002B2C2D2D2E2F303132323334353637383F
:100DA000393A3B3C3D3E3F4041424344454647483B
:100DB000494A4C4D4E4F50515354555658595A5B11
:100DC0005D5E5F616264656668696B6C6D6F7072B1
:100DD000737577787A7B7D7E8082838587888A8C1D
:100DE0008E8F91939596989A9C9EA0A2A3A5A7A951
:100DF000ABADAFB1B3B5B7BABCBEC0C2C4C6C9CB48
:100E0000CDCFD1D4D6D8DBDDDFE2E4E7E9EBEEF0FD
:100E1000F3F5F8FAFDFF11241FBECFEFDAE0DEBFD5
:100E2000CDBF04B603FE18C080911D0790911E0728
:100E3000A0911F07B09120078730904BA740B04B7F
:100E400059F410921D0710921E0710921F0710925E
:100E50002007E0E0F8E3099512E0A0E0B1E0EEE25F
:100E6000F1E602C005900D92A83DB107D9F727E041
:100E7000A8EDB2E001C01D92AD31B207E1F70E94CA
:100E800045070C9495300C940000A0E1B0E0EBE431
:100E9000F7E00C94C72F85B7806885BF85B7806859
:100EA00085BF84B7877F84BF0FB6F894A8958091DB
:100EB0006000886180936000109260000FBE90E037
:100EC00080E80FB6F89480936100909361000FBEA4
:100ED00084EA9AE19093D9028093D8020E94171570
:100EE0000E948A158091E20084608093E2007894E9
:100EF00080912A048823A1F01091E9001F7090913D
:100F0000EC00892F817090FD80E8182B1092E90089
:100F10008091E80083FD0E94C2251F701093E900B4
:100F200082E084BD93E095BD9AEF97BD80936E00FB
:100F30001092DA021092DB021092DC021092DD02B3
:100F40008091D80080618093D8002AE12A95F1F73A
:100F500000C08091D900182F117080FD04C00E943C
:100F6000171510922A041093540385988D988FE8D2
:100F700091E00197F1F700C000008FB185FB882751
:100F800080F98093550380930B0180915403811164
:100F90000E944D2E86E0E9E3F3E0DF011D928A9581
:100FA000E9F780910B0191E08927809303038091F9
:100FB0000B019093060380910B0180910B0181112D
:100FC00006C087EF80931D0186EF80931E0160E0CD
:100FD00080E00E94981961E080E00E949819EFE893
:100FE000F1E03197F1F700C0000010E080910603B6
:100FF000181790F460E0812F0E947C19082F61E09F
:10100000812F0E947C19E12FF0E0EC5FFC4F880FEC
:10101000082B00831F5FEACF80910B01811128C04C
:1010200085E0EEE6F1E0DE01199601900D928A95D9
:10103000E1F7FE013996A6E0B1E0CE010E962191CE
:101040002D93E817F907D9F786E0E3E7F1E0DE0131
:10105000119601900D928A95E1F7FE013196A0E07C
:10106000B1E0CE01079621912D938E179F07D9F7F6
:1010700080910B01811102C095E001C090E0909336
:10108000E90285E0891B8093E80200E011E096E028
:10109000E92E91E0F92ED8018D918D018F3F11F04D
:1010A0000E94711DE016F106B1F706E011E0F801AB
:1010B00081918F018F3F11F00E94711DF1E00B3083
:1010C0001F07A9F78AE0ECEEF2E0DF01282F1D925E
:1010D0002A95E9F7EEEDF2E0DF011D928A95E9F736
:1010E00080E090E00E941F30863E9E4F09F466C06B
:1010F00066EE7EEF80E090E00E94533060E082E098
:1011000090E00E94353081E090E090930803809356
:10111000070361E083E090E00E94353060E074E115
:1011200084E090E00E94533060E086E090E00E940E
:10113000353060E087E090E00E94353040E050E0DC
:10114000BA0188E090E00E94473060E084E290E0DD
:101150000E94353060E087E190E00E94353060E029
:101160008CE090E00E94353060E08DE090E00E94DD
:10117000353019821A821B821C821D821E821F82B8
:10118000188648E050E068E170E0CE0101960E94C8
:10119000253040E050E0BA0180E290E00E94473004
:1011A00040E050E0BA018FE090E00E94473040E01C
:1011B00050E0BA0183E190E00E94473082E090E085
:1011C0000E9417308093F60284E090E00E941F3066
:1011D0009093EB028093EA020E944D1FEFEFF6E737
:1011E00021E0E150F0402040E1F700C000000E9403
:1011F0004D1F80915503811102C0E5E001C0E0E080
:10120000F0E0E451FD4F808180FF08C06FEF7FEF79
:1012100080E090E00E9453300E941A1783E090E033
:101220000E94173090E00E9491240E94B02881E033
:101230008093340448E050E068E170E085E394E096
:101240000E94073010923404809135048C7FF9F4A9
:1012500085E0809335048091790190917A01A09185
:101260007B018093360490933704A09338048FE772
:10127000809339048FEF80933A0448E050E068E1AE
:1012800070E085E394E00E9425301092340483E0FE
:1012900080932C0380E280933D040E94DD2C6BE060
:1012A00070E08BE691E00E94521A882309F443C053
:1012B00080912C0365E070E081FD3AC086E691E004
:1012C0000E94521A8823B9F16DE070E084E591E044
:1012D0000E94521A882379F10E948F17DC01CB01FA
:1012E000805A9541AF4FBF4F80933303909334039F
:1012F000A0933503B0933603E0E4F4E080E092E09D
:10130000DF019C011D9221503040E1F7F093470628
:10131000E09346068FEF9FEF90933F0480933E0447
:1013200081E0809338038093370310922D0303C02C
:1013300081E691E0C5CF80915403811102C00E94E3
:10134000502E8CE091E0909359038093580308E16C
:10135000202E312C44244394512C80912A04853032
:1013600009F046C000E112E180912A04853009F0BD
:101370003BC080912A04843031F10E9485290E946B
:101380005F1A10925C0330E40FB6F894A89520928F
:1013900060000FBE3093600083B7817F846083BF9D
:1013A00083B7816083BF7894889583B78E7F83BF2E
:1013B0000FB6F894A89580916000886180936000D2
:1013C000109260000FBE80912904882309F4CCCFCD
:1013D0000E944D1FECEEF2E081918111B5C382E0D5
:1013E000E63FF807C9F7C0CF0E9496240E94341840
:1013F0000E944D1FB7EFEB2EB2E0FB2E1CEEC12E6C
:1014000012E0D12E21E033E0D601F70191918D91C8
:1014100089272E173F0719F08823C1F306C08111D1
:1014200004C00E94291FD12C38C08090540310E0C2
:1014300077247394D6019D906D01F701A080A924B3
:1014400011F100E0BB24B3948A2D8B21B1F08820E8
:10145000A1F009871A870E949B179C878B877D863E
:1014600091E0892D8B2109F490E09E8749855A856A
:101470006B857C858D850E948D0E0F5FBB0C0630C1
:1014800019F7D7019C921F5FBFEFEB1AFB0A1A30C6
:1014900089F60E94881DDD24D3948091540388230B
:1014A00089F080914303882369F00E949B17209163
:1014B000400330914103821B930B8F3F9F4710F4F1
:1014C0000E945A190E94852980915403882321F093
:1014D0000E94D919E82E01C0E12CF12C809106035D
:1014E000F81608F042C061E08F2D0E947C19182F79
:1014F00060E08F2D0E947C19E12FEE0F8E2B0F2DB7
:1015000010E0D801AC5FBC4FEC912E2F237030E07F
:10151000482F50E02417350731F1EE0FEE0FE82B7E
:10152000EC93809103038F0DEF70F0E0E458FE4FD1
:101530000F5F1C4FC080D8019C91C90ECC92B3E0C4
:10154000BC1514F460E004C0EDEFCE161CF461E0AD
:101550000E94B9198C2DCC0C990B64E070E00E94AC
:101560006530D8018C93F394B9CF809154038823CC
:1015700019F00E94D919E82AEE2021F00E94881D56
:10158000DD24D39480913803882309F4D3C180915A
:101590002E0390912F030E948017C29708F4C3C0B6
:1015A0000E949B1790932F0380932E0380E494E076
:1015B000909347068093460680915403882309F44C
:1015C000ACC060E870E086E791E00E94071A809165
:1015D0003D04B4E08B9FC00111248115E2E09E0719
:1015E00014F080E090E0805C9B4F909347068093DE
:1015F000460686EF91E00E9492258CE392E00E94DD
:1016000092252091090330910A038091070390915C
:101610000803822B932B292F33272115310519F02D
:10162000C90128E001C020E0AC01F4E056954795DF
:10163000FA95E1F74115510511F02C5FCA01AC0193
:1016400056954795569547954115510511F02E5FD2
:10165000CA0196958795892B09F02F5F223039F0C2
:10166000233041F0213049F48CE292E008C08CE153
:1016700092E005C08CE092E002C08CEF91E00E9405
:1016800092258CE392E00E94922510910B038091A9
:101690003F03182B012F08781474002349F085E6C6
:1016A00092E00E949225112361F080E692E00CC046
:1016B00082E692E00E949225112359F08CE592E097
:1016C00003C08EE592E007C00E9492251123A9F085
:1016D00005C08AE592E00E9492250FC087E592E05E
:1016E0000E949225011146C28EE492E00E9492254A
:1016F000112381F08AE492E043C284E592E00E94E3
:101700009225002389F381E592E00E9492258CE4E2
:1017100092E084C288E492E081C260E072E080EAF4
:1017200092E00E94071A80913E0490913F04892B19
:1017300031F480913703882309F4FCC0E4C0809120
:1017400038038823B1F380912D038111F2CF0E94D9
:10175000791A20913E0430913F042115310549F357
:1017600080E0082F10E07201082E02C0EE0CFF1C72
:101770000A94E2F7A70142235323452B11F48F5F0C
:10178000F0CF90912C03980165E0220F331F6A95EA
:10179000E1F790FF13C055E0369527955A95E1F78C
:1017A000220F220F220F2093180110921B01295F94
:1017B0002093190183E080931C0111C0220F232F75
:1017C000221F330B31958295880F80768093180104
:1017D00020931B01815E8093190120931C0124E654
:1017E00030E047E050E066E171E088E70E94122DAA
:1017F000892B09F09ECF80912C0380FF64C080E28A
:10180000ECE0F3E0DF011D928A95E9F7A80135E0ED
:10181000440F551F3A95E1F7E0E9F1E0F88BEF87C7
:101820000CE811E0AF85B8898D91B88BAF87F801CE
:1018300091918F01BA01690F711D605C7B4F90E03F
:10184000845F9C4FFC0127E0922E9F01281B390BDF
:10185000742C01C0770C2A95EAF75B01812CD50125
:10186000CD905D01C720292D28192770622E022EE8
:10187000000C330BBC2D01C0BB0F6A94EAF76B2E32
:101880003195219531092770332701C0C6942A95D7
:10189000EAF76C28C0806C286082839428E082126A
:1018A000DECF9A9431963FEF9312CFCF8F859889F0
:1018B0008459914009F0B6CF04E610E020E230E010
:1018C0004CE053E00CC0A80185E0440F551F8A95F9
:1018D000E1F7405C5B4F04E610E020E230E060E4BA
:1018E00088E70E94A92D892B09F023CFE094F0947A
:1018F00080913E0490913F04E822F922F0923F0447
:10190000E0923E0416CF0E948F170091330310918E
:1019100034032091350330913603DC01CB01801B69
:10192000910BA20BB30B8F3F9F4FAF4FBF4710F4EC
:101930000E945F1AD1100E94791A86E0EBE4F3E06E
:10194000DE01119601900D928A95E1F7D0904C033B
:1019500010914D0300914E03E0904F03F09050031F
:1019600010924D0310924E0310924F0310925003A9
:10197000111103C0002309F447C0809149039091DD
:101980004A030E9480179C0190914403992309F413
:101990007FC125313105C0F19F3F19F09F5F9093C2
:1019A0004403112361F00E941519111614F09FEFE2
:1019B00001C091E0899F802D112480934D03002365
:1019C00061F00E941519101614F491E001C09FEF08
:1019D000899F802D112480934E0380914D0388238D
:1019E00099F0C0904E03CC2079F00E9435198111F6
:1019F00001C081E080934D038C2D0E943519811127
:101A000001C081E080934E03E11003C0FF2009F480
:101A100047C080914703909148030E9480179C0122
:101A200090914503992309F438C121353105C0F15E
:101A30009F3F19F09F5F90934503EE2061F00E9455
:101A4000F3181E1414F09FEF01C091E0899F802DC0
:101A5000112480934F03FF2061F00E94F3181F149C
:101A600014F491E001C09FEF899F802D1124809391
:101A7000500380914F03882399F0C0905003CC20ED
:101A800079F00E943519811101C081E080934F03E4
:101A90008C2D0E943519811101C081E08093500383
:101AA00080914C03D8121AC080914D03882311F005
:101AB000181314C080914E03882311F008130EC030
:101AC00080915003882311F0F81208C090914F03C1
:101AD000992331F081E0E91204C002C081E001C025
:101AE00080E080FD15C080914D0381110FC0809171
:101AF0004E0381110BC080914F03811107C081E01B
:101B000090915003911103C080E001C081E080FDFD
:101B10000E94C918DA821B830C83ED82FE8286E064
:101B2000FE013196ABE4B3E001900D928A95E1F7A6
:101B30000E94341890913003891709F40ECC8093D9
:101B400030030E948F1709CC09BD19BD09B400FEEE
:101B5000FDCF8091D8008F7D8093D8008091E000E8
:101B600082608093E0008091E00081FDFCCF0E94C4
:101B70009624FACB81E592E00E9492258CE492E0D3
:101B80000E94922585E492E00E94922510910B0319
:101B900080913F03182B012F01711272002349F02D
:101BA0008BE892E00E949225112361F086E892E092
:101BB0000CC088E892E00E949225112359F082E837
:101BC00092E003C084E892E007C00E9492251123AE
:101BD000A9F005C080E892E00E9492250FC08DE731
:101BE00092E00E94922501111EC084E792E00E94BB
:101BF0009225112381F080E792E01BC08AE792E0F2
:101C00000E949225002389F387E792E00E949225A3
:101C100082E792E038C08EE692E035C00E949225BD
:101C200082E492E0B1CF87E792E00E94922582E7BA
:101C300092E00E9492258BE692E00E9492250E94FB
:101C4000341881FB002700F982FB112710F980FD71
:101C500003C08AE992E002C08DE992E00E949225D9
:101C6000011103C084E992E002C087E992E00E947A
:101C70009225111103C08EE892E002C081E992E042
:101C80000E94922550CD0E94922588E692E0D5CF01
:101C90002B30310508F082CEB7CE2B30310508F05D
:101CA000C9CEFECEA6E0B0E0E8E5FEE00C94D62F6B
:101CB00049835A8349815A81992361F0222351F043
:101CC000CA010E94EA21182F682F89819A810E94F7
:101CD000082404C0CA010E94D523182F69817A8183
:101CE000812F0E94E21D2696E3E00C94F22F0E94C1
:101CF00096242FEF84E39CE0215080409040E1F750
:101D000000C000009CE088E10FB6F894A89580938D
:101D100060000FBE90936000FFCFABE1B0E0E3E95D
:101D2000FEE00C94D52F4E8B5F8B688F798F8A8F56
:101D30009B8F192F911110924203DE011F9687E0AD
:101D4000FD0111928A95E9F786E0FE0176960190F1
:101D50000D928A95E1F70A8D002341F021E04F852D
:101D6000588969897A89C8010E94520E0B8B1C8B95
:101D700087E0FE013F96DE01189601900D928A954C
:101D8000E1F7CE0108960E944E2281112CC087E017
:101D9000FE013896DE01119601900D928A95E1F7C9
:101DA0006C85662301F12091DB0330E0C9010196C7
:101DB000877099274091140450E08417950761F1CA
:101DC0006D8397E0929FD001939FB00D1124A45290
:101DD000BC4FFE01319601900D929A95E1F78093E8
:101DE000DB030E94872117E0809114049091DB03AC
:101DF0008917F9F0189FC001112484529C4F0E944A
:101E00004E228823B1F08091140490E001968770EF
:101E1000992780931404E8CF0E9496241092DB0344
:101E200010921404E4EDF3E087E0DF011D928A953F
:101E3000E9F76B96E4E00C94F12FA0E0B0E0E3E268
:101E4000FFE00C94D02FFC018481882309F40FC596
:101E50007F0121E0408151816281738195810E94DF
:101E6000520EEC0183379C4779F4F7018581882372
:101E700009F4DAC180914303882319F00E945A19AA
:101E8000D3C10E946819D0C110910B0380913F0308
:101E9000182B80914303811108C0123209F090C0C1
:101EA0000E946819109253038BC00E949B17885799
:101EB0009C4E9093410380934003F70185818823D2
:101EC00009F47EC01D7909F076C0C034F2E5DF0761
:101ED000B8F4C11522E5D20708F072C0C11580E43C
:101EE000D80748F4C11590E2D90740F5C63ED105A0
:101EF00009F040C065C0C115E0E5DE07A0F13AC0B9
:101F0000C03EF2E5DF07A0F4C03C22E5D20708F0AE
:101F100057C0C03682E5D80768F1C03A92E5D907C4
:101F200008F44EC0C43BE2E5DE0709F449C022C014
:101F3000CE0187579C470297E8F442C0F70186819B
:101F4000807FA9F48D2F8F718231B1F028F4823017
:101F500091F581EE90E012C0843191F1863159F50E
:101F600086EE92E10BC0F7018681807FA9F1CE0158
:101F7000992704C0CE0102C085EE90E01092420382
:101F80008832910530F48E319105C0F4049798F0B1
:101F90000EC08D32910559F018F48A9779F00BC074
:101FA0008C34910559F08D32924041F004C082E0AA
:101FB0008093420303C00E945A1902C00E944B2121
:101FC000FE01E851FC47E730F10508F4E7C0F701EE
:101FD0008581882309F43AC110925303CE019057AA
:101FE000839708F00CC184E090E00E941F3090932A
:101FF000EB028093EA02FE01E150F047E232F10584
:1020000020F4EA5AFF4F0C9479308091EA02816003
:10201000ACC08091EB028860B4C08091EA0282601B
:10202000A4C08091EA0220C08091EA0288609DC02D
:102030008091EB021EC08091EB028260A2C0809171
:10204000EA02806192C08091EA0280628EC0809133
:10205000EA0280648AC00E9496248091EA02806825
:1020600084C08091EA02886084607FC08091EB0226
:102070008260816086C08091EA028E7F76C0809106
:10208000EB02877F7EC08091EA028D7F6EC08091D7
:10209000EA0220C08091EA02877F67C08091EB024C
:1020A0001EC08091EB028D7F6CC08091EA028F7E12
:1020B0005CC08091EA028F7D58C08091EA028F7BDC
:1020C00054C00E9496248091EA028F774EC080917E
:1020D000EA02877F8B7F49C08091EB028D7F8E7FE4
:1020E00050C08091EA0282FB222720F991E09227DA
:1020F00090FB82F990FB83F938C08091EB02982F16
:10210000909591708E7F892B90FB81F93AC08091D8
:10211000EA0286FB222720F991E0922790FB86F9BC
:1021200024C00E9496248091EA0287FB222720F98E
:1021300091E0922790FB87F918C061E001C060E050
:102140008EE090E00E9435301EC08091EA0284FB50
:10215000222720F991E0922790FB84F906C0809114
:10216000EA02982F909590FB80F98093EA020BC0C9
:102170008091EB0283FB222720F991E0922790FBCC
:1021800083F98093EB026091EA027091EB0284E0A4
:1021900090E00E9453300E94962446C0E858FF4FBA
:1021A0000C94793006E221EE41EE6AE17CE705C04D
:1021B00007E225EE45EE6BE17CE7C7010E9445187A
:1021C00033C006E221EE40EE68E17CE7F6CF07E29D
:1021D00025EE44EE69E17CE7F0CF06E221EE42EE27
:1021E0006CE17CE7EACF07E225EE46EE6DE17CE7A5
:1021F000E4CF08E221E045EE6EE17CE7DECFC631B8
:10220000FCE7DF0791F580913F038A7A91E009F4BA
:1022100090E0909331038111CAC269E28CEA93E0A5
:102220000E94D0170E944B2180911504877009F4F9
:102230001EC3F7018581882309F419C38091EB023D
:1022400082FF15C382E00E94532411C3C6312CE7DC
:10225000D20709F4F8C280913F038272FE01E05276
:10226000F847E531F10508F4A4C2F7018581882318
:10227000D9F1C330FCE7DF0721F140F4C1158CE749
:10228000D80789F0C130DC4711F12EC0CB35ECE71F
:10229000DE0739F1CC35FCE7DF07D9F0CA35DC477A
:1022A00019F581E01FC00E9496248FEF94E3ECE0C3
:1022B00081509040E040E1F700C000000E941A17F2
:1022C000B3CF6FEF7FEF80E090E00E9453300E9429
:1022D000770E8091EB0282FB882780F991E08927B5
:1022E00001C080E00E946A24F7018581C081D1810C
:1022F000882349F0CE010E94EA21182F682FCE01D1
:102300000E94082404C0CE010E94D523182FBE01CC
:10231000812F0E94E21D0E94FF1DD82FC92FC82EB9
:10232000F7011581068102950F7080911504877061
:1023300001F11123F1F0892F807F803469F080E270
:102340008D0F8830B0F0892F807E803229F4F1E043
:10235000FD1778F4002369F08091EB0282FF09C039
:1023600082E00E945324809115048770DD24D39469
:102370008111D12CBC2EB2948FE0B8228B2D90E02D
:102380008C30910508F0EBC1FC01E158FF4F0C9433
:1023900079308C2F807FCF70882311F0C295C07F59
:1023A0001123B9F0CC2309F4C8C180E28D0F883025
:1023B00010F0C11006C090913F03C92BC0933F039A
:1023C00005C090914203C92BC09342030E944B2148
:1023D000B4C18D2F0E94EF2BCC2309F4C0C1D05E75
:1023E000D83088F1CC2079F1C09590914203C9236F
:1023F000C09342032BC08C2F807FCF70803211F0AE
:10240000C295C07F8D2FCC2029F021E0C21609F49F
:102410004CC055C08091EB0282FD1BC0112369F0B6
:10242000CC2339F090913F03C92BC0933F030E9406
:102430004B2180E00E942B2C92C180E00E94EF2B68
:10244000CC2309F48CC18C2F0E94221F0E944B21A7
:1024500086C1112381F00023B1F1013009F07FC161
:1024600090910B038C2F8923C81709F478C1C92BCD
:10247000C0930B0374C1011172C18C2F0E94BD2443
:1024800080910B039C2F982329F09C2F90958923F2
:1024900080930B03809132039C2F982309F45FC132
:1024A000C0958C23809332035AC1112321F006304A
:1024B00008F055C108C0053008F051C10AC0112309
:1024C00031F001113AC18C2F0E94C42448C101117E
:1024D00038C18C2F0E94BD2442C18C2F86958695D1
:1024E000837019F0813061F03AC1112321F08D2FF2
:1024F0009C2F937002C080E090E00E940F1835C1BD
:10250000112321F08D2F9C2F937002C080E090E06A
:102510000E94EA172AC1612F8D2F0E94032B25C12B
:102520008C2F837009F041C011111DC12D2F2295F0
:1025300026952770220F220F8D2F8F7090E0022E8C
:1025400002C0880F991F0A94E2F7D4FF0BC04FE036
:1025500050E002C0440F551F2A95E2F79A012095DA
:10256000309502C020E030E0C695C695C370C230F9
:1025700099F068F44091070350910803C13029F0A5
:10258000822B932B8423952304C0842B952B822BA1
:10259000932B0E949124E7C0822B932B2091070359
:1025A0003091080382279327F4CF112319F08C2F41
:1025B000817001C08695882309F4D5C02D2F2295FE
:1025C00026952770220F220F8D2F8F7090E0022EFC
:1025D00002C0880F991F0A94E2F7D4FF0BC04FE0A6
:1025E00050E002C0440F551F2A95E2F79A0120954A
:1025F000309502C020E030E0C695C695C370C23069
:1026000079F0B8F44091090350910A03C13029F0E0
:10261000822B932B842395230EC0842B952B09C0EA
:10262000822B932B2091090330910A038227932751
:1026300002C0822B932B0E943C2495C0CF701123A3
:1026400039F08C2F0E9481248D2F0E94C4248BC0CE
:102650008D2F0E94BD248C2F0E94412484C08D2F79
:10266000F2EFCF1689F1FC1538F020EFC21659F0C1
:1026700091EFC91621F15DC0E3EFCE1661F1F4EFE1
:10268000CF16C9F056C0112391F0053008F067C08D
:10269000CF7181E090E002C0880F991FCA95E2F7E0
:1026A0002091090330910A038227932721C0063025
:1026B00008F055C0EDCF8091EB0282FD1CC01123C4
:1026C00029F08C2F8F7129C01123D9F38C2F8F7192
:1026D0000E94412444C0112349F0CF7181E090E071
:1026E00002C0880F991FCA95E2F702C080E090E00F
:1026F0000E943C2434C0112399F0CF718C2F0E948A
:1027000081248091EB0282FF07C028E0C29FC001B4
:1027100011248360809315048C2F0E9481241FC094
:1027200081E00E9453240230D0F082E00E945324C2
:1027300016C0112321F0002321F28D2F7BCE002320
:1027400029F2893349F48FEF97EEE3E0815090400E
:10275000E040E1F700C000008D2F0E94EF2B88EFD2
:102760008B0D843010F40E943418DD20A9F0809184
:10277000150480FD11C0F701158286958695869512
:102780000E948124C7010E941D0F80911504869527
:10279000869586950E94412420E0F7014081518171
:1027A00062817381848195810E94520E60C065E3CD
:1027B00035CDE557FF4F0C9479309091350481E089
:1027C00089278093350410926801809134048160D8
:1027D0008093340429CD40E759E26AE779E22CC0BE
:1027E0004AE759E260E779E227C04CE559E266E63C
:1027F00079E222C046E659E26CE579E21DC042E486
:1028000059E26FE479E218C04FE459E262E479E2F8
:1028100013C048E259E265E379E20EC045E359E2AC
:1028200068E279E209C043EB58E261EC78E204C067
:1028300041EC58E263EB78E20E947E29F5CC81E01E
:102840000E94A025F1CC8091310381110EC089E254
:10285000ECEAF3E022EB33E09281891301C01282AB
:1028600031962E173F07C1F7DDCC85E3F1CFCDB709
:10287000DEB7E9E00C94EC2F2091E4003091E50004
:1028800095E64091EC00842F817040FF23C0809139
:10289000E80080FD1DC080912A04882399F08530CE
:1028A00099F08091EB0085FD11C04091E4005091BA
:1028B000E5002417350729F3915011F09A01E1CF73
:1028C00084E0089582E0089583E0089581E008950A
:1028D00080E008954091E80042FFDDCF089508951B
:1028E00080911F0408950F931F93CF93DF938B0163
:1028F000EA0190912A04943079F58F708093E90071
:102900008FEF9091E800815095FD06C095ED9A9566
:10291000F1F700008111F5CF8091E80085FF1CC020
:102920000E943C14882361F08091E8008E778093A8
:10293000E80012C0F80181918F018093F100219786
:10294000209791F38091E80085FDF4CF8091E80015
:102950008E778093E800E4CFDF91CF911F910F91A4
:10296000089543E050E0BC0182E00E947314089592
:1029700046E050E0BC0182E00E9473140895CF93BA
:10298000DF93EC0148E050E0BC0181E00E94731449
:1029900088E0FE01A0E2B4E001900D928A95E1F793
:1029A000DF91CF9108951F920F920FB60F921124CD
:1029B0002F933F934F935F936F937F938F939F9347
:1029C000AF93BF93CF93DF93EF93FF93C091E90051
:1029D000CF708091EC00D82FD17080FDD0E810929C
:1029E000E9008091F000877F8093F00078940E9446
:1029F000C2251092E9008091F00088608093F00079
:102A0000CD2BCF70C093E900FF91EF91DF91CF9173
:102A1000BF91AF919F918F917F916F915F914F91F6
:102A20003F912F910F900FBE0F901F901895E8EDDA
:102A3000F0E080818E7F80831092E2001092DA00B5
:102A40001092E100A0EEB0E08C9181608C938081C7
:102A50008F77808319BCA7EDB0E08C918E7F8C932B
:102A600080818F7E808310926103089580912C0471
:102A700087FF11C08091E80082FD05C080912A0483
:102A80008111F8CF11C08091E8008B770BC0809145
:102A90002A04882349F08091E80080FFF8CF8091D4
:102AA000E8008E778093E8000895982F973068F5B6
:102AB0009093E900981739F07091EC002091ED00A7
:102AC0005091F00003C0242F762F50E021FD02C06A
:102AD0009F5FECCF3091EB003E7F3093EB00309165
:102AE000ED003D7F3093ED003091EB00316030938D
:102AF000EB007093EC002093ED005093F0002091D8
:102B0000EE0027FDE5CF80E008958F708093E90007
:102B100081E00895A0E0B0E0E0E9F5E10C94D12F68
:102B2000C8EDD0E088818F7E8883E7EDF0E080817A
:102B30008160808384E082BF81E08093610388812B
:102B40008E7F888302EE10E0F80110821092DA0086
:102B500081EEC82ED12CF601108288818F77888370
:102B600088818068888388818F7D888319BC1092D2
:102B70002A0410922B04109229041092280490EE3B
:102B8000E92EF12CF70180818B7F80838881816021
:102B9000888342E060E080E00E945515F601808164
:102BA0008E7F8083F801808181608083808188604E
:102BB0008083F70180818E7F808388818061888314
:102BC000CDB7DEB7E8E00C94ED2F1F920F920FB651
:102BD0000F9211242F933F934F935F936F937F93A3
:102BE0008F939F93AF93BF93EF93FF938091E100F7
:102BF00082FF09C08091E20082FF05C08091E10060
:102C00008B7F8093E1008091DA0080FF2AC0809161
:102C1000D80080FF26C08091DA008E7F8093DA0092
:102C20008091D90080FF18C080E189BD82E189BD13
:102C300009B400FEFDCF81E080932A0480916103F6
:102C400081110FC00E9417150E948A158091E20021
:102C500084608093E20005C019BC10922A0410928F
:102C600061038091E10080FF17C08091E20080FF46
:102C700013C08091E2008E7F8093E2008091E20099
:102C800080618093E2008091D80080628093D800B8
:102C900019BC85E080932A048091E10084FF30C054
:102CA0008091E20084FF2CC080E189BD82E189BD72
:102CB00009B400FEFDCF8091D8008F7D8093D800AD
:102CC0008091E1008F7E8093E1008091E2008F7E11
:102CD0008093E2008091E20081608093E200809125
:102CE0002B04882311F084E007C08091E30087FD66
:102CF00002C081E001C083E080932A0480912A040D
:102D00008091E10083FF27C08091E20083FF23C010
:102D10008091E100877F8093E10082E080932A0424
:102D200010922B048091E1008E7F8093E1008091CE
:102D3000E2008E7F8093E2008091E20080618093C8
:102D4000E20042E060E080E00E9455158091F000D2
:102D500088608093F000FF91EF91BF91AF919F91B8
:102D60008F917F916F915F914F913F912F910F9034
:102D70000FBE0F901F9018952091320430913304AC
:102D80002617370748F06115710539F42091E800DE
:102D90002E772093E80001C0B901FC0120E0611505
:102DA000710579F180912A048823F1F18530F1F1E0
:102DB0008091E80083FD3CC08091E80082FD2EC038
:102DC0008091E80080FFEBCF2091F3008091F2002A
:102DD00090E0922B6115710551F08830910538F41F
:102DE00021912093F100615071090196F3CF21E008
:102DF000089709F020E08091E8008E778093E80042
:102E0000CECF2111CFCF0AC080912A04882361F050
:102E1000853061F08091E80083FD0AC08091E80070
:102E200082FFF2CF80E0089582E0089583E0089564
:102E300081E0089581E08093E00080E28093D800F3
:102E40001092C9008FE19EE40197F1F700C00000E5
:102E500087E090EBDC0180931D0790931E07A09301
:102E60001F07B09320079CE088E10FB6F894A8955F
:102E7000809360000FBE90936000FFCF78941F9204
:102E80000F920FB60F9211248F939F93AF93BF931E
:102E900080915D0390915E03A0915F03B091600308
:102EA0000196A11DB11D80935D0390935E03A093D5
:102EB0005F03B0936003BF91AF919F918F910F908B
:102EC0000FBE0F901F901895CF92DF92EF92FF9256
:102ED0002FB7F894C0905D03D0905E03E0905F033D
:102EE000F09060032FBFA7019601261B370B480BFC
:102EF000590BCA01B901FF90EF90DF90CF90089570
:102F00009C014FB7F89480915D0390915E03A0916E
:102F10005F03B09160034FBF821B930B08952FB7DF
:102F2000F89460915D0370915E0380915F039091CE
:102F300060032FBF08952FB7F89480915D0390919F
:102F40005E03A0915F03B09160032FBF08951F92AD
:102F50000F920FB60F9211248F939F93AF93BF934D
:102F600080915C03811113C080915D0390915E0399
:102F7000A0915F03B09160034196A11DB11D8093A4
:102F80005D0390935E03A0935F03B0936003BF91D2
:102F9000AF919F918F910F900FBE0F901F9018953A
:102FA0009C01FC0132969FEF80E04191461789F029
:102FB0009F3F19F4411101C0982F8F5F8630A9F708
:102FC0009F3F39F0F901E90FF11D97FDFA956283F2
:102FD00008950895A3E0B0E0E0EFF7E10C94D72F57
:102FE00020915A0330915B0328173907A1F0909381
:102FF0005B0380935A03E0915803F0915903309793
:1030000051F024E029839B838A830084F185E02D9D
:10301000CE01019609952396E2E00C94F32FA3E0EC
:10302000B0E0E5E1F8E10C94D72F20915603309100
:10303000570328173907A1F090935703809356033D
:10304000E0915803F0915903309751F023E0298320
:103050009B838A830084F185E02DCE01019609953A
:103060002396E2E00C94F32F80915403882359F0C7
:10307000E0915803F0915903309729F00190F081C5
:10308000E02D0995089580E008950F931F93CF9345
:10309000DF93C42FD22FFC0185818823B1F04093A8
:1030A00053030E949B17909352038093510380E235
:1030B0008C0F883008F068C0C77081E001C0880FAD
:1030C000CA95EAF70E94C4245FC080915303481355
:1030D0003DC080915103909152030E948017883C1B
:1030E0009105A0F510E21D0FCD17E9F080E28C0FDD
:1030F000883040F4C77081E001C0880FCA95EAF7B4
:103100000E94BD24183078F581E09D2F977001C092
:10311000880F9A95EAF70E94C424093351F560E5B7
:1031200070E089E329C0093319F460E570E002C05A
:1031300060E070E0802F0E94CE24183028F5D77010
:1031400081E001C0880FDA95EAF70AC080E28C0FAF
:103150008830D0F4C77081E001C0880FCA95EAF7C3
:103160000E94BD2411C0093351F460E570E089E389
:1031700009C060E070E0802F0E94CE24E0CF60E0C4
:1031800070E0802F0E94CE24DF91CF911F910F918C
:1031900008950E949B1720914D03211104C0209196
:1031A0004E03222321F090934A03809349032091F8
:1031B0004F03211104C020915003222321F090934A
:1031C000480380934703E0915803F09159033097E7
:1031D00049F082E080934B030680F781E02D8BE479
:1031E00093E0099508958091460380FD16C081FD06
:1031F00016C082FD18C080914503882391F0883263
:1032000090F428E0829FC001112468E270E00E94DF
:103210006530862F672B29F007C082E0089584E08F
:10322000089581E0089588E008958091460380FD27
:1032300014C081FD14C082FD16C080914403882310
:1032400081F08E3180F420E5829FC00111246EE16F
:1032500070E00E946530862F089584E1089588E229
:10326000089588E0089580E50895282F35EB23031D
:10327000C001112497FF03C08058910902C08058F3
:103280009F4F892F0895FC01680F791F8FEF91E3FD
:10329000E617F70771F02191822728E030E087FFD9
:1032A00003C0880F892701C0880F21503109B9F761
:1032B000EFCF089580914303882349F08091420322
:1032C0008D7D809342030E944B2110924303089509
:1032D0008091430381110FC010923F030E941C1F75
:1032E0000E949B1788579C4E909341038093400304
:1032F00081E080934303089590E0FC01662319F078
:10330000E25EFE4F02C0E35EFE4F20812F3F71F070
:10331000E22FE295EF70F0E080A190E02F7002C004
:10332000959587952A95E2F78170089580E0089534
:1033300090E0FC01662319F0E25EFE4F02C0E35EFE
:10334000FE4F80818F3FA1F0E82FE295EF70F0E013
:1033500031A1282F2F7081E090E001C0880F2A95BD
:10336000EAF7982F9095932391A392A1892B82A39A
:10337000089590913903E92FF0E0AF014F5F5F4F5F
:103380004370552720913A0330E04217530779F0F4
:10339000E55CFC4F8F7720812078822B60FB87F9DA
:1033A00080839F5F93709093390381E0089580E05C
:1033B000089580E090913A0320913903921731F1FA
:1033C000292F30E0F901E75CFC4F8281F901E55CCF
:1033D000FC4F20812F779F5F937090933A03807802
:1033E000211107C060E070E011F089EA0BC08AEAA1
:1033F00009C0213049F460E070E0882311F08EE4C8
:1034000001C08BE40E94CE2481E0D4CF0895EF92D6
:10341000FF920F931F93CF93DF9320914606309135
:10342000470620543440A901460F571F41305240EF
:1034300020F060E072E0621B730BC0913E04D091FB
:103440003F04D901A05CBB4FA901620F731F01E0CB
:1034500010E046175707E8F4FA01E21BF30BE80FF8
:10346000F91FE491FC91EF1781F0EC93FA01689455
:1034700014F8F695E7951694E1F7780102C0EE0C82
:10348000FF1CEA95E2F7CE29DF294F5F5F4F1196C7
:10349000E0CFD0933F04C0933E04CDB7DEB7E6E063
:1034A0000C94EF2FAB0124E630E0BC0188E70E94CA
:1034B0005D2D21E0892B09F020E0822F0895809175
:1034C000380390913703882389F0992369F062E0EB
:1034D00070E082EA94E00E94521A811103C0809148
:1034E00037030895109237039091370381E08927BD
:1034F0000895809138038823F9F00E948F17DC012A
:10350000CB01805A9541AF4FBF4F809333039093C7
:103510003403A0933503B0933603809137038111B0
:103520000BC062E070E080EA94E00E94521A8823A7
:1035300019F081E080933703809137030895FB01F0
:10354000808180933A03089580E008959091EA0283
:1035500092FF10C041E0282F2471243009F040E090
:1035600031E0282F2871283009F030E0431711F09E
:103570002CE0822793FF10C041E0282F24712431D2
:1035800009F040E031E0282F2871283109F030E0BF
:10359000431711F02CE082273091EB0230FF10C06E
:1035A00051E0282F2171213009F050E041E0282F0F
:1035B0002871283009F040E0541711F029E08227E3
:1035C00031FF10C041E0282F2171213109F040E086
:1035D00031E0282F2871283109F030E0431711F02D
:1035E00029E0822794FD877E08958238910569F14C
:1035F000B0F48133910509F475C048F4893291051E
:1036000009F467C08A32910509F471C008958533C1
:10361000910509F459C089339105B9F00895833EA5
:10362000910589F138F4803E9105D1F0823E9105F3
:1036300029F10895863E9105C9F1873E9105D9F19A
:10364000843E910509F06CC027C02091EA0220FD5C
:1036500057C021FD55C02091EB0223FD5BC00895AA
:103660008091EA0280FD48C08091EB0280FF48C053
:103670008091EA0284FD46C083EE51C08091EA0247
:1036800082FF3CC0F5CF8091EA0282FD37C0809175
:10369000EB0280FD35C0ECCF8091EB0281FF36C09C
:1036A0008091EA0284FD2EC087EE39C08091EA0243
:1036B00083FF2AC0F5CF8091EA0283FD25C0809167
:1036C000EB0281FD23C0ECCF8091EA0285FD22C090
:1036D0001FC08091EA0285FD1BC08091EB0283FF31
:1036E00019C00AC08091EA0286FD16C017C08091F9
:1036F000EA0286FD13C010C089E311C082EE0FC03C
:1037000080EE0DC080E00BC086EE09C084EE07C0DD
:1037100085E305C089E203C08AE201C081E390E04D
:103720000895A0E0B0E0E7E9FBE10C94CF2F7C0125
:103730005B016A018091AB038A3018F001E010E070
:1037400002C00AE010E0C1E0D0E0B501C701F60117
:103750000995811115C021960C171D0794F0CC9F77
:103760009001CD9F300D300D112480E090E045E3B5
:103770004A95F1F70000019682179307C1F7E5CF4C
:1037800081E0CDB7DEB7EAE00C94EB2FA0E0B0E02B
:10379000ECECFBE10C94D22F7901C82F880FDD0BE4
:1037A00041155105A9F0FE0193E0EE0FFF1F9A9518
:1037B000E1F7E15EFE4F8181928182599C4F208129
:1037C00030E04217530708F49A01A9010E948C3097
:1037D000CE010E94382FD82E8823D1F00115110573
:1037E000B9F083E0CC0FDD1F8A95E1F7FE01E15EC1
:1037F000FE4F438150E00417150708F4A801C15E8D
:10380000DE4F6C817D8162597C4FC7010E948C30F4
:103810008D2DCDB7DEB7E7E00C94EE2FA0E0B0E041
:10382000E4E1FCE10C94CF2FC82F7B01D42F690178
:103830005801FB0160817181828193810E9464172C
:10384000643671058105910510F4DD23A1F000E0D7
:1038500010E020E030E0A501B6018C2F0E94C61BCD
:10386000C82F882349F00E948F17F7016083718366
:103870008283938301C0C1E08C2FCDB7DEB7EAE02D
:103880000C94EB2FA1E0B0E0E8E4FCE10C94D52F20
:1038900080913703898320918D0330E090E041E0EF
:1038A0002817390709F440E001E010E09E012F5F7E
:1038B0003F4F67EA73E088E00E940E1C2196E4E027
:1038C0000C94F12FA9E0B0E0E8E6FCE10C94D52FD0
:1038D00088E0E5E3F4E0DE01119601900D928A950F
:1038E000E1F7198649E050E064E873E0CE01019603
:1038F0000E947F3041E0892B09F440E009E010E0AC
:103900009E012F5F3F4F63EA73E087E00E940E1C29
:103910002996E4E00C94F12F0F931F93CF93DF933C
:10392000EC0145E050E064E773E00E947F3041E045
:10393000892B09F440E005E010E09E0167E973E09F
:1039400082E00E940E1CDF91CF911F910F9108958C
:10395000A1E0B0E0EEEAFCE10C94CC2F762E4A0117
:103960005901680101E010E09E012F5F3F4F40E0E8
:1039700050E060E070E00E94C61B182F882379F1A8
:10398000F40160817181828193810E9464176436A1
:1039900071058105910538F4B701C6010E944319EC
:1039A00099818917E1F08701950140E050E060E0DE
:1039B00070E0872D0E94C61B182FB701C6010E9418
:1039C000431991E02981281390E0192369F00E949E
:1039D0008F17F401608371838283938305C0A701ED
:1039E000B601C5010E948C30812F2196EDE00C9428
:1039F000E82FA6E0B0E0EFEFFCE10C94D32F86E0D7
:103A0000E82EF12C0AE713E09E012F5F3F4F4BE9B0
:103A100053E064E083E00E94A81CF82E882381F123
:103A200090917B0380917A039817B9F0292F30E0A9
:103A3000F901E259FC4F6685F901E059FC4F848594
:103A40008F779F5F937090937B036078682B661FDE
:103A50006627661F0E94B919E3CF00E010E020E05E
:103A600030E041E050E06BE773E085E00E94C61B68
:103A700066E070E08AE793E00E944319809379033F
:103A80008F2D2696E6E00C94EF2FA5E0B0E0EBE456
:103A9000FDE10C94D12F6B0185E0E82EF12C0FE6AF
:103AA00013E09E012F5F3F4F43E953E061E080E068
:103AB0000E94A81C882349F095E0FE013196AEE8EB
:103AC000B3E001900D929A95E1F795E0EEE8F3E00E
:103AD000D60101900D929A95E1F72596E8E00C94B5
:103AE000ED2FF894E82FE295EF70F0E031A1282F48
:103AF0002F7081E090E001C0880F2A95EAF7982F97
:103B00009095932391A392A1892B82A378940895F1
:103B10000F931F9380915403882319F00E948F17ED
:103B20000EC00E948F170091DA021091DB022091E3
:103B3000DC023091DD02600F711F821F931F1F9105
:103B40000F910895A4E0B0E0E8EAFDE10C94D52FD0
:103B500060919F037091A0038091A1039091A203B3
:103B60000E946417643671058105910528F10E9451
:103B7000881DDC01CB010296A11DB11D89839A83AA
:103B8000AB83BC8300E010E020E030E044E050E094
:103B9000BE016F5F7F4F86E00E94C61B182F8823EF
:103BA00061F00E948F1760939F037093A00380932E
:103BB000A1039093A20301C011E0812F2496E4E0B9
:103BC0000C94F12F7A30B0F46630A0F48430A0F475
:103BD0009CE3899FF001112486E0789FE00DF11DA0
:103BE0001124E60FF11DEE0FFF1FEC55FB4F8591E1
:103BF0009491089580E001C081E090E008951F93C2
:103C0000CF93DF930E94F51AEC01C11580E5D80728
:103C1000E8F5C11590E4D90708F0A8C0C03ED10569
:103C200030F5CD3CD10508F094C0C83AD10578F400
:103C3000C53AD10508F083C0C130D10509F47CC074
:103C400008F4F2C0C430D10508F0F1C0EDC0C33CA7
:103C5000D10508F0E9C0C85AD0E0CC0FDD1FC95625
:103C6000DE4F0990D881C02DCE019464E1C0C1150A
:103C700080E2D80708F0CBC0C11591E0D90708F061
:103C80006BC0C83ED10508F4D2C0CEC0C03682E5B4
:103C9000D80728F5C03492E5D90708F079C0C032BA
:103CA00082E5D80708F06CC0C11592E5D90708F481
:103CB00081C04C2F4695469580E2489FA001112473
:103CC000C37021E030E0C90102C0880F991FCA9576
:103CD000E2F7EA01C82BD92BCE019D68A9C0C03AF2
:103CE00082E5D807B8F48C2F8F71C03892E5D907D8
:103CF00008F07BC08695869590E2899F90011124FB
:103D0000C37081E090E002C0880F991FCA95E2F766
:103D10009A6868C0C03C82E5D80708F46DC0C03E10
:103D200092E5D90708F080C0CF71DD27DC2FCC27C2
:103D3000CE01806F906A7CC081E090E079C0C55A66
:103D4000D0E0CC56DE4F8881C82FD0E0CE01906401
:103D50006FC0CE0190656CC08D2F0E94A61A182FDF
:103D6000CE0199270E94F51A1F715CC0CE019927D8
:103D70000E94F51ACC27DF70D06A8C2B9D2B58C07F
:103D8000CF71D0E0DC2FCC27CE01816F906A50C07C
:103D90008C2F8F718695869590E2899F90011124D2
:103DA000C37081E090E002C0880F991FCA95E2F7C6
:103DB0009C6818C08C2F8F710E94A61A95E0D6952A
:103DC000C7959A95E1F7CF70D0E0DC2FCC27282F4C
:103DD00030E084FF05C084E0220F331F8A95E1F7AD
:103DE000D069CE01822B932B23C090E0D82FCC2713
:103DF000CE01846F906A1CC08C2F8F710E94A61A0E
:103E00008F7190E0D82FCC27CE01906211C08D2FFA
:103E10008F710E94A61A182FCE0199270E94F51AB9
:103E20001F719062912B04C080E090E001C0CE0130
:103E3000DF91CF911F91089580910B038111109212
:103E40000B030895809590913F03892380933F034E
:103E50000895A6E0B0E0EFE2FFE10C94D52F0E94B8
:103E60009B178C01809162039091630308171907D7
:103E700081F019821A820E949B17682F49815A810A
:103E8000792F80E090E00E948D0E109363030093E1
:103E900062032696E4E00C94F12F4F925F927F929A
:103EA0008F929F92AF92BF92CF92DF92EF92FF924A
:103EB0000F931F93CF93DF93CDB7DEB72F970FB636
:103EC000F894DEBF0FBECDBFAE014F5F5F4F7A01EA
:103ED0008AE0DA011D928A95E9F700E011E096E0A8
:103EE000C92E91E0D92E77247394AA24A394B12CDF
:103EF0004E01B6E08B0E911CF80180818F3F09F4D2
:103F000047C0F894E82FE295EF70F0E021A18F70A0
:103F1000A50102C0440F551F8A95E2F7CA01922FEE
:103F2000982B91A392A18095892382A3789400C0B5
:103F300086E0482E81E0582EF701472D4095D201AA
:103F40008D912D018F3FA1F0282F22952F7030E009
:103F5000D90190962C9130E08F70B90102C075950F
:103F600067958A95E2F760FD03C08081872902C0CA
:103F700080818423808331968E169F0601F7D801B5
:103F80008C918F3F11F00E94711DB0EABA95F1F744
:103F9000770C0F5F1F4FC016D10609F0ADCF4AE076
:103FA00050E0B7018EED92E00E947F30892B99F0AE
:103FB0008AE0F701AEEDB2E001900D928A95E1F74B
:103FC00081E0809366030E949B1790936503809322
:103FD0006403D12C27C0809166038823D1F300911C
:103FE000E90280916403909165030E948017059710
:103FF00080F310E004511D4F45E050E06EED72E09B
:10400000C8010E947F30892B09F423C185E0EEEDC1
:10401000F2E0D80101900D928A95E1F7DD24D39466
:104020001092660380915403E091E902882309F419
:1040300078C07E01FBE0EF0EF11C85E0D7011D92F8
:104040008A95E9F70E2F10E004511D4F8091AB03C4
:104050008A3048F445E45DE1B701C8010E94911B34
:10406000882399F10AC080916703909168030E94A8
:104070008017843F914070F73AC04CE85CE1B7018B
:10408000C8010E94911B882301F149EF5CE1B7014F
:10409000C8010E94911B8823C1F042EA5DE1B7018B
:1040A000C8010E94911B882381F042E65CE1B701C0
:1040B000C8010E94911B882341F042E45CE1B701F2
:1040C000C8010E94911B8111B1C08091AB038F3F49
:1040D00019F08F5F8093AB038091AB038A3008F4B3
:1040E000A7C00E949B1790936803809367038091F9
:1040F0006D03882309F482C085E0F70111928A9547
:10410000E9F710926D03A091E802B0E0A451BD4F11
:1041100085E0FE013B9601900D928A95E1F781E0E2
:104120006EC00091E80210E004511D4FF0E0E45130
:10413000FD4F85E0AFE6B3E001900D928A95E1F77F
:1041400065E070E08FE693E00E94431980936E0370
:1041500085E0E4E7F3E0D80101900D928A95E1F75C
:1041600086E0E9E3F3E0AAE7B3E001900D928A95D7
:10417000E1F766E070E08AE793E00E9443198093DC
:1041800079038090800390908103A0908203B09087
:1041900083038091690390916A03A0916B03B091AE
:1041A0006C0388169906AA06BB06B1F080926903D3
:1041B00090926A03A0926B03B0926C030E948F17D7
:1041C000861A970AA80AB90A8092DA029092DB024C
:1041D000A092DC02B092DD0288E0E4E8F3E0A5E31F
:1041E000B4E001900D928A95E1F780918D038823C8
:1041F00019F00E94791A02C00E945F1A80E08D298E
:104200002F960FB6F894DEBF0FBECDBFDF91CF91D2
:104210001F910F91FF90EF90DF90CF90BF90AF90E4
:104220009F908F907F905F904F9008951092AB0376
:104230008091E80290E045E050E0B70184519D4F45
:104240000E947F3021E020936D03892B09F05BCF22
:10425000D5CFD12CE5CE209114049091DB0357E00B
:104260002917A9F030E0529FF001539FF00D11245F
:10427000E452FC4F7181761306C07081781303C03D
:104280007581741306C02F5F3F4F2770E9CF80E020
:10429000089581E00895CF93C0913F038091420338
:1042A000C82B80910B03882379F0C82BEEEAF3E04A
:1042B00097E080E0915029F021912223D9F38F5F7C
:1042C000F9CF81110E941C1FC093AC0348E050E05D
:1042D00066E174E08CEA93E00E947F30892BA9F0BC
:1042E00088E0ECEAF3E0A6E1B4E001900D928A9553
:1042F000E1F7E0915803F0915903309731F00280D3
:10430000F381E02D8CEA93E00995CF910895809197
:1043100014049091DB03891719F08F5F8770FBCF2E
:104320000895CF93DF938091DA0382958F7009F01F
:104330004EC08091D903882309F449C080911404A8
:104340004091DB035091D5036091D403C091D60313
:10435000D091D70377E08417D1F190E0789FF001F6
:10436000799FF00D1124DF01A452BC4F14962C91BB
:104370001497222349F111962C911197251324C0EB
:104380002C91261321C015962C91159721111CC034
:1043900012962D913C9113972C1B3D0B283C310517
:1043A00098F48091DA038F7080618093DA03EE5184
:1043B000FC4F80818F708061808384ED93E00E9448
:1043C0001D0F0E94872103C001968770C4CFDF9123
:1043D000CF910895A0E0B0E0E0EFF1E20C94D02F8F
:1043E0007C010091090310910A03809107039091C9
:1043F0000803082B192BCFE0D0E0CC24C394D12C98
:10440000C6010C2E02C0880F991F0A94E2F7802380
:104410009123892B21F4219798F7B12C09C0BC2E48
:10442000B7018C2F0E94E21D0E94FF1D019799F396
:104430008B2DCDB7DEB7E9E00C94EC2FCF93DF9353
:10444000EC010E94EA21BE010E94E21D0E94FF1DB4
:10445000DF91CF910895FC0124812223D9F080813E
:1044600091810E941E2292959F70963079F010F4EF
:10447000925001C09A50923068F4803F69F018F46D
:10448000883E40F409C0843F29F406C0883E20F0ED
:10449000813F11F080E0089581E00895A4E1B0E04B
:1044A000E4E5F2E20C94CD2F8C0186E0F801DE0108
:1044B0001F9601900D928A95E1F7F8018481E580BD
:1044C00094ED892E93E0992E9091D803911120C0FC
:1044D000882309F463C1EE2009F442C0C8010E9498
:1044E0002B22F82E8823E1F187E0F801D401019016
:1044F0000D928A95E1F78091D803813031F4809153
:10450000D4039091D5030E941E220E94912148C19C
:10451000F801D080C180A280B380F090D9032091AF
:10452000D6033091D703FF2009F4E7C0A501421B51
:10453000530B483C510508F09DC0882309F430C155
:104540008091DA03282F207F9091D503222361F0F8
:104550009C1509F460C0C8010E942B22811163C020
:10456000C8010E941D0F1AC19C1113C09091D40361
:104570009D110FC0E1100DC08F7080618093DA0330
:1045800084ED93E00E941D0F8091DA03F801868389
:1045900003C1E1103AC040E06C2D8D2D0E942B210B
:1045A00040E06C2D8D2D0E942B21E82E8111F4C04E
:1045B000DF86C88A8F8598890E941E22292F22951E
:1045C0002F70243020F49F70223028F009C02A5028
:1045D000223080F014C0992349F0811107C013C024
:1045E000992321F0F8019681907F69F0805E8830F0
:1045F00030F409C0803F38F0815F833020F0C8017B
:104600000E941D0FEF2CFE2CCBC08091DA0381603D
:104610008093DA03C1C09091D4039D119CCFE11027
:104620009ACFF80198C0EE2009F49ACF2091DA03CE
:10463000822F82958F7090E002978CF08091D40346
:104640009091D50399878887BB86AA868091D803E5
:104650008C871D862E87CE0108960E941D0F87E04D
:10466000F801A4EDB3E001900D928A95E1F70E9464
:10467000912194C09091DA03292F207F51F484ED89
:1046800093E00E941D0F87E0F40111928A95E9F7EB
:1046900083C0882309F484C08091D5038C110CC099
:1046A0008091D4038D1108C0E11006C0F8019683F3
:1046B000C8010E941D0F6AC0C8010E942B228823D6
:1046C00009F44ECFEE2009F44BCF2091DA03822F6C
:1046D00082958F7090E0029714F28091D4039091AC
:1046E000D5039A838983BC82AB828091D8038D8362
:1046F0001E822F83CE010196B0CFA21AB30AF8EC26
:10470000AF16B10408F042C0882309F447C0FE2C5C
:10471000EE2009F425CF8091D5038C1129C080911A
:10472000D4038D1125C09091DA0390FD18C0892F14
:1047300082958F70282F30E02115310581F0F80126
:1047400096832F30310541F08F5F982F9295907F9F
:1047500086818F70892B8683C8010E941D0F87E098
:10476000F801A4EDB3E001900D928A95E1F718C02D
:10477000C8010E942B22811172CF8091DA038160DF
:104780008093DA03C8010E941D0F0AC087E0F4017C
:1047900011928A95E9F704C0F12C02C0FF24F3942A
:1047A0008F2D6496ECE00C94E92F9A3078F58630E2
:1047B00068F5E82FF0E086E0989FE00DF11D1124E8
:1047C0009E2F977083E0F695E7958A95E1F7EE0FB7
:1047D000FF1FEE0FFF1FEC54FC4F40E050E080E065
:1047E000219130E0092E02C0369527950A94E2F710
:1047F00021703327042E01C0220F0A94EAF7822B7E
:104800004F5F5F4F4430510559F7089580E0089598
:104810009A3088F5863078F5E82FF0E086E0989FAA
:10482000E00DF11D11248E2F877051E001C0550F4E
:104830008A95EAF783E0F695E7958A95E1F7EE0F1A
:10484000FF1FEE0FFF1FEC54FC4F20E030E070E044
:104850004081CB01022E02C0969587950A94E2F71B
:104860008170819584278523842781932F5F3F4F13
:104870002430310569F7089590930A038093090362
:10488000089521E030E002C0220F331F8A95E2F73D
:10489000209530958091090390910A0382239323F8
:1048A0000E943C240895909115048095892380935B
:1048B0001504282F277069F4981759F09091EB028E
:1048C00092FF07C08695869586950E944124109296
:1048D000150408959091EB0292FB222720F92817E6
:1048E00079F080FB92F99093EB026091EA0270916B
:1048F000EB0284E090E00E94533082E00E94532457
:10490000089521E030E002C0220F331F8A95E2F7BC
:104910008091090390910A03822B932B0E943C24DF
:10492000089590930803809307030895CF931092FE
:104930003F03C6E0EEEAF3E0DF018C2F1D928A957B
:10494000E9F780E090E00E940F1880E090E00E947C
:10495000EA17109242030E944B21EBE4F3E0DF01DF
:104960001D92CA95E9F710924403109245031092E4
:1049700046030E94C918CF910895882321F00E9410
:10498000221F0E944B210895882339F090913F0304
:10499000892B80933F030E944B2108951F93CF934F
:1049A000DF93182FEB010E942B2C209741F08FE909
:1049B0009FE00197F1F700C000002197F6CF812F0B
:1049C0000E94EF2BDF91CF911F910895CF93DF933A
:1049D000C0914606D09147068A30B1F420913D043B
:1049E000CE0180549440622F70E00E94B32F281BA8
:1049F000822F66E00E945930C82FC15008F48FC042
:104A000080E20E94E624F9CF8D30E9F4C054D4400E
:104A100020913D04622F70E0CE010E94B32F281B2D
:104A2000822F9E01280F311D2115324018F080E0A1
:104A3000C0E0D0E0C80FD11DC05CDB4FD09347066B
:104A4000C09346066CC096E0FE01A0E4B6E001907B
:104A50000D929A95E1F7803E30F086E0FE011192CA
:104A60008A95E9F70BC0F6E08F9FB00111246A52D6
:104A7000784F46E050E0CE010E94FE2FC0914606DE
:104A8000D091470646E050E0BE0180E496E00E94E7
:104A90007F30892B49F19E0120543440A90185E0E3
:104AA000569547958A95E1F781E090E0BC0102C0F8
:104AB000660F771F4A95E2F740913E0450913F04FC
:104AC000462B572B2B5F3F4F65E0369527956A9510
:104AD000E1F702C0880F991F2A95E2F7842B952BE6
:104AE00090933F0480933E049E012A5334404091AA
:104AF0003D04642F70E0C9010E94B32F481B46306B
:104B000010F4240F311D211582E0380710F020E049
:104B100030E0205C3B4F3093470620934606DF9100
:104B2000CF910895CF93DF93EC01FE018491882308
:104B300021F00E94E6242196F8CFDF91CF910895CD
:104B400080913504837051F0846080933504109215
:104B500068018091340481608093340408959091B9
:104B60003504937071F080933604609337044138B4
:104B700008F040E8409338048091340481608093C9
:104B800034040895AAE2B0E0E8ECF5E20C94D62FE4
:104B9000ECE2F4E084E394E02091F10021938E179D
:104BA0009F07D1F780912D04833009F461C030F460
:104BB000813071F0823009F49BC0B2C08A3009F4B0
:104BC00087C08B3009F46CC0893009F0A9C020C0BF
:104BD00080912C04813A09F0A3C08091E800877F7E
:104BE0008093E8008091300490913104892B21F466
:104BF00068E080E294E003C060E080E090E070E074
:104C00000E94BC168091E8008B778093E80088C0F2
:104C100080912C04813209F083C0809130049091FE
:104C20003104029708F07CC08091E800877F809370
:104C3000E8008091E80082FD05C080912A0481117E
:104C4000F8CF6EC02091F3008091F20090E0922B9B
:104C5000029731F48091F100813011F0863021F417
:104C60008091F10080931F048091E8008B7754C0FD
:104C700080912C04813A09F053C0809130049091C6
:104C80003104892B09F04CC08091E800877F809324
:104C9000E8008091E80080FFFCCF8091670137C079
:104CA00080912C048132E1F580913004909131049F
:104CB000892BB1F58091E800877F8093E8000E94FE
:104CC000361580912E04809367010E94962428C097
:104CD00080912C04813221F58091E800877F8093B8
:104CE000E8000E94361580912F0480931E0418C09E
:104CF00080912C04813AA1F48091E800877F809311
:104D0000E8008091E80080FFFCCF80911E04809332
:104D1000F1008091E8008E778093E8000E943615BC
:104D20008091E80083FFCEC180912C0490912D04E6
:104D3000492F50E04A30510508F0C4C1FA01E0564D
:104D4000FF4F0C947930803821F0823809F0BAC1D5
:104D500008C08091280490912904992389F08260E9
:104D60000FC0809130048F70873008F0ABC1809302
:104D7000E9008091EB0085FB882780F91092E9001B
:104D80009091E800977F9093E8008093F100109253
:104D9000F10065C1282F2D7F09F094C1882319F0F7
:104DA000823061F08FC180912E04813009F08AC178
:104DB000933009F080E0809329042EC080912E0466
:104DC00081112AC0809130048F702FEF280F263078
:104DD00008F078C18093E9002091EB0020FF1CC00F
:104DE000933021F48091EB00806214C09091EB002D
:104DF00090619093EB0021E030E0A90102C0440FE4
:104E0000551F8A95E2F74093EA001092EA008091DC
:104E1000EB0088608093EB001092E9008091E8003D
:104E2000877F20C181114EC110912E041F77809180
:104E3000E3008078812B8093E3008091E800877FF6
:104E40008093E8000E9436158091E80080FFFCCF37
:104E50008091E30080688093E300111102C082E03A
:104E600001C083E080932A042DC18058823008F06D
:104E700029C180912E0490912F048C3D53E0950719
:104E800079F583E08A838AE289834FB7F894DE015B
:104E9000139620E03EE051E2E32FF0E050935700FC
:104EA000E49120FF03C0E295EF703F5FEF708E2F1B
:104EB00090E0EA3010F0C79601C0C0968D939D93A4
:104EC0002F5F243149F74FBF8091E800877F80939F
:104ED000E8006AE270E0CE0101960E94BC16AEC006
:104EE0004091300450913104292F3327233031056C
:104EF000A9F068F42130310509F4F3C022303105FE
:104F000009F0E0C08BE390E0E3E4F7E044C0213235
:104F1000310521F12232310571F1D4C09927813058
:104F20009105A1F058F0029709F0CCC0E0E9F7E054
:104F3000E4918E2F90E0E0E9F7E02AC0E2EDF7E09F
:104F4000E4918E2F90E0E2EDF7E022C0E8EBF7E08D
:104F5000E4918E2F90E0E8EBF7E01AC0411551057F
:104F600009F4C4C04130510509F0ACC089E090E0BB
:104F7000EEE6F7E010C04115510509F4BCC0413020
:104F8000510509F09FC08BE790E0E4E8F6E003C02C
:104F9000009709F497C02091E800277F2093E8004C
:104FA00020913204309133048217930708F49C0156
:104FB00040E02115310589F180912A04882309F404
:104FC0003DC08530D9F18091E80083FD37C08091E4
:104FD000E80082FD2FC08091E80080FFEACF409179
:104FE000F3008091F20090E0942B2115310559F0E7
:104FF0008830910540F444914093F100319621505E
:1050000031090196F2CF41E0089709F040E0809124
:10501000E8008E778093E800CCCF4111CDCF0AC055
:1050200080912A04882351F0853041F08091E80076
:1050300083FD04C08091E80082FFF2CF8091E800F8
:105040008B778093E8003EC08038E1F58091E800DE
:10505000877F8093E80080912B048093F1008091FA
:10506000E8008E778093E8000E9436152BC08111EE
:1050700029C080912E0490912F049927029714F54E
:105080008091E800877F8093E80010912E041093B0
:105090002B040E943615111106C08091E30087FD94
:1050A00002C081E001C084E080932A0442E061EC08
:1050B00081E00E94551542E261EC82E00E945515A4
:1050C00080912A048091E80083FF1AC08091E80053
:1050D000877F8093E8008091EB0080628093EB00F3
:1050E0000FC082E190E0EEE7F7E055CF89E090E075
:1050F000E5E5F7E050CF84E490E0EFEFF6E04BCF4A
:10510000AA96E3E00C94F22F30915503311105C0BB
:105110008232910524F1829703C082329105FCF41A
:10512000FC01EE0FFF1FDF01A80FB91FAF5AB94FE7
:1051300011963C911197361307C03C91341304C06B
:1051400012963C91321759F031E0309350068E0F91
:105150009F1FFC01EF5AF94F61834083228308951A
:10516000109250060895E5E3F4E0248130E1231B1A
:1051700008F420E024838091340481608093340417
:105180000895E5E3F4E0248130E1230F08F42FEFE4
:1051900024838091340481608093340408959EE0D8
:1051A000899F802D1124980F953408F094E4209164
:1051B0005503222321F0933228F092E2089582329F
:1051C00008F482E20895FF920F931F93CF93DF9329
:1051D000182F062FF42EC0E0D0E02F2D402F612F86
:1051E000CE010E9484282196C434D105B1F7CDB7F1
:1051F000DEB7E5E00C94F02F80915006882339F15A
:10520000539A8BB1877F9BB198602FB7F894E1E5F3
:10521000F6E037E0ED31F30789F0319148E09BB9D2
:10522000000000C037FF8BB9330F000000C000C082
:1052300000C08BB900C04A9591F7EBCF2FBF8FE527
:1052400094E00197F1F700C0000010925006089515
:10525000E5E3F4E0438120E1421B08F440E0818172
:10526000628190E00E94AF250895E5E3F4E0438178
:1052700020E1420F08F44FEF8181628190E00E94AB
:10528000AF250895E5E3F4E0628120E1621B08F4B4
:1052900060E08181438190E00E94AF250895E5E3BD
:1052A000F4E0628120E1620F08F46FEF81814381B5
:1052B00090E00E94AF250895E5E3F4E0818190E05D
:1052C0004381628108970E94AF250895E5E3F4E0E9
:1052D000818190E04381628108960E94AF25089504
:1052E0008091350486958695815009F481E00E946D
:1052F000A025089581E00E94A0250895882311F03B
:10530000FA0101C0FB01099508958F929F92AF9217
:10531000BF92DF92EF92FF920F931F93CF93DF9391
:105320000E94881D609348067093490680934A0640
:1053300090934B0630913504232F237021F0C32F17
:10534000C695C69501C0C0E020916801213091F05A
:1053500028F0223099F12330E9F149C110926B0114
:1053600060934C0670934D0680934E0690934F06C3
:1053700081E02DC090916A01C9130DC0832F837005
:1053800090E04091690150E021E08417950709F40D
:1053900020E0822F01C081E0817080936D018091B7
:1053A0003A0490916C01981709F442C080936C0103
:1053B00040E060E080E00E94E3283AC0C0936A01C8
:1053C000832F8370809369010E94FC2883E080937F
:1053D00068010DC180913404882351F048E050E009
:1053E00068E170E085E394E00E9425301092340477
:1053F00080904C0690904D06A0904E06B0904F06BF
:1054000080915403882329F0C501B4010E946417D8
:1054100006C00E94881D681979098A099B096031B4
:1054200071058105910508F4E2C010926801DFC0A2
:10543000C1110AC080916D01882349F140E060E00C
:1054400080E00E94E32823C0C13009F0CAC08091E7
:105450006B010E94CF28D92ED82F4091360420917D
:105460003704E0913804F0E021112CC0EA5EF24FDD
:105470001491012FF12EDD1508F49BC08091550386
:10548000882309F4A8C081E051E25D1508F480E0AA
:1054900090916B019F5F90936B01811110C082E02E
:1054A0008093680180916D01811109C0CC2309F4BA
:1054B0008DCF80916B0181500E94CF2898C0C1117F
:1054C000F8CF95C0E22EF12CEA5EF24F3491F32F23
:1054D000A32EB12C56E0459FC00111240FEF10E020
:1054E000B8010E94B32F5BEA5603C001579F900D8D
:1054F0001124840F911D840F911D982E990C980EE4
:10550000A8014E195F094A9DC0014B9D900D5A9DFF
:10551000900D1124E92F299DA0011124452F552715
:10552000D801A41BB50BAD014A9DD0014B9DB00D18
:105530005A9DB00D1124A801491951094A018E9CA8
:10554000A0018F9C500D9E9C500D1124452F552776
:10555000041B150B0A9D70010B9DF00C1A9DF00C9D
:1055600011244F2D6230710591F048F461157105D9
:10557000E1F061307105B9F4432F3B2F16C0643060
:10558000710569F040F06630710579F00CC0432F69
:10559000392FEF2D0AC0392FEF2F4B2F06C0492F7F
:1055A000E32F3F2D02C0492FEB2F1E2F032FF42E88
:1055B00062CFED2FF0E0DF01AD56BD4F8C919091A1
:1055C0006C01982331F0212F4F2D602FCF010E94C5
:1055D0008428DF5F50CF81E093E49D1508F058CF19
:1055E00056CF80916B018F5F80936B0158CFDF9115
:1055F000CF911F910F91FF90EF90DF90BF90AF90F0
:105600009F908F90089590914D03662309F470C088
:1056100091110CC090914E03911108C090915003CC
:10562000911104C090914F03992331F098E0909329
:10563000440391E0909345038D3C21F40E94151999
:10564000819504C08E3C29F40E94151980934E0365
:10565000C3C08F3C21F40E941519819504C0803D80
:1056600029F40E94151980934D03B6C0893D19F4A1
:105670000E94F31805C08A3D31F40E94F318819509
:1056800080934F03A9C08B3D21F40E94F3188195AC
:1056900004C08C3D29F40E94F318809350039CC0F1
:1056A0009FE2980F983078F421E030E0A90102C021
:1056B000440F551F9A95E2F7CA0190914C03892B2C
:1056C00080934C0389C08D3D21F480914603816015
:1056D0000CC08E3D21F480914603826006C08F3D50
:1056E00009F07AC08091460384608093460374C0B9
:1056F0008D3C39F490914E0397FF33C010924E03C6
:1057000057C08E3C29F490914E031916BCF329C062
:105710008F3C29F497FF25C010924D0349C0803D6E
:1057200019F41916CCF31DC090914F03893D29F44B
:105730001916BCF410924F033BC08A3D19F497FF31
:1057400010C0F8CF8B3D39F49091500397FF09C0FA
:10575000109250032DC08C3D21F4909150031916E6
:10576000BCF39FE2980F983080F421E030E0A9016B
:1057700002C0440F551F9A95E2F7CA018095909197
:105780004C03892380934C0313C08D3D21F48091F9
:1057900046038E7F0BC08E3D21F4809146038D7FA2
:1057A00005C08F3D29F4809146038B7F809346038B
:1057B00080914D03811106C080914E03811102C07A
:1057C0001092440380914F03811106C080915003D1
:1057D000811102C0109245030E94C91808958823C0
:1057E000C9F19CEF980F913A60F4ECEAF3E09281F2
:1057F000891301C01282319693E0E23BF907B9F7B1
:105800000DC090E2980F983060F4877091E001C06D
:10581000990F8A95EAF7892F0E94221F0E944B2137
:1058200008959BE5980F933028F480E090E00E9463
:105830000F18089598E5980F9B3128F480E090E0C8
:105840000E94EA17089593E3980F933118F460E0EB
:105850000E94032B0895CF93882309F459C0C82FC1
:105860008CEF8C0F813AF8F4EEEAF3E084EB93E0EE
:105870002191C21721F08E179F07D1F70EC0ECEAD5
:10588000F3E082EB93E02281C21301C012823196D1
:105890008E179F07C1F70E944B216C2F8CEA93E073
:1058A0000E94D01710C080E28C0F883078F4C77047
:1058B00081E090E001C0880FCA95EAF790913F031C
:1058C000892B80933F030E944B2122C0EBE5EC0F14
:1058D000E33040F4F0E0EC56FE4F808190E00E940F
:1058E0000F1816C0E8E5EC0FEB3150F4F0E0EE0FC6
:1058F000FF1FE956FE4F808191810E94EA1708C080
:1059000083E38C0F833120F461E08C2F0E94032B02
:10591000CF910895EF92FF920F931F93CF93DF9350
:10592000182FEB011092BC0084EA8093BC000E9407
:105930009B177C018091BC0087FD0DC0CF3F8FEF8E
:10594000D807C1F3C7010E948017C817D90790F77D
:105950008EEF9FEF2DC08091B900887F883041F095
:105960008091B900887F803119F08FEF9FEF20C0C0
:105970001093BB0084E88093BC000E949B178C01AD
:105980008091BC0087FD0BC0CF3F8FEFD807C1F3DC
:10599000C8010E948017C817D90790F7D9CF809106
:1059A000B900887F883111F08034F9F680E090E00A
:1059B000CDB7DEB7E6E00C94EF2F1092B9008CE083
:1059C0008093B80008950F931F93CF93DF93EB015B
:1059D0008093BB0084E88093BC000E949B178C01DD
:1059E0008091BC0087FD0DC0CF3F8FEFD807C1F37A
:1059F000C8010E948017C817D90790F78EEF9FEF54
:105A00000CC02091B900287F81E090E0283211F489
:105A100080E090E0919581959109DF91CF911F9160
:105A20000F910895A0E0B0E0E8E1FDE20C94CC2FE6
:105A3000782EB62EA72E6A0189010E949B174C0171
:105A40000431110558F00F3F8FEF180751F0C801CE
:105A500064E170E00E94B32FEB0105C0C1E0D0E02B
:105A600002C0C5E0D0E0BE01872D0E948A2C7C01D7
:105A700097FD05C0CB2DDA2DCC0EDD1E12C00F3FD9
:105A80008FEF180781F3C4010E94801708171907C8
:105A900050F7F0CFF7FC08C0B80189910E94E32CC1
:105AA0007C01CC15DD05B1F784E98093BC00C7010A
:105AB000CDB7DEB7EDE00C94E82FA0E0B0E0E3E670
:105AC000FDE20C94CC2F782EEB016A0189010E9433
:105AD0009B174C010431110558F00F3F8FEF180749
