:100000000C940B070C9443070C9443070C94612E3B
:100010000C9443070C9443070C9443070C94430738
:100020000C9443070C9443070C94F9150C94E714B3
:100030000C94BB170C9443070C9443070C94430790
:100040000C9443070C9443070C9443070C94430708
:100050000C9443070C9452170C9443070C944307D9
:100060000C9443070C9443070C9443070C944307E8
:100070000C9443070C9443070C9443070C944307D8
:100080000C9443070C9443070C9443070C944307C8
:100090000C9443070C9443070C9443070C944307B8
:1000A0000C9443070C9443070C9443074F10C31060
:1000B0005710211025105B1028105E1069103310A6
:1000C000B91037106D103B1071109B103F10751058
:1000D000A51045107B1085102C1062102F10651094
:1000E0004A1080109110B110B3101D105310CC1095
:1000F000F510FB10E610EC10011107110D11DD11C8
:10010000DD110F120F1281129F12C313C313A41219
:10011000321343134313F113FF13041409140E1481
:10012000131418141D14221427142C14331428111A
:1001300028112811281128112811281128112811F7
:100140006A299129292B9129292BD929FC29292B85
:10015000EB2AFE2A00DA0281FFD9F1DB20A4A62EC9
:10016000AF00A0C0D30000A1C8D30000AED580A8C6
:100170001F408D142000000000E000F8C0F8E0C02F
:10018000FC007E180080000280F000C080F8C0E013
:1001900070603C383C1C003F0C0F1F030701C3007C
:1001A000E08000E080F880C0F7C76F7B39300080C6
:1001B00000C000C0C2E000403830381E181E0F0CCE
:1001C00007070703032121313018181C080C0E07FC
:1001D000060703C303014CCCC2C24149092B2A6A5A
:1001E0006E2424049292B1F1F1F2E6A4A40404284E
:1001F0002828282828286C696C7920002094959656
:100200002020B4B5B62020D4D5D62000209D9E9FB6
:100210002020BDBEBF2020DDDEDF20002097989982
:100220002020B7B8B92020D7D8D92000209A9B9C8D
:100230002020BABBBC2020DADBDC200020202020DC
:100240002000A7A800AFB000C600CA00C800A5A63D
:1002500000ADAE008788008F9000C500C900C700C0
:10026000CB008586008D8E00ABAC00CFD000C600E1
:10027000CA00C800A9AA00B1B2008B8C00CDCE0084
:10028000C500C900C700CB00898A009192002020D8
:10029000005320002020004320002020004E20009A
:1002A0000000001000000000000000081C08000012
:1002B000000000000000020000000000100000002C
:1002C00000000000200000000000000000020040CC
:1002D000E040000000000000040000000080C0803A
:1002E000C080000000000000E0008000F00000C0BE
:1002F00000000000000000400000000000000100BD
:100300008100C000FE00FC00FF20FFF00FF000FFA6
:10031000000000001000000000009000F80000F84D
:10032000FF10FF84FF60FF36FF0FFF3F005F0005F7
:1003300080008000C03800ECF000FB80FFF0FFEF91
:10034000FFE8FF03FF0CFF00FF00030000F8008040
:10035000FF20FFD0FFE0FEF8FFFCFFFF0FFF013F93
:10036000FF000F0001000300FE80FE00C0FFC4FB81
:10037000FFFEFFFFFF3FFFFF07FF033F000FC0002F
:100380000000B800FF40BEF0FFF1FFFEFFFFFFFFDF
:100390001FFF6700EF001F0000070000E000FFF0F4
:1003A000FF88FFC4FFF8FFFFFFFFFFFF8F7F0FFFF6
:1003B0000007FE000700000000F800C03FF8E7FF5C
:1003C000FFFFFF1FFFFF1F3F01FF0B00FF000005A6
:1003D000000000E000F86080FEE3FCFF1EFFFF234A
:1003E000FF09FF20003F0200000F004000C000FC9A
:1003F000E0FCF0FFFF7FFCFF0FFF071F00010F0075
:100400000F0081700CF0800000E4F8E6703FCFFF31
:100410001FFF48FF0F000700004360F8F0FE38FEA2
:1004200000FC0300C872CFFC00030F01E01CE003D6
:10043000000F00000000000000F806F900030007AC
:10044000FF001012C9F0CFB47F80E01E0140655E4E
:10045000E00000F00CF000807E018093FCC0000002
:100460000000000089182C46000721101080091395
:1004700031BFFF00081AF70F0000444534BFB80031
:1004800010F008F41811FC18FB0E10F804F81020F6
:100490001809FF0CEA1F286030F820C04233210001
:1004A00000AF00AE167C1E001F00200021002200BD
:1004B0002B0014001A00080015001700737C0400BC
:1004C0001600070009000A00E0001D001B000600DE
:1004D0001900050000003100E200E30021522C2247
:1004E0002E00270026002500240023002D001300E5
:1004F00012000C0018001C00340033000F000E0026
:100500000D000B00313238003700360010001100AA
:1005100000004D004C002A0022521E7C35000000D5
:100520000000000000000000390000000000000092
:1005300000000000E1001E021F0220022102220230
:10054000E0000000000000000000000000000000CB
:1005500001000100010001005700270226020000EF
:10056000000000002D0230002F00310230022F0267
:100570003402330200002502240223023200380232
:10058000370236022E0267000000000001004C0016
:100590002352010001003A003B003C003D003E00B8
:1005A000000000000000000000000000E1001E004C
:1005B0001F00200021002200E0002300240025006D
:1005C0002600270000000000010001002352010066
:1005D0004D004A004500440043003D004E004B00E2
:1005E0000000000000000000000000004F0052006A
:1005F0005100500000003800370036004D004A001E
:1006000000004600010001000100010000000000A0
:1006100000000000000000000000000000000000DA
:10062000000000000000000000000000D100D20027
:1006300000000000000000000000000000000000BA
:100640000100010001000100A900AA000000000053
:1006500000000000BD00BE0000000000000000001F
:1006600000000000D000CD00CE00CF000000000050
:10067000D900DA00000000000000000001000100C5
:10068000010001000001010101010101010102025B
:100690000202020202020203030303030303030430
:1006A00004040404040405050505050606060606FB
:1006B000070707070708080808090909090A0A0AB5
:1006C0000B0B0B0C0C0C0D0D0D0E0E0E0F0F0F1057
:1006D00010111111121213131414151516161717E1
:1006E000181819191A1A1B1B1C1D1D1E1E1F20204D
:1006F000212222232424252626272829292A2B2C97
:100700002D2D2E2F30313232333435363738393AB9
:100710003B3C3D3E3F404142434445464748494AB1
:100720004C4D4E4F50515354555658595A5B5D5E7F
:100730005F616264656668696B6C6D6F707273751A
:1007400077787A7B7D7E8082838587888A8C8E8F7E
:1007500091939596989A9C9EA0A2A3A5A7A9ABADAC
:10076000AFB1B3B5B7BABCBEC0C2C4C6C9CBCDCF9A
:10077000D1D4D6D8DBDDDFE2E4E7E9EBEEF0F3F548
:10078000F8FAFDFF05010902A10185020901A10096
:10079000050919012908150025019508750181022F
:1007A0000501093009311581257F950275088106FB
:1007B00009381581257F950175088106050C0A38D1
:1007C000021581257F950175088106C0C0050109C4
:1007D00080A101850319012AB700150126B70095EC
:1007E0000175108100C0050C0901A10185041901E2
:1007F0002AA002150126A002950175108100C005EE
:10080000010906A101050719E029E7150025019551
:1008100008750181029501750881010507190029F4
:10082000FF150026FF0095067508810005081901CF
:10083000290515002501950575019102950175039E
:100840009101C009023B00020100A0FA0904000066
:1008500001030101000921110100012244000705E3
:1008600081030800010904010001030000000921BF
:1008700011010001227B0007058203200001120103
:100880000002000000081D8DC2B400010102000139
:1008900026034100750072006F00720061002000A5
:1008A0004C0069006C0079003500380020007200AF
:1008B00065007600310000001803730070006C00C2
:1008C000690074006B0062002E0063006F006D0011
:1008D0000000040309040000000000003E5B4F5BC1
:1008E0003E003E6B4F6B3E001C3E7C3E1C00183CA5
:1008F0007E3C18001C577D571C001C5E7F5E1C0050
:1009000000183C180000FFE7C3E7FF000018241898
:100910000000FFE7DBE7FF0030483A060E0026291B
:1009200079292600407F05050700407F05253F0007
:100930005A3CE73C5A007F3E1C1C0800081C1C3E29
:100940007F0014227F2214005F5F005F5F000609B2
:100950007F017F00006689956A00606060606000CA
:1009600094A2FFA2940008047E04080010207E20B8
:10097000100008082A1C0800081C2A0808001E107D
:10098000101010000C1E0C1E0C0030383E383000C9
:10099000060E3E0E060000000000000000005F0092
:1009A0000000000700070000147F147F1400242AB1
:1009B0007F2A120023130864620036495620500033
:1009C000000807030000001C224100000041221C17
:1009D00000002A1C7F1C2A0008083E08080000802E
:1009E000703000000808080808000000606000007F
:1009F0002010080402003E5149453E0000427F405D
:100A000000007249494946002141494D33001814FC
:100A1000127F10002745454539003C4A49493100BD
:100A200041211109070036494949360046494929FB
:100A30001E00000014000000004034000000000808
:100A4000142241001414141414000041221408004C
:100A50000201590906003E415D594E007C121112F7
:100A60007C007F49494936003E41414122007F4197
:100A700041413E007F49494941007F090909010080
:100A80003E41415173007F0808087F0000417F41CB
:100A900000002040413F01007F08142241007F40B8
:100AA000404040007F021C027F007F0408107F004E
:100AB0003E4141413E007F09090906003E41512166
:100AC0005E007F0919294600264949493200030181
:100AD0007F0103003F4040403F001F2040201F0097
:100AE0003F4038403F006314081463000304780457
:100AF00003006159494D4300007F41414100020418
:100B000008102000004141417F000402010204005E
:100B10004040404040000003070800002054547843
:100B200040007F2844443800384444442800384476
:100B300044287F0038545454180000087E090200ED
:100B40001824241C78007F080404780000447D40A9
:100B500000002040403D00007F102844000000417C
:100B60007F4000007C04780478007C08040478004E
:100B70003844444438007C182424180018242418CD
:100B80007C007C08040408004854545424000404E5
:100B90003F4424003C4040207C001C2040201C009E
:100BA0003C4030403C004428102844004C90909039
:100BB0007C004464544C44000008364100000000AE
:100BC0007700000000413608000002010204020024
:100BD0003C2623263C000000000000000000C0E08E
:100BE000F0F8F81800C0F0FCFEFFFFFFFFFFFFFF6A
:100BF0007E00000000F8042252E2424242E2522209
:100C000022224282020222220204F80000F8040298
:100C10000282422242820202028242221222428244
:100C20000204F80000F8FCDEAE1EBEBEBE1EAEDE44
:100C3000DEDEBE7EFEFEDEDEFEFCF80000F8FCFE20
:100C4000FE7EBEDEBE7EFEFE000000000000808054
:100C500040402020101008081010202040408080C4
:100C60008080C0C0E0E0F0F0F8F8F0F0E0E0C0C054
:100C70008080808040402020101008081010202024
:100C800040408080808040C060A050B058A850B0E4
:100C900060A040C0808000F8FCFEFFE000FFFFFF86
:100CA000FFFFFF80FFFFFFFFFFFFFFFFFF1F0701A9
:100CB00000000000001F20444A47424242474A4485
:100CC000404040404142444440201F00001F20401B
:100CD000414040404040414041414F4848484F41D9
:100CE00041201F00001F3F7B75787D7D7D78757BDF
:100CF0007F7F7F7F7E7D7B7B7F3F1F00001F3F7F4D
:100D00007E7F7F7F7F7F7E7F0000000000008888DD
:100D10005D5D3E3E7C7CF8F87C7C3E3E5D5D888877
:100D200088885555232347478F8F47472323555599
:100D300088888888D5D5E2E2C4C48888C4C4E2E241
:100D4000D5D5888888885DD56BB66DD6ADDA6DD679
:100D50006BB65DD5888800030F1F3F3F3F3F1F1FC5
:100D60003F3F7F7F7F3F3F1F3F7F7F7F7F7C787844
:100D7000381C0F0004F80000F804201F00001F209A
:100D8000FCF80000F8043F1F00001F2004F80000DA
:100D9000F8FC201F00001F3FFCF80000F8FC3F1F7C
:100DA00000001F3FFE7EBEDEEEDEBE7EFEFCF800D3
:100DB0007E7E70777777707E7E3F1F000000000098
:100DC0000000000000000000000000000000000023
:100DD00001010202040408080404020201010000E7
:100DE00000000101020204040808040402020101D7
:100DF000000000000101030307070F0F07070303AB
:100E00000101000000000101030205060D0A0506AC
:100E100003020101000011241FBECFEFDAE0DEBFA4
:100E2000CDBF04B603FE18C080910E0790910F0746
:100E3000A0911007B09111078730904BA740B04B9D
:100E400059F410920E0710920F071092100710928B
:100E50001107E0E0F8E3099512E0A0E0B1E0ECEC66
:100E6000F0E602C005900D92A03DB107D9F727E04A
:100E7000A0EDB2E001C01D92AE30B207E1F70E94D2
:100E800045070C9464300C940000AEE0B0E0EBE455
:100E9000F7E00C94962F85B7806885BF85B780688A
:100EA00085BF84B7877F84BF0FB6F894A8958091DB
:100EB0006000886180936000109260000FBE90E037
:100EC00080E80FB6F89480936100909361000FBEA4
:100ED00089EC9FE19093D1028093D0020E942B1560
:100EE0000E949E158091E20084608093E2007894D5
:100EF0008091F0048823A1F01091E9001F70909177
:100F0000EC00892F817090FD80E8182B1092E90089
:100F10008091E80083FD0E9489281F701093E900EA
:100F200082E084BD93E095BD9AEF97BD80936E00FB
:100F30001092D2021092D3021092D4021092D502D3
:100F40008091D80080618093D8002AE12A95F1F73A
:100F500000C08091D900182F117080FD04C00E943C
:100F60002B151092F00410934A0385988D988FE802
:100F700091E00197F1F700C000008FB185FB882751
:100F800080F980934B0380930B0180914A03811178
:100F90000E941C2E90910B0181E098279093FF02F4
:100FA000A82FA91BA093D70290910B018093000357
:100FB00090910B018093D60280910B01811106C0A4
:100FC00087EF8093170186EF8093160180911701B8
:100FD000E82FE295EF70F0E041A1282F2F7081E01B
:100FE00090E0BC0102C0660F771F2A95E2F79B01D3
:100FF000362F3095342331A332A1232B22A3209105
:101000001601E22FE295EF70F0E031A12F7001C0E0
:10101000880F2A95EAF7982F9095932391A392A190
:10102000892B82A38FE891E00197F1F700C00000BF
:101030007091000341E053E007E111E0A6E1B1E067
:1010400060E0671751F1F80121918F01822F82959D
:101050008F7090E0FC0180A190E02F7002C0959508
:1010600087952A95E2F781709D91292F22952F70FF
:1010700030E0F90120A130E09F7002C0359527953E
:101080009A95E2F720FD02C090E001C092E0892B22
:10109000FA018193AF016F5FD4CF80910B01811171
:1010A00027C085E0E6E6F1E0DE01179601900D929B
:1010B0008A95E1F7FE013796A6E0B1E0CE010C96E5
:1010C0009F0141914D93E817F907D9F786E0EBE6C8
:1010D000F1E0DE01119601900D928A95E1F7FE0193
:1010E0003196A0E0B1E081918D932E173F07D9F79B
:1010F00080910B01811102C095E001C090E09093B6
:10110000E30285E0891B8093E20200E011E096E0B3
:10111000E92E91E0F92ED8018D918D018F3F11F0CC
:101120000E94B721E016F106B1F706E011E0F801E0
:1011300081918F018F3F11F00E94B721F1E00B30B8
:101140001F07A9F78AE0E6EEF2E0DF01282F1D92E3
:101150002A95E9F7E8EDF2E0DF011D928A95E9F7BB
:1011600080E090E00E94EE2F863E9E4F11F00E949C
:101170008D1B82E090E00E94E62F8093F00284E0D5
:1011800090E00E94EE2F9093E5028093E4020E948B
:101190003823EFEFF6E721E0E150F0402040E1F79F
:1011A00000C000000E94382380914B03811102C0CF
:1011B000E5E001C0E0E0F0E0EA51FD4F808180FF12
:1011C00008C06FEF7FEF80E090E00E9422300E9425
:1011D0002E1783E090E00E94E62F90E00E94501FBF
:1011E0000E94462580E090E00E94EE2F863E9E4FB2
:1011F00021F00E948D1B0E94922781E08093FA04C7
:1012000048E050E068E170E08BEF94E00E94D62F58
:101210001092FA048091FB048C7F11F40E949227B3
:1012200083E08093280380E2809303050E94D22C00
:101230006BE070E08BE691E00E94DB19882309F4F3
:1012400043C08091280365E070E081FD3AC086E6E6
:1012500091E00E94DB198823B9F16DE070E084E52C
:1012600091E00E94DB19882379F10E94A317DC0129
:10127000CB01805A9541AF4FBF4F80932F0390937E
:101280003003A0933103B0933203E6E0F5E080E051
:1012900092E0DF019C011D9221503040E1F7F09374
:1012A0000D07E0930C078FEF9FEF90930505809358
:1012B000040581E080933403809333031092290363
:1012C00003C081E691E0C5CF80914A03811102C03D
:1012D0000E941F2E8CE091E090934F0380934E0369
:1012E00008E1202E312C44244394512C8091F004A9
:1012F000853009F046C000E112E18091F0048530AC
:1013000009F03BC08091F004843031F10E94142632
:101310000E94061A1092520330E40FB6F894A89572
:10132000209260000FBE3093600083B7817F84609D
:1013300083BF83B7816083BF7894889583B78E7F9E
:1013400083BF0FB6F894A895809160008861809360
:101350006000109260000FBE8091EF04882309F4B2
:10136000CCCF0E943823E6EEF2E081918111E7C3F1
:1013700062E0E03FF607C9F7C0CF0E94551F0E9408
:1013800048180E943823B1EFEB2EB2E0FB2E16EE88
:10139000C12E12E0D12E2BEF32E0D601F701919150
:1013A0008D9189272E173F0719F08823C1F306C0B6
:1013B000811104C00E94A51FD12C38C080904A031F
:1013C00010E077247394D6019D906D01F701A08001
:1013D000A92411F100E0BB24B3948B2D8A21B1F034
:1013E0008820A1F00F8318870E94AF179A878987FA
:1013F0007B8691E08B2D892109F490E09C874F81B9
:10140000588569857A858B850E94880E0F5FBB0C95
:10141000063019F7D7019C921F5FBFEFEB1AFB0A4A
:101420001A3089F60E94CE21DD24D39480914A039C
:10143000882389F080913903882369F00E94AF17CF
:101440002091360330913703821B930B8F3F9F47C8
:1014500010F40E946E190E941426E12CC12C809178
:101460000003E81608F083C00E2D10E0F801E95ED5
:10147000FE4F8081E82FE295EF70F0E0E0A1F0E010
:101480008F7002C0F595E7958A95E2F7E170D80173
:10149000AA5EBE4F2C91A22FA295AF70B0E090969D
:1014A0008C9190E02F7002C0959587952A95E2F770
:1014B00080FD02C080E001C082E04E2F482BD801A1
:1014C000AF5FBC4FEC918E2F837090E0242F042EE1
:1014D000000C330B8217930709F447C0EE0FEE0F91
:1014E000E42BEC93F090FF02FE0CEF70F0E0EC5870
:1014F000FE4F03501D4F9081D8018C91890F8C9322
:10150000843084F0EF2DF0E0E550FD4F80818F5F57
:10151000808380914A03882339F060E08F2D0E94F8
:10152000180F02C020E001C021E0F80180818D3F4A
:1015300084F4EF2DF0E0E550FD4F808181508083F1
:1015400080914A03882321F061E08F2D0E94180FBB
:1015500021E0D8018C91082E000C990B64E070E01A
:101560000E943430F8018083C22AE39478CFCC20E3
:1015700021F00E948A1BDD24D394809134038823B8
:1015800009F4D3C180912A0390912B030E949417F0
:10159000C29708F4C3C00E94AF1790932B038093A7
:1015A0002A0386E095E090930D0780930C078091C5
:1015B0004A03882309F4ACC060E870E086E791E054
:1015C0000E94901980910305F4E08F9FC0011124BF
:1015D000811522E0920714F080E090E08A5F9A4F34
:1015E00090930D0780930C0786EF91E00E94592895
:1015F0008CE392E00E945928209105033091060364
:101600008091030390910403822B932B292F33277E
:101610002115310519F0C90128E001C020E0AC0115
:10162000F4E056954795FA95E1F74115510511F00B
:101630002C5FCA01AC0156954795569547954115C3
:10164000510511F02E5FCA0196958795892B09F0F7
:101650002F5F223039F0233041F0213049F48CE201
:1016600092E008C08CE192E005C08CE092E002C0FC
:101670008CEF91E00E9459288CE392E00E94592857
:101680001091070380913503182B012F08781474EB
:10169000002349F085E692E00E945928112361F069
:1016A00080E692E00CC082E692E00E945928112365
:1016B00059F08CE592E003C08EE592E007C00E94ED
:1016C00059281123A9F005C08AE592E00E94592803
:1016D0000FC087E592E00E945928011146C28EE4AE
:1016E00092E00E945928112381F08AE492E043C2DB
:1016F00084E592E00E945928002389F381E592E075
:101700000E9459288CE492E084C288E492E081C26D
:1017100060E072E080EA92E00E94901980910405F6
:1017200090910505892B31F480913303882309F4C6
:10173000FCC0E4C0809134038823B1F38091290375
:101740008111F2CF0E94201A2091040530910505E5
:101750002115310549F380E0082F10E07201082EB1
:1017600002C0EE0CFF1C0A94E2F7A70142235323A8
:10177000452B11F48F5FF0CF90912803980165E01D
:10178000220F331F6A95E1F790FF13C055E036959D
:1017900027955A95E1F7220F220F220F20931A0165
:1017A00010921D01295F20931B0183E080931E018D
:1017B00011C0220F232F221F330B31958295880FE2
:1017C000807680931A0120931D01815E80931B0116
:1017D00020931E0124E630E047E050E068E171E02C
:1017E00088E70E947A2D892B09F09ECF80912803EB
:1017F00080FF64C080E2E8E0F3E0DF011D928A959B
:10180000E9F7A80135E0440F551F3A95E1F7E8E8FC
:10181000F1E0FE87ED8704E811E0AD85BE858D918E
:10182000BE87AD87F80191918F01BA01690F711DD3
:101830006A5F7A4F90E0885F9C4FFC0127E0922E10
:101840009F01281B390B742C01C0770C2A95EAF7ED
:101850005B01812CD501CD905D01C720292D281970
:101860002770622E022E000C330BBC2D01C0BB0F63
:101870006A94EAF76B2E3195219531092770332749
:1018800001C0C6942A95EAF76C28C0806C28608253
:10189000839428E08212DECF9A9431963FEF931220
:1018A000CFCF6D857E856C58714009F0B6CF04E6C8
:1018B00010E020E230E048E053E00CC0A80185E0F1
:1018C000440F551F8A95E1F74A5F5A4F04E610E02E
:1018D00020E230E060E488E70E949B2D892B09F02C
:1018E00023CFE094F0948091040590910505E822BF
:1018F000F922F0920505E092040516CF0E94A31785
:1019000000912F0310913003209131033091320365
:10191000DC01CB01801B910BA20BB30B8F3F9F4FC0
:10192000AF4FBF4710F40E94061AD1100E94201A30
:1019300086E0E1E4F3E0DE01119601900D928A95D4
:10194000E1F7D09042031091430300914403F090DB
:101950004503E09046031092430310924403109213
:10196000450310924603111103C0002309F447C038
:1019700080913F03909140030E9494179C019091A5
:101980003A03992309F47FC125313105C0F19F3F06
:1019900019F09F5F90933A03112361F00E94291977
:1019A000111614F09FEF01C091E0899F802D112442
:1019B00080934303002361F00E942919101614F448
:1019C00091E001C09FEF899F802D112480934403F3
:1019D00080914303882399F0C0904403CC2079F090
:1019E0000E944919811101C081E0809343038C2D2D
:1019F0000E944919811101C081E080934403F110D4
:101A000003C0EE2009F447C080913D0390913E034E
:101A10000E9494179C0190913B03992309F438C1CB
:101A200021353105C0F19F3F19F09F5F90933B0333
:101A3000FF2061F00E9407191F1414F09FEF01C0EE
:101A400091E0899F802D112480934503EE2061F061
:101A50000E9407191E1414F491E001C09FEF899FA2
:101A6000802D11248093460380914503882399F0AB
:101A7000C0904603CC2079F00E944919811101C021
:101A800081E0809345038C2D0E944919811101C08A
:101A900081E080934603809142038D111AC08091AA
:101AA0004303882311F0181314C080914403882342
:101AB00011F008130EC080914603882311F0E8123C
:101AC00008C090914503992331F081E0F91204C0D8
:101AD00002C081E001C080E080FD15C08091430319
:101AE00081110FC08091440381110BC08091450387
:101AF000811107C081E090914603911103C080E0FD
:101B000001C081E080FD0E94DD18DA821B830C8316
:101B1000FD82EE8286E0FE013196A1E4B3E0019001
:101B20000D928A95E1F70E94481890912C0389172D
:101B300009F4DCCB80932C030E94A317D7CB09BDFB
:101B400019BD09B400FEFDCF8091D8008F7D809330
:101B5000D8008091E00082608093E0008091E000F6
:101B600081FDFCCF0E94551FC8CB81E592E00E9409
:101B700059288CE492E00E94592885E492E00E9462
:101B800059281091070380913503182B012F0171FB
:101B90001272002349F08BE892E00E945928112329
:101BA00061F086E892E00CC088E892E00E94592833
:101BB000112359F082E892E003C084E892E007C064
:101BC0000E9459281123A9F005C080E892E00E94E4
:101BD00059280FC08DE792E00E94592801111EC0BC
:101BE00084E792E00E945928112381F080E792E077
:101BF0001BC08AE792E00E945928002389F387E7F7
:101C000092E00E94592882E792E038C08EE692E086
:101C100035C00E94592882E492E0B1CF87E792E074
:101C20000E94592882E792E00E9459288BE692E0B0
:101C30000E9459280E94481881FB002700F982FB66
:101C4000112710F980FD03C08AE992E002C08DE9F6
:101C500092E00E945928011103C084E992E002C079
:101C600087E992E00E945928111103C08EE892E0A2
:101C700002C081E992E00E94592850CD0E94592863
:101C800088E692E0D5CF2B30310508F082CEB7CE72
:101C90002B30310508F0C9CEFECEA6E0B0E0E3E57A
:101CA000FEE00C94A52F49835A8349815A819923D8
:101CB00061F0222351F0CA010E94A91C182F682F3D
:101CC00089819A810E94C71E04C0CA010E94941E85
:101CD000182F69817A81812F0E941B232696E3E0C9
:101CE0000C94C12F0E94551F2FEF84E39CE02150DC
:101CF00080409040E1F700C000009CE088E10FB612
:101D0000F894A895809360000FBE90936000FFCF79
:101D1000ABE1B0E0EEE8FEE00C94A42F4E8B5F8BBD
:101D2000688F798F8A8F9B8F192F911110923803AA
:101D3000DE011F9687E0FD0111928A95E9F786E0A2
:101D4000FE01769601900D928A95E1F70A8D0023A7
:101D500041F021E04F85588969897A89C8010E943C
:101D60004D0E0B8B1C8B87E0FE013F96DE01189613
:101D700001900D928A95E1F7CE0108960E940D1D03
:101D800081112CC087E0FE013896DE01119601908A
:101D90000D928A95E1F76C85662301F12091870306
:101DA00030E0C9010196877099274091C00350E047
:101DB0008417950761F16D8397E0929FD001939FFF
:101DC000B00D1124A857BC4FFE01319601900D9221
:101DD0009A95E1F7809387030E94461C17E0809153
:101DE000C003909187038917F9F0189FC00111244F
:101DF00088579C4F0E940D1D8823B1F08091C0032D
:101E000090E00196877099278093C003E8CF0E94E5
:101E1000551F109287031092C003E0E8F3E087E0BB
:101E2000DF011D928A95E9F76B96E4E00C94C02FD0
:101E300081110AC0662321F060E070E089EA0FC0DA
:101E400060E070E08AEA0BC0813059F4662321F02B
:101E500060E070E08EE403C060E070E08BE40E941C
:101E60008D1F81E00895A0E0B0E0E9E3FFE00C946D
:101E70009F2FFC018481882309F40DC57F0121E097
:101E8000408151816281738195810E944D0EEC01E8
:101E900083379C4779F4F7018581882309F4D8C1F9
:101EA00080913903882319F00E946E19D1C10E94D4
:101EB0007C19CEC11091070380913503182B8091B6
:101EC0003903811106C0123209F08EC00E947C19BC
:101ED0008BC00E94AF1788579C4E90933703809316
:101EE0003603F7018581882309F47EC01D7909F046
:101EF00076C0C034F2E5DF07B8F4C11522E5D20799
:101F000008F072C0C11580E4D80748F4C11590E20A
:101F1000D90740F5C63ED10509F040C065C0C115DE
:101F2000E0E5DE07A0F13AC0C03EF2E5DF07A0F42D
:101F3000C03C22E5D20708F057C0C03682E5D8077A
:101F400068F1C03A92E5D90708F44EC0C43BE2E517
:101F5000DE0709F449C022C0CE0187579C4702978B
:101F6000E8F442C0F7018681807FA9F48D2F8F713C
:101F70008231B1F028F4823091F581EE90E012C008
:101F8000843191F1863159F586EE92E10BC0F7016B
:101F90008681807FA9F1CE01992704C0CE0102C0BD
:101FA00085EE90E0109238038832910530F48E313E
:101FB0009105C0F4049798F00EC08D32910559F048
:101FC00018F48A9779F00BC08C34910559F08D3252
:101FD000924041F004C082E08093380303C00E9425
:101FE0006E1902C00E940A1CFE01E851FC47E7304E
:101FF000F10508F4E7C0F7018581882309F43AC1A7
:1020000010924903CE019057839708F00CC184E0E9
:1020100090E00E94EE2F9093E5028093E402FE018F
:10202000E150F047E232F10520F4EA5AFF4F0C94F8
:1020300048308091E4028160ACC08091E502886004
:10204000B4C08091E4028260A4C08091E40220C008
:102050008091E40288609DC08091E5021EC080915D
:10206000E5028260A2C08091E402806192C080910A
:10207000E40280628EC08091E40280648AC00E9483
:10208000551F8091E402806884C08091E4028860DA
:1020900084607FC08091E5028260816086C080910B
:1020A000E4028E7F76C08091E502877F7EC08091BA
:1020B000E4028D7F6EC08091E40220C08091E40232
:1020C000877F67C08091E5021EC08091E5028D7F09
:1020D0006CC08091E4028F7E5CC08091E4028F7DB1
:1020E00058C08091E4028F7B54C00E94551F80919C
:1020F000E4028F774EC08091E402877F8B7F49C0D6
:102100008091E5028D7F8E7F50C08091E40282FB3A
:10211000222720F991E0922790FB82F990FB83F926
:1021200038C08091E502982F909591708E7F892B11
:1021300090FB81F93AC08091E40286FB222720F9C6
:1021400091E0922790FB86F924C00E94551F809150
:10215000E40287FB222720F991E0922790FB87F980
:1021600018C061E001C060E08EE090E00E940430A1
:102170001EC08091E40284FB222720F991E092277F
:1021800090FB84F906C08091E402982F909590FB13
:1021900080F98093E4020BC08091E50283FB222743
:1021A00020F991E0922790FB83F98093E5026091FA
:1021B000E4027091E50284E090E00E9422300E94E7
:1021C000551F46C0E858FF4F0C94483006E221EEF8
:1021D00041EE6AE17CE705C007E225EE45EE6BE1E2
:1021E0007CE7C7010E94591833C006E221EE40EE99
:1021F00068E17CE7F6CF07E225EE44EE69E17CE793
:10220000F0CF06E221EE42EE6CE17CE7EACF07E296
:1022100025EE46EE6DE17CE7E4CF08E221E045EEF5
:102220006EE17CE7DECFC631FCE7DF0791F58091F8
:1022300035038A7A91E009F490E090932D0381119F
:10224000CAC269E288E593E00E94E4170E940A1C72
:102250008091C103877009F41EC3F701858188232B
:1022600009F419C38091E50282FF15C382E00E9440
:10227000121F11C3C6312CE7D20709F4F8C28091AE
:1022800035038272FE01E052F847E531F10508F4AA
:10229000A4C2F70185818823D9F1C330FCE7DF07A9
:1022A00021F140F4C1158CE7D80789F0C130DC4733
:1022B00011F12EC0CB35ECE7DE0739F1CC35FCE768
:1022C000DF07D9F0CA35DC4719F581E01FC00E944D
:1022D000551F8FEF94E3ECE081509040E040E1F730
:1022E00000C000000E942E17B3CF6FEF7FEF80E099
:1022F00090E00E9422300E94720E8091E50282FBE3
:10230000882780F991E0892701C080E00E94291F79
:10231000F7018581C081D181882349F0CE010E94D7
:10232000A91C182F682FCE010E94C71E04C0CE0121
:102330000E94941E182FBE01812F0E941B230E9411
:102340006D1AD82FC92FC82EF70115810681029565
:102350000F708091C103877001F11123F1F0892F73
:10236000807F803469F080E28D0F8830B0F0892F53
:10237000807E803229F4F1E0FD1778F4002369F0C3
:102380008091E50282FF09C082E00E94121F8091C5
:10239000C1038770DD24D3948111D12CBC2EB2945B
:1023A0008FE0B8228B2D90E08C30910508F0EBC1C6
:1023B000FC01E158FF4F0C9448308C2F807FCF7088
:1023C000882311F0C295C07F1123B9F0CC2309F402
:1023D000C8C180E28D0F883010F0C11006C0909106
:1023E0003503C92BC093350305C090913803C92B21
:1023F000C09338030E940A1CB4C18D2F0E94372C51
:10240000CC2309F4C0C1D05ED83088F1CC2079F15A
:10241000C09590913803C923C09338032BC08C2FEB
:10242000807FCF70803211F0C295C07F8D2FCC207D
:1024300029F021E0C21609F44CC055C08091E50294
:1024400082FD1BC0112369F0CC2339F09091350334
:10245000C92BC09335030E940A1C80E00E94732C94
:1024600092C180E00E94372CCC2309F48CC18C2FC0
:102470000E94031C0E940A1C86C1112381F00023C4
:10248000B1F1013009F07FC1909107038C2F8923AE
:10249000C81709F478C1C92BC093070374C101118F
:1024A00072C18C2F0E947C1F809107039C2F982360
:1024B00029F09C2F909589238093070380912E0308
:1024C0009C2F982309F45FC1C0958C2380932E0321
:1024D0005AC1112321F0063008F055C108C005305B
:1024E00008F051C10AC0112331F001113AC18C2FFB
:1024F0000E94831F48C1011138C18C2F0E947C1F8C
:1025000042C18C2F86958695837019F0813061F0D9
:102510003AC1112321F08D2F9C2F937002C080E0CF
:1025200090E00E94231835C1112321F08D2F9C2F9C
:10253000937002C080E090E00E94FE172AC1612FD4
:102540008D2F0E944B2B25C18C2F837009F041C029
:1025500011111DC12D2F229526952770220F220FB4
:102560008D2F8F7090E0022E02C0880F991F0A9461
:10257000E2F7D4FF0BC04FE050E002C0440F551FFC
:102580002A95E2F79A012095309502C020E030E0CC
:10259000C695C695C370C23099F068F440910303A4
:1025A00050910403C13029F0822B932B842395236F
:1025B00004C0842B952B822B932B0E94501FE7C0C5
:1025C000822B932B209103033091040382279327BE
:1025D000F4CF112319F08C2F817001C086958823C8
:1025E00009F4D5C02D2F229526952770220F220F92
:1025F0008D2F8F7090E0022E02C0880F991F0A94D1
:10260000E2F7D4FF0BC04FE050E002C0440F551F6B
:102610002A95E2F79A012095309502C020E030E03B
:10262000C695C695C370C23079F0B8F440910503E1
:1026300050910603C13029F0822B932B84239523DC
:102640000EC0842B952B09C0822B932B2091050360
:10265000309106038227932702C0822B932B0E947E
:10266000FB1E95C0CF70112339F08C2F0E94401FA4
:102670008D2F0E94831F8BC08D2F0E947C1F8C2F5B
:102680000E94001F84C08D2FF2EFCF1689F1FC1538
:1026900038F020EFC21659F091EFC91621F15DC054
:1026A000E3EFCE1661F1F4EFCF16C9F056C0112357
:1026B00091F0053008F067C0CF7181E090E002C072
:1026C000880F991FCA95E2F7209105033091060300
:1026D0008227932721C0063008F055C0EDCF8091A6
:1026E000E50282FD1CC0112329F08C2F8F7129C0B7
:1026F0001123D9F38C2F8F710E94001F44C0112326
:1027000049F0CF7181E090E002C0880F991FCA950F
:10271000E2F702C080E090E00E94FB1E34C011236B
:1027200099F0CF718C2F0E94401F8091E50282FFAB
:1027300007C028E0C29FC001112483608093C103B9
:102740008C2F0E94401F1FC081E00E94121F023088
:10275000D0F082E00E94121F16C0112321F0002346
:1027600021F28D2F7BCE002329F2893349F48FEF9C
:1027700097EEE3E081509040E040E1F700C00000B8
:102780008D2F0E94372C88EF8B0D843010F40E941F
:102790004818DD20A9F08091C10380FD11C0F70128
:1027A00015828695869586950E94401FC7010E94D6
:1027B000330F8091C1038695869586950E94001FF0
:1027C00020E0F7014081518162817381848195818C
:1027D0000E944D0E60C065E335CDE557FF4F0C9468
:1027E00048309091FB0481E089278093FB0410928C
:1027F00065018091FA0481608093FA0429CD46E056
:1028000056E260E176E22CC040E156E266E076E214
:1028100027C042EF55E26CEF75E222C04CEF55E263
:1028200062EF75E21DC048ED55E265EE75E218C035
:1028300045EE55E268ED75E213C04EEB55E26BECE8
:1028400075E20EC04BEC55E26EEB75E209C049E44F
:1028500055E267E575E204C047E555E269E475E2D3
:102860000E94461AF5CC81E00E946728F1CC809145
:102870002D0381110EC089E2E8E5F3E02EE533E097
:102880009281891301C0128231962E173F07C1F73A
:10289000DDCC85E3F1CFCDB7DEB7E9E00C94BB2FFB
:1028A0002091E4003091E50095E64091EC00842F02
:1028B000817040FF23C08091E80080FD1DC08091A1
:1028C000F004882399F0853099F08091EB0085FD24
:1028D00011C04091E4005091E5002417350729F319
:1028E000915011F09A01E1CF84E0089582E00895BB
:1028F00083E0089581E0089580E008954091E80024
:1029000042FFDDCF089508958091E50408950F9367
:102910001F93CF93DF938B01EA019091F0049430E1
:1029200079F58F708093E9008FEF9091E8008150E6
:1029300095FD06C095ED9A95F1F700008111F5CF50
:102940008091E80085FF1CC00E945014882361F02C
:102950008091E8008E778093E80012C0F8018191A1
:102960008F018093F1002197209791F38091E800E7
:1029700085FDF4CF8091E8008E778093E800E4CF66
:10298000DF91CF911F910F91089543E050E0BC017A
:1029900082E00E948714089546E050E0BC0182E086
:1029A0000E9487140895CF93DF93EC0148E050E034
:1029B000BC0181E00E94871488E0FE01A6EEB4E02D
:1029C00001900D928A95E1F7DF91CF9108951F92C2
:1029D0000F920FB60F9211242F933F934F935F9353
:1029E0006F937F938F939F93AF93BF93CF93DF9317
:1029F000EF93FF93C091E900CF708091EC00D82F46
:102A0000D17080FDD0E81092E9008091F000877FBE
:102A10008093F00078940E9489281092E9008091B8
:102A2000F00088608093F000CD2BCF70C093E90058
:102A3000FF91EF91DF91CF91BF91AF919F918F91D6
:102A40007F916F915F914F913F912F910F900FBEAA
:102A50000F901F901895E8EDF0E080818E7F8083C5
:102A60001092E2001092DA001092E100A0EEB0E0C5
:102A70008C9181608C9380818F77808319BCA7EDC6
:102A8000B0E08C918E7F8C9380818F7E80831092BA
:102A9000570308958091F20487FF11C08091E800E8
:102AA00082FD05C08091F0048111F8CF11C08091A2
:102AB000E8008B770BC08091F004882349F0809167
:102AC000E80080FFF8CF8091E8008E778093E800DF
:102AD0000895982F973068F59093E900981739F08A
:102AE0007091EC002091ED005091F00003C0242F74
:102AF000762F50E021FD02C09F5FECCF3091EB00BC
:102B00003E7F3093EB003091ED003D7F3093ED0040
:102B10003091EB0031603093EB007093EC00209328
:102B2000ED005093F0002091EE0027FDE5CF80E00E
:102B300008958F708093E90081E00895A0E0B0E0EF
:102B4000E4EAF5E10C94A02FC8EDD0E088818F7EF7
:102B50008883E7EDF0E080818160808384E082BF3C
:102B600081E08093570388818E7F888302EE10E096
:102B7000F80110821092DA0081EEC82ED12CF601F5
:102B8000108288818F778883888180688883888194
:102B90008F7D888319BC1092F0041092F10410927A
:102BA000EF041092EE0490EEE92EF12CF7018081F3
:102BB0008B7F808388818160888342E060E080E051
:102BC0000E946915F60180818E7F8083F8018081E3
:102BD00081608083808188608083F70180818E7F1F
:102BE0008083888180618883CDB7DEB7E8E00C946C
:102BF000BC2F1F920F920FB60F9211242F933F9369
:102C00004F935F936F937F938F939F93AF93BF93F4
:102C1000EF93FF938091E10082FF09C08091E20071
:102C200082FF05C08091E1008B7F8093E10080915D
:102C3000DA0080FF2AC08091D80080FF26C08091F2
:102C4000DA008E7F8093DA008091D90080FF18C06F
:102C500080E189BD82E189BD09B400FEFDCF81E03C
:102C60008093F0048091570381110FC00E942B15AF
:102C70000E949E158091E20084608093E20005C06E
:102C800019BC1092F004109257038091E10080FF6C
:102C900017C08091E20080FF13C08091E2008E7F18
:102CA0008093E2008091E20080618093E200809155
:102CB000D80080628093D80019BC85E08093F0042E
:102CC0008091E10084FF30C08091E20084FF2CC03D
:102CD00080E189BD82E189BD09B400FEFDCF80910C
:102CE000D8008F7D8093D8008091E1008F7E809303
:102CF000E1008091E2008F7E8093E2008091E2000B
:102D000081608093E2008091F104882311F084E0D7
:102D100007C08091E30087FD02C081E001C083E02D
:102D20008093F0048091F0048091E10083FF27C03C
:102D30008091E20083FF23C08091E100877F809330
:102D4000E10082E08093F0041092F1048091E100B0
:102D50008E7F8093E1008091E2008E7F8093E2007D
:102D60008091E20080618093E20042E060E080E0D8
:102D70000E9469158091F00088608093F000FF91B7
:102D8000EF91BF91AF919F918F917F916F915F91E3
:102D90004F913F912F910F900FBE0F901F9018955C
:102DA0002091F8043091F9042617370748F061158F
:102DB000710539F42091E8002E772093E80001C0D6
:102DC000B901FC0120E06115710579F18091F004F1
:102DD0008823F1F18530F1F18091E80083FD3CC05A
:102DE0008091E80082FD2EC08091E80080FFEBCF4B
:102DF0002091F3008091F20090E0922B6115710513
:102E000051F08830910538F421912093F100615000
:102E100071090196F3CF21E0089709F020E0809135
:102E2000E8008E778093E800CECF2111CFCF0AC083
:102E30008091F004882361F0853061F08091E80092
:102E400083FD0AC08091E80082FFF2CF80E0089500
:102E500082E0089583E0089581E0089581E0809301
:102E6000E00080E28093D8001092C9008FE19EE4D8
:102E70000197F1F700C0000087E090EBDC01809340
:102E80000E0790930F07A0931007B09311079CE0D3
:102E900088E10FB6F894A895809360000FBE9093D8
:102EA0006000FFCF78941F920F920FB60F921124FB
:102EB0008F939F93AF93BF9380915303909154034B
:102EC000A0915503B09156030196A11DB11D8093A9
:102ED000530390935403A0935503B0935603BF91AB
:102EE000AF919F918F910F900FBE0F901F901895EB
:102EF000CF92DF92EF92FF922FB7F894C0905303D6
:102F0000D0905403E0905503F09056032FBFA701D3
:102F10009601261B370B480B590BCA01B901FF90CC
:102F2000EF90DF90CF9008959C014FB7F894809177
:102F3000530390915403A0915503B09156034FBF92
:102F4000821B930B08952FB7F894609153037091EF
:102F5000540380915503909156032FBF08952FB7C6
:102F6000F8948091530390915403A0915503B0912C
:102F700056032FBF08951F920F920FB60F92112480
:102F80008F939F93AF93BF9380915203811113C08E
:102F90008091530390915403A0915503B09156032F
:102FA0004196A11DB11D8093530390935403A093A8
:102FB0005503B0935603BF91AF919F918F910F909E
:102FC0000FBE0F901F9018959C01FC0132969FEF49
:102FD00080E04191461789F09F3F19F4411101C0EB
:102FE000982F8F5F8630A9F79F3F39F0F901E90FDD
:102FF000F11D97FDFA95628308950895A3E0B0E06E
:10300000E4E0F8E10C94A62F209150033091510395
:1030100028173907A1F09093510380935003E09152
:103020004E03F0914F03309751F024E029839B83A6
:103030008A830084F185E02DCE01019609952396BF
:10304000E2E00C94C22FA3E0B0E0E9E2F8E10C94D6
:10305000A62F20914C0330914D0328173907A1F07A
:1030600090934D0380934C03E0914E03F0914F03F6
:10307000309751F023E029839B838A830084F18574
:10308000E02DCE01019609952396E2E00C94C22F23
:1030900080914A03882359F0E0914E03F0914F0349
:1030A000309729F00190F081E02D0995089580E096
:1030B00008950F931F93CF93DF93C42FD22FFC015A
:1030C00085818823B1F0409349030E94AF17909304
:1030D00048038093470380E28C0F883008F068C073
:1030E000C77081E001C0880FCA95EAF70E94831F6C
:1030F0005FC08091490348133DC080914703909180
:1031000048030E949417883C9105A0F510E21D0F1A
:10311000CD17E9F080E28C0F883040F4C77081E071
:1031200001C0880FCA95EAF70E947C1F183078F515
:1031300081E09D2F977001C0880F9A95EAF70E9451
:10314000831F093351F560E570E089E329C0093335
:1031500019F460E570E002C060E070E0802F0E942A
:103160008D1F183028F5D77081E001C0880FDA95DF
:10317000EAF70AC080E28C0F8830D0F4C77081E093
:1031800001C0880FCA95EAF70E947C1F11C009335D
:1031900051F460E570E089E309C060E070E0802FE1
:1031A0000E948D1FE0CF60E070E0802F0E948D1F95
:1031B000DF91CF911F910F9108950E94AF17209139
:1031C0004303211104C020914403222321F0909352
:1031D000400380933F0320914503211104C02091B7
:1031E0004603222321F090933E0380933D03E09118
:1031F0004E03F0914F03309749F082E080934103F2
:103200000680F781E02D81E493E00995089580918F
:103210003C0380FD16C081FD16C082FD18C0809160
:103220003B03882391F0883290F428E0829FC0010C
:10323000112468E270E00E943430862F672B29F059
:1032400007C082E0089584E0089581E0089588E051
:10325000089580913C0380FD14C081FD14C082FD5F
:1032600016C080913A03882381F08E3180F420E5E6
:10327000829FC00111246EE170E00E943430862FDD
:10328000089584E1089588E2089588E0089580E52E
:103290000895282F35EB2303C001112497FF03C0A5
:1032A0008058910902C080589F4F892F0895FC01D2
:1032B000680F791F8FEF91E3E617F70771F02191FF
:1032C000822728E030E087FF03C0880F892701C0EC
:1032D000880F21503109B9F7EFCF08958091390354
:1032E000882349F0809138038D7D809338030E94B4
:1032F0000A1C1092390308958091390381110FC07F
:10330000109235030E94FD1B0E94AF1788579C4EF8
:10331000909337038093360381E0809339030895B7
:10332000EF92FF920F931F93CF93DF9320910C079F
:1033300030910D0726503540A901460F571F4130E7
:10334000524020F060E072E0621B730BC0910405F4
:10335000D0910505D901AA5FBA4FA901620F731F69
:1033600001E010E046175707E8F4FA01E21BF30BFF
:10337000E80FF91FE491FC91EF1781F0EC93FA014B
:10338000689414F8F695E7951694E1F7780102C071
:10339000EE0CFF1CEA95E2F7CE29DF294F5F5F4F65
:1033A0001196E0CFD0930505C0930405CDB7DEB7E5
:1033B000E6E00C94BE2FEF92FF920F931F93CF93F2
:1033C000DF93EC017B0164E670E088E70E94D82C73
:1033D0008C01EC0EFD1ECE15DF0541F40E94C22DBE
:1033E00081E00115110569F080E00BC017FDF6CFF3
:1033F000FE01849164E670E00E944B2D8C012196C1
:10340000EACFCDB7DEB7E6E00C94BE2F809134034F
:1034100090913303882389F0992369F062E070E08A
:1034200082EA94E00E94DB19811103C0809133038A
:103430000895109233039091330381E08927089512
:10344000809134038823F9F00E94A317DC01CB019B
:10345000805A9541AF4FBF4F80932F039093300315
:10346000A0933103B09332038091330381110BC0D9
:1034700062E070E080EA94E00E94DB19882319F092
:1034800081E080933303809133030895882311F002
:10349000FA0101C0FB01099508952091C0039091A4
:1034A000870357E02917A9F030E0529FF001539F9E
:1034B000F00D1124E857FC4F7181761306C070811E
:1034C000781303C07581741306C02F5F3F4F2770B8
:1034D000E9CF80E0089581E008951F93CF93DF93B3
:1034E0000E947F22EC01C11580E5D807E8F5C115DF
:1034F00090E4D90708F0A8C0C03ED10530F5CD3C16
:10350000D10508F094C0C83AD10578F4C53AD10580
:1035100008F083C0C130D10509F47CC008F4F2C0C2
:10352000C430D10508F0F1C0EDC0C33CD10508F0AE
:10353000E9C0C85AD0E0CC0FDD1FC157DE4F09905B
:10354000D881C02DCE019464E1C0C11580E2D807B6
:1035500008F0CBC0C11591E0D90708F06BC0C83E98
:10356000D10508F4D2C0CEC0C03682E5D80728F510
:10357000C03492E5D90708F079C0C03282E5D80797
:1035800008F06CC0C11592E5D90708F481C04C2F32
:103590004695469580E2489FA0011124C37021E022
:1035A00030E0C90102C0880F991FCA95E2F7EA010D
:1035B000C82BD92BCE019D68A9C0C03A82E5D80797
:1035C000B8F48C2F8F71C03892E5D90708F07BC012
:1035D0008695869590E2899F90011124C37081E0C1
:1035E00090E002C0880F991FCA95E2F79A6868C0F8
:1035F000C03C82E5D80708F46DC0C03E92E5D9070B
:1036000008F080C0CF71DD27DC2FCC27CE01806F82
:10361000906A7CC081E090E079C0C55AD0E0C45780
:10362000DE4F8881C82FD0E0CE0190646FC0CE01FC
:1036300090656CC08D2F0E943022182FCE019927E3
:103640000E947F221F715CC0CE0199270E947F22B9
:10365000CC27DF70D06A8C2B9D2B58C0CF71D0E067
:10366000DC2FCC27CE01816F906A50C08C2F8F71D8
:103670008695869590E2899F90011124C37081E020
:1036800090E002C0880F991FCA95E2F79C6818C0A5
:103690008C2F8F710E94302295E0D695C7959A9510
:1036A000E1F7CF70D0E0DC2FCC27282F30E084FF6B
:1036B00005C084E0220F331F8A95E1F7D069CE015F
:1036C000822B932B23C090E0D82FCC27CE01846F80
:1036D000906A1CC08C2F8F710E9430228F7190E0F5
:1036E000D82FCC27CE01906211C08D2F8F710E94F0
:1036F0003022182FCE0199270E947F221F719062DD
:10370000912B04C080E090E001C0CE01DF91CF9109
:103710001F9108950E94CE210895A8E0B0E0E3E94A
:10372000FBE10C94A62F66EE7EEF80E090E00E9415
:10373000223060E082E090E00E94043081E090E07E
:10374000909304038093030361E083E090E00E9480
:10375000043060E074E184E090E00E94223060E098
:1037600086E090E00E9404306FEF87E090E00E94D6
:10377000043040E050E0BA0188E090E00E9416304A
:1037800060E084E290E00E94043060E087E190E035
:103790000E94043060E08CE090E00E94043060E021
:1037A0008DE090E00E94043019821A821B821C82F4
:1037B0001D821E821F82188648E050E068E170E09A
:1037C000CE0101960E94F42F40E050E0BA0180E261
:1037D00090E00E94163040E050E0BA018FE090E0A7
:1037E0000E94163040E050E0BA0183E190E00E9470
:1037F00016302896E2E00C94C22F809107038111C5
:103800001092070308958095909135038923809342
:1038100035030895CF93C091350380913803C82BA9
:1038200080910703882379F0C82BEAE5F3E097E05D
:1038300080E0915029F021912223D9F38F5FF9CFB5
:1038400081110E94FD1BC093580348E050E062ECD8
:1038500073E088E593E00E944E30892BA9F088E060
:10386000E8E5F3E0A2ECB3E001900D928A95E1F770
:10387000E0914E03F0914F03309731F00280F381D5
:10388000E02D88E593E00995CF9108958091C003DC
:1038900090918703891719F08F5F8770FBCF089588
:1038A000CF93DF938091860382958F7009F04EC08D
:1038B00080918503882309F449C08091C003409119
:1038C00087035091810360918003C0918203D0915E
:1038D000830377E08417D1F190E0789FF001799F1E
:1038E000F00D1124DF01A857BC4F14962C911497AA
:1038F000222349F111962C911197251324C02C9164
:10390000261321C015962C91159721111CC01296D3
:103910002D913C9113972C1B3D0B283C310598F4BD
:10392000809186038F70806180938603E257FC4FFD
:1039300080818F708061808380E893E00E94330FE4
:103940000E94461C03C001968770C4CFDF91CF91BF
:103950000895A0E0B0E0EFEAFCE10C949F2F7C0119
:1039600000910503109106038091030390910403D5
:10397000082B192BCFE0D0E0CC24C394D12CC60166
:103980000C2E02C0880F991F0A94E2F7802391231E
:10399000892B21F4219798F7B12C09C0BC2EB701CF
:1039A0008C2F0E941B230E946D1A019799F38B2D77
:1039B000CDB7DEB7E9E00C94BB2FCF93DF93EC01DA
:1039C0000E94A91CBE010E941B230E946D1ADF9158
:1039D000CF910895FC0124812223D9F08081918127
:1039E0000E94DD1C92959F70963079F010F49250F1
:1039F00001C09A50923068F4803F69F018F4883E14
:103A000040F409C0843F29F406C0883E20F0813F7D
:103A100011F080E0089581E00895A4E1B0E0E3E1D1
:103A2000FDE10C949C2F8C0186E0F801DE011F96CD
:103A300001900D928A95E1F7F8018481E58090E884
:103A4000892E93E0992E90918403911120C08823B0
:103A500009F463C1EE2009F442C0C8010E94EA1CC7
:103A6000F82E8823E1F187E0F801D40101900D924E
:103A70008A95E1F780918403813031F4809180034D
:103A8000909181030E94DD1C0E94501C48C1F801E6
:103A9000D080C180A280B380F09085032091820302
:103AA00030918303FF2009F4E7C0A501421B530BAB
:103AB000483C510508F09DC0882309F430C180912D
:103AC0008603282F207F90918103222361F09C158B
:103AD00009F460C0C8010E94EA1C811163C0C801DA
:103AE0000E94330F1AC19C1113C0909180039D1145
:103AF0000FC0E1100DC08F7080618093860380E855
:103B000093E00E94330F80918603F801868303C1FE
:103B1000E1103AC040E06C2D8D2D0E944D1A40E01E
:103B20006C2D8D2D0E944D1AE82E8111F4C0DF8678
:103B3000C88A8F8598890E94DD1C292F22952F70B5
:103B4000243020F49F70223028F009C02A502230FF
:103B500080F014C0992349F0811107C013C0992344
:103B600021F0F8019681907F69F0805E883030F412
:103B700009C0803F38F0815F833020F0C8010E9487
:103B8000330FEF2CFE2CCBC0809186038160809395
:103B90008603C1C0909180039D119CCFE1109ACF04
:103BA000F80198C0EE2009F49ACF20918603822F65
:103BB00082958F7090E002978CF0809180039091B5
:103BC000810399878887BB86AA86809184038C8726
:103BD0001D862E87CE0108960E94330F87E0F801DC
:103BE000A0E8B3E001900D928A95E1F70E94501C85
:103BF00094C090918603292F207F51F480E893E0B0
:103C00000E94330F87E0F40111928A95E9F783C08F
:103C1000882309F484C0809181038C110CC08091A9
:103C200080038D1108C0E11006C0F8019683C80119
:103C30000E94330F6AC0C8010E94EA1C882309F45D
:103C40004ECFEE2009F44BCF20918603822F829530
:103C50008F7090E0029714F280918003909181031D
:103C60009A838983BC82AB82809184038D831E8278
:103C70002F83CE010196B0CFA21AB30AF8ECAF168B
:103C8000B10408F042C0882309F447C0FE2CEE209E
:103C900009F425CF809181038C1129C08091800384
:103CA0008D1125C09091860390FD18C0892F8295B3
:103CB0008F70282F30E02115310581F0F8019683AF
:103CC0002F30310541F08F5F982F9295907F86813C
:103CD0008F70892B8683C8010E94330F87E0F8011B
:103CE000A0E8B3E001900D928A95E1F718C0C801F1
:103CF0000E94EA1C811172CF8091860381608093BB
:103D00008603C8010E94330F0AC087E0F4011192B4
:103D10008A95E9F704C0F12C02C0FF24F3948F2D9B
:103D20006496ECE00C94B82F9A3078F5863068F5FC
:103D3000E82FF0E086E0989FE00DF11D11249E2F02
:103D4000977083E0F695E7958A95E1F7EE0FFF1FF0
:103D5000EE0FFF1FE05AFC4F40E050E080E0219161
:103D600030E0092E02C0369527950A94E2F72170BB
:103D70003327042E01C0220F0A94EAF7822B4F5FEB
:103D80005F4F4430510559F7089580E008959A3007
:103D900088F5863078F5E82FF0E086E0989FE00D12
:103DA000F11D11248E2F877051E001C0550F8A95A7
:103DB000EAF783E0F695E7958A95E1F7EE0FFF1FA6
:103DC000EE0FFF1FE05AFC4F20E030E070E0408132
:103DD000CB01022E02C0969587950A94E2F7817076
:103DE000819584278523842781932F5F3F4F24303B
:103DF000310569F7089590930603809305030895AC
:103E000021E030E002C0220F331F8A95E2F72095AF
:103E100030958091050390910603822393230E949D
:103E2000FB1E08959091C103809589238093C1035F
:103E3000282F277069F4981759F09091E50292FFA6
:103E400007C08695869586950E94001F1092C10333
:103E500008959091E50292FB222720F9281779F026
:103E600080FB92F99093E5026091E4027091E50283
:103E700084E090E00E94223082E00E94121F0895A8
:103E800021E030E002C0220F331F8A95E2F78091D3
:103E9000050390910603822B932B0E94FB1E08952D
:103EA00090930403809303030895CF9310923503F6
:103EB000C6E0EAE5F3E0DF018C2F1D928A95E9F771
:103EC00080E090E00E94231880E090E00E94FE17BE
:103ED000109238030E940A1CE1E4F3E0DF011D9216
:103EE000CA95E9F710923A0310923B0310923C03F3
:103EF0000E94DD18CF910895882321F00E94031CB1
:103F00000E940A1C0895882339F090913503892B6B
:103F1000809335030E940A1C08951F93CF93DF936B
:103F2000182FEB010E94732C209741F08FE99FE03E
:103F30000197F1F700C000002197F6CF812F0E9472
:103F4000372CDF91CF911F910895A6E0B0E0EBEA06
:103F5000FFE10C94A42F0E94AF178C018091CA033B
:103F60009091CB030817190781F019821A820E94D9
:103F7000AF17682F49815A81792F80E090E00E9425
:103F8000880E1093CB030093CA032696E4E00C94AA
:103F9000C02F80E00895A0E0B0E0E1EDFFE10C94D7
:103FA0009E2F7C015B016A0180910E048A3018F01B
:103FB00001E010E002C00AE010E0C1E0D0E0B5018D
:103FC000C701F6010995811115C021960C171D072F
:103FD00094F0CC9F9001CD9F300D300D112480E0E6
:103FE00090E045E34A95F1F70000019682179307A8
:103FF000C1F7E5CF81E0CDB7DEB7EAE00C94BA2F88
:10400000A0E0B0E0E6E0F0E20C94A02FC82F7B0126
:10401000D42F6901FB0160817181828193810E94AB
:104020007817643671058105910510F4DD2339F1A7
:104030000C2E000CDD0B01151105A9F0FE0183E02B
:10404000EE0FFF1F8A95E1F7E15EFE4F81819281BD
:1040500089519C4F408150E00417150708F4A801CE
:10406000B6010E945B30CE010E94072F882341F0E9
:104070000E94A317F701608371838283938381E099
:10408000CDB7DEB7E8E00C94BC2FA1E0B0E0EBE4E4
:10409000F0E20C94A42F80913303898320910104D2
:1040A00030E090E041E02817390709F440E001E0F2
:1040B00010E09E012F5F3F4F6AE074E087E00E94AE
:1040C00000202196E4E00C94C02FA9E0B0E0EBE6DC
:1040D000F0E20C94A42F88E0EBEFF4E0DE011196FF
:1040E00001900D928A95E1F7198649E050E068EF5A
:1040F00073E0CE0101960E944E3041E0892B09F415
:1041000040E009E010E09E012F5F3F4F66E074E061
:1041100086E00E9400202996E4E00C94C02F0F93C3
:104120001F93CF93DF93EC0145E050E06DEE73E019
:104130000E944E3041E0892B09F440E005E010E098
:104140009E016FED73E082E00E940020DF91CF912D
:104150001F910F910895A1E0B0E0E1EBF0E20C9423
:104160009A2FC62E4A015901682E880F7708C3017D
:104170000E94072F882309F466C0C30123E0880F3B
:10418000991F2A95E1F7FC01E15EFE4F438150E063
:104190004115510511F041E050E0FC01E15EFE4F98
:1041A0006481758169517C4FCE0101960E945B301C
:1041B000F40160817181828193810E947817643655
:1041C00071058105910538F4B701C8010E9457199E
:1041D00099818917D1F10C2C000CDD08C6010E94D1
:1041E000072F782E8823E1F0E114F104C9F096013D
:1041F00083E0220F331F8A95E1F7F901E15EFE4F5C
:10420000438150E0E416F50608F4A701F901E15EE8
:10421000FE4F6481758169517C4FC5010E945B30FE
:10422000B701C8010E94571991E02981281390E035
:10423000D92ED72089F00E94A317F40160837183DF
:104240008283938309C0D12C02C0DD24D394A701BB
:10425000B801C5010E945B308D2D2196EEE00C94D3
:10426000B62FA1E0B0E0E7E3F1E20C949F2FEE243B
:10427000E394F12C03EF13E09E012F5F3F4F43EED9
:1042800053E064E083E00E94AB20B82E882309F459
:104290003DC000E080E09091D6020917A0F5D090D3
:1042A000D702D00E2D2D30E0A90145505D4F7A0187
:1042B000E1E0F0E0EC0FFD1FE00FF11D1081FA01CD
:1042C0009081191BC12E1C145CF4CA94F7018081E3
:1042D0008F5F808360E08D2D0E94180F81E0F3CF07
:1042E000912F17FD90E0191B112359F01F5FF70163
:1042F00080818150808361E08D2D0E94180F81E0C4
:10430000F3CF0F5FC8CF81110E948A1B8B2D21969E
:10431000E9E00C94BB2FA5E0B0E0E1E9F1E20C94F8
:10432000A02F6B0185E0E82EF12C08EE13E09E0132
:104330002F5F3F4F4BED53E061E080E00E94AB20E8
:10434000882349F095E0FE013196A6EDB3E0019097
:104350000D929A95E1F795E0E6EDF3E0D601019034
:104360000D929A95E1F72596E8E00C94BC2FF8940D
:10437000E82FE295EF70F0E031A1282F2F7081E057
:1043800090E001C0880F2A95EAF7982F9095932323
:1043900091A392A1892B82A3789408950F931F93E0
:1043A00080914A03882319F00E94A3170EC00E942F
:1043B000A3170091D2021091D3022091D402309120
:1043C000D502600F711F821F931F1F910F910895D7
:1043D000A4E0B0E0EEEEF1E20C94A62F60910204AE
:1043E0007091030480910404909105040E94781751
:1043F000643671058105910570F10E94CE21DC01C2
:10440000CB010296A11DB11D89839A83AB83BC8326
:10441000809148019091490189519C4F40914701F9
:1044200050E04530510510F044E050E0BE016F5FB0
:104430007F4F0E945B3085E090E00E94072F882329
:1044400059F00E94A31760930204709303048093B1
:1044500004049093050481E02496E2E00C94C22FBA
:104460009091E40292FF10C041E0282F2471243083
:1044700009F040E031E0282F2871283009F030E0C1
:10448000431711F02CE0822793FF10C041E0282F42
:104490002471243109F040E031E0282F28712831BF
:1044A00009F030E0431711F02CE082273091E5024B
:1044B00030FF10C051E0282F2171213009F050E069
:1044C00041E0282F2871283009F040E0541711F0FE
:1044D00029E0822731FF10C041E0282F21712131CE
:1044E00009F040E031E0282F2871283109F030E050
:1044F000431711F029E0822794FD877E08958238C2
:10450000910569F1B0F48133910509F475C048F45F
:104510008932910509F467C08A32910509F471C0A6
:1045200008958533910509F459C089339105B9F08F
:104530000895833E910589F138F4803E9105D1F0CC
:10454000823E910529F10895863E9105C9F1873E85
:104550009105D9F1843E910509F06CC027C02091E6
:10456000E40220FD57C021FD55C02091E50223FD46
:104570005BC008958091E40280FD48C08091E5020F
:1045800080FF48C08091E40284FD46C083EE51C0A4
:104590008091E40282FF3CC0F5CF8091E40282FD6D
:1045A00037C08091E50280FD35C0ECCF8091E502F7
:1045B00081FF36C08091E40284FD2EC087EE39C0B1
:1045C0008091E40283FF2AC0F5CF8091E40283FD4D
:1045D00025C08091E50281FD23C0ECCF8091E402EB
:1045E00085FD22C01FC08091E40285FD1BC0809123
:1045F000E50283FF19C00AC08091E40286FD16C05F
:1046000017C08091E40286FD13C010C089E311C079
:1046100082EE0FC080EE0DC080E00BC086EE09C0B8
:1046200084EE07C085E305C089E203C08AE201C0C9
:1046300081E390E008957A30B0F46630A0F48430DD
:10464000A0F49CE3899FF001112486E0789FE00D9F
:10465000F11D1124E60FF11DEE0FFF1FEC55FB4F6E
:1046600085919491089580E001C081E090E00895E3
:104670004F925F927F928F929F92AF92BF92CF9212
:10468000DF92EF92FF920F931F93CF93DF93CDB7FB
:10469000DEB72F970FB6F894DEBF0FBECDBF9E01D9
:1046A0002F5F3F4F79018AE0D9011D928A95E9F782
:1046B00000E011E096E0C92E91E0D92E77247394A2
:1046C000AA24A394B12C4E01B6E08B0E911CF801E4
:1046D00080818F3F09F447C0F894E82FE295EF708E
:1046E000F0E021A18F70A50102C0440F551F8A95EB
:1046F000E2F7CA01922F982B91A392A1809589236A
:1047000082A3789400C086E0482E81E0582EF701FD
:10471000472D4095D2018D912D018F3FA1F0282F7B
:1047200022952F7030E0D90190962C9130E08F7057
:10473000B90102C0759567958A95E2F760FD03C0DF
:104740008081872902C080818423808331968E16E0
:104750009F0601F7D8018C918F3F11F00E94B7217D
:10476000B0EABA95F1F7770C0F5F1F4FC016D1066C
:1047700009F0ADCF4AE050E0B70188ED92E00E9429
:104780004E30892B99F08AE0F701A8EDB2E0019054
:104790000D928A95E1F781E08093CE030E94AF17D6
:1047A0009093CD038093CC03D12C27C08091CE036E
:1047B0008823D1F30091E3028091CC039091CD0343
:1047C0000E949417059780F310E00A511D4F45E0B1
:1047D00050E068ED72E0C8010E944E30892B09F468
:1047E00027C185E0E8EDF2E0D80101900D928A95AD
:1047F000E1F7DD24D3941092CE0380914A03E09137
:10480000E3029E01255F3F4F7901882309F474C0BC
:1048100085E0D9011D928A95E9F70E2F10E00A5123
:104820001D4F80910E048A3048F44BE851E2B701E5
:10483000C8010E94CB1F882399F10AC08091CF0341
:104840009091D0030E949417843F914070F73AC032
:104850004FE850E2B701C8010E94CB1F882301F145
:1048600041E351E2B701C8010E94CB1F8823C1F088
:1048700048EE51E2B701C8010E94CB1F882381F0A6
:1048800045E650E2B701C8010E94CB1F882341F0E2
:1048900045E450E2B701C8010E94CB1F8111B5C0A9
:1048A00080910E048F3F19F08F5F80930E048091EA
:1048B0000E048A3008F4ABC00E94AF179093D00367
:1048C0008093CF038091D503882309F486C085E0C7
:1048D000F70111928A95E9F71092D503A091E202AF
:1048E000B0E0AA51BD4F85E0FE013B9601900D92CC
:1048F0008A95E1F781E072C00091E20210E00A516E
:104900001D4FF0E0EA51FD4F85E0A8EEB3E00190C5
:104910000D928A95E1F765E070E088EE93E00E94E1
:1049200057198093E70385E0EDEEF3E0D80101909D
:104930000D928A95E1F74091000350E06091FF02EB
:1049400070E065507D4FC7010E945B308B8580937E
:10495000F30361E070E0C7010E9457198093F203EE
:104960008090F4039090F503A090F603B090F703C5
:104970008091D1039091D203A091D303B091D4033D
:1049800088169906AA06BB06B1F08092D1039092D0
:10499000D203A092D303B092D4030E94A317861A25
:1049A000970AA80AB90A8092D2029092D302A092E2
:1049B000D402B092D50288E0E8EFF3E0ABEFB4E0C8
:1049C00001900D928A95E1F780910104882319F0F6
:1049D0000E94201A02C00E94061A80E08D292F969C
:1049E0000FB6F894DEBF0FBECDBFDF91CF911F9100
:1049F0000F91FF90EF90DF90CF90BF90AF909F907E
:104A00008F907F905F904F90089510920E04809148
:104A1000E20290E045E050E0B7018A519D4F0E94CC
:104A20004E3021E02093D503892B09F057CFD5CF05
:104A3000D12CE1CE30914B03311105C0823291056A
:104A400024F1829703C082329105FCF4FC01EE0F41
:104A5000FF1FDF01A80FB91FA85EBB4F11963C9145
:104A60001197361307C03C91341304C012963C9141
:104A7000321759F031E0309317048E0F9F1FFC015D
:104A8000E85EFB4F618340832283089510921704F0
:104A90000895EBEFF4E0248130E1231B08F420E0DB
:104AA00024838091FA0481608093FA040895EBEFE7
:104AB000F4E0248130E1230F08F42FEF2483809168
:104AC000FA0481608093FA0408959EE0899F802D06
:104AD0001124980F953408F094E420914B0322237D
:104AE00021F0933228F092E20895823208F482E2B3
:104AF0000895FF920F931F93CF93DF93182F062FE4
:104B0000F42EC0E0D0E02F2D402F612FCE010E9467
:104B10001A252196C434D105B1F7CDB7DEB7E5E04B
:104B20000C94BF2F80911704882339F1539A8BB1CD
:104B3000877F9BB198602FB7F894E8E1F4E034E008
:104B4000E43EF30789F0319148E09BB9000000C0D2
:104B500037FF8BB9330F000000C000C000C08BB915
:104B600000C04A9591F7EBCF2FBF8FE594E00197F6
:104B7000F1F700C00000109217040895EBEFF4E085
:104B8000438120E1421B08F440E08181628190E092
:104B90000E9476280895EBEFF4E0438120E1420F74
:104BA00008F44FEF8181628190E00E947628089599
:104BB000EBEFF4E0628120E1621B08F460E08181A8
:104BC000438190E00E9476280895EBEFF4E0628143
:104BD00020E1620F08F46FEF8181438190E00E9431
:104BE00076280895EBEFF4E0818190E043816281C3
:104BF00008970E9476280895EBEFF4E0818190E019
:104C00004381628108960E94762808958091FB0472
:104C100086958695815009F481E00E946728089561
:104C200081E00E94672808958F929F92AF92BF9271
:104C3000DF92EF92FF920F931F93CF93DF930E9427
:104C4000CE2160930F04709310048093110490930D
:104C500012043091FB04232F237021F0C32FC6953B
:104C6000C69501C0C0E020916501213091F028F087
:104C7000223099F12330E9F149C11092610160932A
:104C8000130470931404809315049093160481E028
:104C90002DC090916001C9130DC0832F837090E0E7
:104CA00040915F0150E021E08417950709F420E06E
:104CB000822F01C081E081708093630180910005A3
:104CC00090916201981709F442C08093620140E01C
:104CD00060E080E00E9479253AC0C0936001832F94
:104CE000837080935F010E94922583E08093650129
:104CF0000DC18091FA04882351F048E050E068E14A
:104D000070E08BEF94E00E94F42F1092FA048090F0
:104D1000130490901404A0901504B0901604809190
:104D20004A03882329F0C501B4010E94781706C000
:104D30000E94CE21681979098A099B0960317105A1
:104D40008105910508F4E2C010926501DFC0C11130
:104D50000AC080916301882349F140E060E080E06F
:104D60000E94792523C0C13009F0CAC08091610139
:104D70000E946525D92ED82F4091FC042091FD0476
:104D8000E091FE04F0E021112CC0EC57F94F149192
:104D9000012FF12EDD1508F49BC080914B03882371
:104DA00009F4A8C081E051E25D1508F480E090911B
:104DB00061019F5F90936101811110C082E0809337
:104DC000650180916301811109C0CC2309F48DCF65
:104DD0008091610181500E94652598C0C111F8CF72
:104DE00095C0E22EF12CEC57F94F3491F32FA32EFE
:104DF000B12C56E0459FC00111240FEF10E0B8011F
:104E00000E94822F5BEA5603C001579F900D112428
:104E1000840F911D840F911D982E990C980EA80156
:104E20004E195F094A9DC0014B9D900D5A9D900DF2
:104E30001124E92F299DA0011124452F5527D801C0
:104E4000A41BB50BAD014A9DD0014B9DB00D5A9DE1
:104E5000B00D1124A801491951094A018E9CA001E5
:104E60008F9C500D9E9C500D1124452F5527041BDF
:104E7000150B0A9D70010B9DF00C1A9DF00C11246E
:104E80004F2D6230710591F048F461157105E1F024
:104E900061307105B9F4432F3B2F16C064307105A2
:104EA00069F040F06630710579F00CC0432F392F5E
:104EB000EF2D0AC0392FEF2F4B2F06C0492FE32FBC
:104EC0003F2D02C0492FEB2F1E2F032FF42E62CF50
:104ED000ED2FF0E0DF01A557BD4F8C91909162015D
:104EE000982331F0212F4F2D602FCF010E941A25DA
:104EF000DF5F50CF81E093E49D1508F058CF56CF87
:104F0000809161018F5F8093610158CFDF91CF91D4
:104F10001F910F91FF90EF90DF90BF90AF909F9007
:104F20008F900895EBEFF4E085E08083809171012C
:104F300090917201A091730181839283A3838FE783
:104F400084838FEF858348E050E068E170E0CF0113
:104F50000E94F42F1092FA040895CF93DF93C0912A
:104F60000C07D0910D078A30B1F420910305CE01D2
:104F700086509540622F70E00E94822F281B822F5E
:104F800066E00E942830C82FC15008F48FC080E22C
:104F90000E94AD27F9CF8D30E9F4C650D54020915D
:104FA0000305622F70E0CE010E94822F281B822F02
:104FB0009E01280F311D2115324018F080E0C0E01D
:104FC000D0E0C80FD11DCA5FDA4FD0930D07C09350
:104FD0000C076CC096E0FE01A6E0B7E001900D92D0
:104FE0009A95E1F7803E30F086E0FE0111928A95B5
:104FF000E9F70BC0F6E08F9FB00111246A52774F9A
:1050000046E050E0CE010E94CD2FC0910C07D09118
:105010000D0746E050E0BE0186E097E00E944E306A
:10502000892B49F19E0126503540A90185E056950E
:1050300047958A95E1F781E090E0BC0102C0660FD8
:10504000771F4A95E2F74091040550910505462BDC
:10505000572B2B5F3F4F65E0369527956A95E1F713
:1050600002C0880F991F2A95E2F7842B952B909305
:105070000505809304059E012050354040910305AD
:10508000642F70E0C9010E94822F481B463010F443
:10509000240F311D211582E0380710F020E030E0A8
:1050A0002A5F3A4F30930D0720930C07DF91CF9181
:1050B0000895CF93DF93EC01FE018491882321F0C2
:1050C0000E94AD272196F8CFDF91CF91089580916E
:1050D000FB04837051F084608093FB04109265019F
:1050E0008091FA0481608093FA0408959091FB0402
:1050F000937071F08093FC046093FD04413808F0D4
:1051000040E84093FE048091FA0481608093FA04A1
:105110000895AAE2B0E0EFE8F8E20C94A52FE2EFE0
:10512000F4E08AEF94E02091F10021938E179F071D
:10513000D1F78091F304833009F461C030F48130F9
:1051400071F0823009F49BC0B2C08A3009F487C084
:105150008B3009F46CC0893009F0A9C020C080915F
:10516000F204813A09F0A3C08091E800877F809320
:10517000E8008091F6049091F704892B21F468E00F
:1051800086EE94E003C060E080E090E070E00E9472
:10519000D0168091E8008B778093E80088C08091DA
:1051A000F204813209F083C08091F6049091F704F3
:1051B000029708F07CC08091E800877F8093E80028
:1051C0008091E80082FD05C08091F0048111F8CF44
:1051D0006EC02091F3008091F20090E0922B029734
:1051E00031F48091F100813011F0863021F480910A
:1051F000F1008093E5048091E8008B7754C08091A2
:10520000F204813A09F053C08091F6049091F704BA
:10521000892B09F04CC08091E800877F8093E800DB
:105220008091E80080FFFCCF8091640137C08091BD
:10523000F2048132E1F58091F6049091F704892B14
:10524000B1F58091E800877F8093E8000E944A15BD
:105250008091F404809364010E94551F28C08091BE
:10526000F204813221F58091E800877F8093E80085
:105270000E944A158091F5048093E40418C080913F
:10528000F204813AA1F48091E800877F8093E800DE
:105290008091E80080FFFCCF8091E4048093F100CE
:1052A0008091E8008E778093E8000E944A158091F3
:1052B000E80083FFCEC18091F2049091F304492F5E
:1052C00050E04A30510508F0C4C1FA01E056FF4FE2
:1052D0000C944830803821F0823809F0BAC108C0F7
:1052E0008091EE049091EF04992389F082600FC0C1
:1052F0008091F6048F70873008F0ABC18093E9008D
:105300008091EB0085FB882780F91092E90090914D
:10531000E800977F9093E8008093F1001092F100ED
:1053200065C1282F2D7F09F094C1882319F08230A0
:1053300061F08FC18091F404813009F08AC193300B
:1053400009F080E08093EF042EC08091F404811175
:105350002AC08091F6048F702FEF280F263008F0B6
:1053600078C18093E9002091EB0020FF1CC09330AE
:1053700021F48091EB00806214C09091EB00906169
:105380009093EB0021E030E0A90102C0440F551FCB
:105390008A95E2F74093EA001092EA008091EB00D0
:1053A00088608093EB001092E9008091E800877F8D
:1053B00020C181114EC11091F4041F778091E30048
:1053C0008078812B8093E3008091E800877F809331
:1053D000E8000E944A158091E80080FFFCCF809190
:1053E000E30080688093E300111102C082E001C0F5
:1053F00083E08093F0042DC18058823008F029C1E9
:105400008091F4049091F5048C3D53E0950779F573
:1054100083E08A838AE289834FB7F894DE0113968A
:1054200020E03EE051E2E32FF0E050935700E4919A
:1054300020FF03C0E295EF703F5FEF708E2F90E08A
:10544000EA3010F0C79601C0C0968D939D932F5FF0
:10545000243149F74FBF8091E800877F8093E800AF
:105460006AE270E0CE0101960E94D016AEC0409173
:10547000F6045091F704292F332723303105A9F082
:1054800068F42130310509F4F3C02230310509F008
:10549000E0C08BE390E0E3E4F8E044C02132310562
:1054A00021F12232310571F1D4C099278130910563
:1054B000A1F058F0029709F0CCC0E0E9F8E0E491DF
:1054C0008E2F90E0E0E9F8E02AC0E2EDF8E0E49108
:1054D0008E2F90E0E2EDF8E022C0E8EBF8E0E491F6
:1054E0008E2F90E0E8EBF8E01AC04115510509F461
:1054F000C4C04130510509F0ACC089E090E0EEE64F
:10550000F8E010C04115510509F4BCC04130510507
:1055100009F09FC08BE790E0E4E8F7E003C0009754
:1055200009F497C02091E800277F2093E80020919C
:10553000F8043091F9048217930708F49C0140E0C5
:105540002115310589F18091F004882309F43DC0CB
:105550008530D9F18091E80083FD37C08091E80063
:1055600082FD2FC08091E80080FFEACF4091F300D8
:105570008091F20090E0942B2115310559F088308C
:10558000910540F444914093F10031962150310946
:105590000196F2CF41E0089709F040E08091E800E1
:1055A0008E778093E800CCCF4111CDCF0AC0809197
:1055B000F004882351F0853041F08091E80083FDAC
:1055C00004C08091E80082FFF2CF8091E8008B77E1
:1055D0008093E8003EC08038E1F58091E800877F45
:1055E0008093E8008091F1048093F1008091E800BD
:1055F0008E778093E8000E944A152BC0811129C044
:105600008091F4049091F5049927029714F5809104
:10561000E800877F8093E8001091F4041093F10470
:105620000E944A15111106C08091E30087FD02C057
:1056300081E001C084E08093F00442E061EC81E00D
:105640000E94691542E261EC82E00E946915809136
:10565000F0048091E80083FF1AC08091E800877F02
:105660008093E8008091EB0080628093EB000FC094
:1056700082E190E0EEE7F8E055CF89E090E0E5E5E3
:10568000F8E050CF84E490E0EFEFF7E04BCFAA963C
:10569000E3E00C94C12F90914303662309F470C09A
:1056A00091110CC090914403911108C09091460350
:1056B000911104C090914503992331F098E09093A3
:1056C0003A0391E090933B038D3C21F40E94291909
:1056D000819504C08E3C29F40E94291980934403CB
:1056E000C3C08F3C21F40E942919819504C0803DDC
:1056F00029F40E94291980934303B6C0893D19F407
:105700000E94071905C08A3D31F40E94071981954E
:1057100080934503A9C08B3D21F40E940719819510
:1057200004C08C3D29F40E940719809346039CC055
:105730009FE2980F983078F421E030E0A90102C090
:10574000440F551F9A95E2F7CA0190914203892BA5
:105750008093420389C08D3D21F480913C03816098
:105760000CC08E3D21F480913C03826006C08F3DC9
:1057700009F07AC080913C03846080933C0374C03C
:105780008D3C39F49091440397FF33C01092440349
:1057900057C08E3C29F4909144031916BCF329C0DC
:1057A0008F3C29F497FF25C01092430349C0803DE8
:1057B00019F41916CCF31DC090914503893D29F4C5
:1057C0001916BCF4109245033BC08A3D19F497FFAB
:1057D00010C0F8CF8B3D39F49091460397FF09C074
:1057E000109246032DC08C3D21F49091460319166A
:1057F000BCF39FE2980F983080F421E030E0A901DB
:1058000002C0440F551F9A95E2F7CA018095909106
:10581000420389238093420313C08D3D21F480917C
:105820003C038E7F0BC08E3D21F480913C038D7F25
:1058300005C08F3D29F480913C038B7F80933C030E
:1058400080914303811106C080914403811102C0FD
:1058500010923A0380914503811106C0809146035E
:10586000811102C010923B030E94DD180895882325
:10587000C9F19CEF980F913A60F4E8E5F3E092816A
:10588000891301C01282319693E0EE35F907B9F71A
:105890000DC090E2980F983060F4877091E001C0DD
:1058A000990F8A95EAF7892F0E94031C0E940A1C0F
:1058B00008959BE5980F933028F480E090E00E94D3
:1058C0002318089598E5980F9B3128F480E090E024
:1058D0000E94FE17089593E3980F933118F460E047
:1058E0000E944B2B0895CF93882309F459C0C82FE9
:1058F0008CEF8C0F813AF8F4EAE5F3E080E693E070
:105900002191C21721F08E179F07D1F70EC0E8E54D
:10591000F3E08EE593E02281C21301C0128231963A
:105920008E179F07C1F70E940A1C6C2F88E593E031
:105930000E94E41710C080E28C0F883078F4C770A2
:1059400081E090E001C0880FCA95EAF79091350395
:10595000892B809335030E940A1C22C0EBE5EC0FD3
:10596000E33040F4F0E0E457FE4F808190E00E9485
:10597000231816C0E8E5EC0FEB3150F4F0E0EE0F21
:10598000FF1FE157FE4F808191810E94FE1708C0E2
:1059900083E38C0F833120F461E08C2F0E944B2B2A
:1059A000CF9108951092B9008CE08093B8000895CB
:1059B000A0E0B0E0EEEDFCE20C949D2FB82EEB01E0
:1059C0000E94AF176C01C431D10558F0CF3F8FEF63
:1059D000D80759F0CE0164E170E00E94822F7B016C
:1059E00007C0EE24E394F12C03C025E0E22EF12C55
:1059F00084E8A82E94EA992E1092BC009092BC00E4
:105A00000E94AF178C018091BC0087FD07C0C801C0
:105A10000E949417E816F906B0F729C08091B900E2
:105A2000887F883041F08091B900887F803119F0FB
:105A30000FEF1FEF1EC0B092BB00A092BC000E94EF
:105A4000AF178C018091BC0087FD07C0C8010E9480
:105A50009417E816F906B0F70AC08091B900887F5C
:105A6000883111F0803421F700E010E00EC00EEF15
:105A70001FEFCF3F8FEFD80709F4BECFC6010E94BA
:105A80009417C817D90708F0B7CFC801CDB7DEB74C
:105A9000EBE00C94B92F0F931F93CF93DF93EB019F
:105AA0008093BB0084E88093BC000E94AF178C01F8
:105AB0008091BC0087FD0DC0CF3F8FEFD807C1F3A9
:105AC000C8010E949417C817D90790F78EEF9FEF6F
:105AD0000CC02091B900287F81E090E0283211F4B9
