:100000000C940B070C9443070C9443070C94CC2ED0
:100010000C9443070C9443070C9443070C94430738
:100020000C9443070C9443070C941F160C940D1565
:100030000C94E1170C9443070C9443070C9443076A
:100040000C9443070C9443070C9443070C94430708
:100050000C9443070C9478170C9443070C944307B3
:100060000C9443070C9443070C9443070C944307E8
:100070000C9443070C9443070C9443070C944307D8
:100080000C9443070C9443070C9443070C944307C8
:100090000C9443070C9443070C9443070C944307B8
:1000A0000C9443070C9443070C9443076D10E11024
:1000B00075103F104310791046107C1087105110B6
:1000C000D71055108B1059108F10B9105D10931068
:1000D000C31063109910A3104A1080104D108310A4
:1000E00068109E10AF10CF10D1103B107110EA10A5
:1000F0002B1131110011251137113D1143115C11E4
:100100006A116F11741179117E11831188118D118B
:10011000921197119E110811081108110811081168
:1001200008110811081108113B123B126D126D12D3
:10013000DF12FD122114211402139013A113A11335
:10014000DD2604279C2804279C284C276F279C2801
:100150005E28712800DA0281FFD9F1DB20A4A62EE7
:10016000AF00A0C0D30000A1C8D30000AED580A8C6
:100170001F408D142000000000E000F8C0F8E0C02F
:10018000FC007E180080000280F000C080F8C0E013
:1001900070603C383C1C003F0C0F1F030701C3007C
:1001A000E08000E080F880C0F7C76F7B39300080C6
:1001B00000C000C0C2E000403830381E181E0F0CCE
:1001C00007070703032121313018181C080C0E07FC
:1001D000060703C303014CCCC2C24149092B2A6A5A
:1001E0006E2424049292B1F1F1F2E6A4A40404284E
:1001F0002828282828286C696C7920002094959656
:100200002020B4B5B62020D4D5D62000209D9E9FB6
:100210002020BDBEBF2020DDDEDF20002097989982
:100220002020B7B8B92020D7D8D92000209A9B9C8D
:100230002020BABBBC2020DADBDC200020202020DC
:100240002000A7A800AFB000C600CA00C800A5A63D
:1002500000ADAE008788008F9000C500C900C700C0
:10026000CB008586008D8E00ABAC00CFD000C600E1
:10027000CA00C800A9AA00B1B2008B8C00CDCE0084
:10028000C500C900C700CB00898A009192002020D8
:10029000005320002020004320002020004E20009A
:1002A0000000001000000000000000081C08000012
:1002B000000000000000020000000000100000002C
:1002C00000000000200000000000000000020040CC
:1002D000E040000000000000040000000080C0803A
:1002E000C080000000000000E0008000F00000C0BE
:1002F00000000000000000400000000000000100BD
:100300008100C000FE00FC00FF20FFF00FF000FFA6
:10031000000000001000000000009000F80000F84D
:10032000FF10FF84FF60FF36FF0FFF3F005F0005F7
:1003300080008000C03800ECF000FB80FFF0FFEF91
:10034000FFE8FF03FF0CFF00FF00030000F8008040
:10035000FF20FFD0FFE0FEF8FFFCFFFF0FFF013F93
:10036000FF000F0001000300FE80FE00C0FFC4FB81
:10037000FFFEFFFFFF3FFFFF07FF033F000FC0002F
:100380000000B800FF40BEF0FFF1FFFEFFFFFFFFDF
:100390001FFF6700EF001F0000070000E000FFF0F4
:1003A000FF88FFC4FFF8FFFFFFFFFFFF8F7F0FFFF6
:1003B0000007FE000700000000F800C03FF8E7FF5C
:1003C000FFFFFF1FFFFF1F3F01FF0B00FF000005A6
:1003D000000000E000F86080FEE3FCFF1EFFFF234A
:1003E000FF09FF20003F0200000F004000C000FC9A
:1003F000E0FCF0FFFF7FFCFF0FFF071F00010F0075
:100400000F0081700CF0800000E4F8E6703FCFFF31
:100410001FFF48FF0F000700004360F8F0FE38FEA2
:1004200000FC0300C872CFFC00030F01E01CE003D6
:10043000000F00000000000000F806F900030007AC
:10044000FF001012C9F0CFB47F80E01E0140655E4E
:10045000E00000F00CF000807E018093FCC0000002
:100460000000000089182C46000721101080091395
:1004700031BFFF00081AF70F0000444534BFB80031
:1004800010F008F41811FC18FB0E10F804F81020F6
:100490001809FF0CEA1F286030F820C04233210001
:1004A00000AF00AE167C1E001F00200021002200BD
:1004B0002B0014001A00080015001700E1000400CA
:1004C0001600070009000A00E0001D001B000600DE
:1004D0001900050000000401E200E30021522C2273
:1004E0002E00270026002500240023002D001300E5
:1004F00012000C0018001C00340033000F000E0026
:100500000D000B00313238003700360010001100AA
:10051000000004014C002A0022525832350000002D
:100520000000000000000000390000000000000092
:1005300000000000E1001E021F0220022102220230
:10054000E0000000000006131913000000003D0445
:1005500001000100010001005700270226020000EF
:10056000000000002D0230002F00310230022F0267
:100570003402330200002502240223023200380232
:1005800037023602000000000000000001004C00AD
:100590002352010001003A003B003C003D003E00B8
:1005A000000000000000000000000000E100220048
:1005B000210020001F001E00E0002700260025006B
:1005C000240023000000000001000100235201006C
:1005D0004D004A004500440043003D004E004B00E2
:1005E0000000000000000000000000004F0052006A
:1005F0005100500000003800370036004D004A001E
:1006000000004600010001000100010000000000A0
:1006100000000000000000000000000000000000DA
:10062000000000000000000000000000D100D20027
:1006300000000000000000000000000000000000BA
:100640000100010001000100A900AA000000000053
:1006500000000000BD00BE0000000000000000001F
:1006600000000000D000CD00CE00CF000000000050
:10067000D900DA00000000000000000001000100C5
:100680000100010005010902A10185020901A10083
:100690000509190129081500250195087501810230
:1006A0000501093009311581257F950275088106FC
:1006B00009381581257F950175088106050C0A38D2
:1006C000021581257F950175088106C0C0050109C5
:1006D00080A101850319012AB700150126B70095ED
:1006E0000175108100C0050C0901A10185041901E3
:1006F0002AA002150126A002950175108100C005EF
:10070000010906A101050719E029E7150025019552
:1007100008750181029501750881010507190029F5
:10072000FF150026FF0095067508810005081901D0
:10073000290515002501950575019102950175039F
:100740009101C009023B00020100A0FA0904000067
:1007500001030101000921110100012244000705E4
:1007600081030800010904010001030000000921C0
:1007700011010001227B0007058203200001120104
:100780000002000000081D8DC2B40001010200013A
:1007900026034100750072006F00720061002000A6
:1007A0004C0069006C0079003500380020007200B0
:1007B00065007600310000001803730070006C00C3
:1007C000690074006B0062002E0063006F006D0012
:1007D0000000040309040000000000003E5B4F5BC2
:1007E0003E003E6B4F6B3E001C3E7C3E1C00183CA6
:1007F0007E3C18001C577D571C001C5E7F5E1C0051
:1008000000183C180000FFE7C3E7FF000018241899
:100810000000FFE7DBE7FF0030483A060E0026291C
:1008200079292600407F05050700407F05253F0008
:100830005A3CE73C5A007F3E1C1C0800081C1C3E2A
:100840007F0014227F2214005F5F005F5F000609B3
:100850007F017F00006689956A00606060606000CB
:1008600094A2FFA2940008047E04080010207E20B9
:10087000100008082A1C0800081C2A0808001E107E
:10088000101010000C1E0C1E0C0030383E383000CA
:10089000060E3E0E060000000000000000005F0093
:1008A0000000000700070000147F147F1400242AB2
:1008B0007F2A120023130864620036495620500034
:1008C000000807030000001C224100000041221C18
:1008D00000002A1C7F1C2A0008083E08080000802F
:1008E0007030000008080808080000006060000080
:1008F0002010080402003E5149453E0000427F405E
:1009000000007249494946002141494D33001814FD
:10091000127F10002745454539003C4A49493100BE
:1009200041211109070036494949360046494929FC
:100930001E00000014000000004034000000000809
:10094000142241001414141414000041221408004D
:100950000201590906003E415D594E007C121112F8
:100960007C007F49494936003E41414122007F4198
:1009700041413E007F49494941007F090909010081
:100980003E41415173007F0808087F0000417F41CC
:1009900000002040413F01007F08142241007F40B9
:1009A000404040007F021C027F007F0408107F004F
:1009B0003E4141413E007F09090906003E41512167
:1009C0005E007F0919294600264949493200030182
:1009D0007F0103003F4040403F001F2040201F0098
:1009E0003F4038403F006314081463000304780458
:1009F00003006159494D4300007F41414100020419
:100A000008102000004141417F000402010204005F
:100A10004040404040000003070800002054547844
:100A200040007F2844443800384444442800384477
:100A300044287F0038545454180000087E090200EE
:100A40001824241C78007F080404780000447D40AA
:100A500000002040403D00007F102844000000417D
:100A60007F4000007C04780478007C08040478004F
:100A70003844444438007C182424180018242418CE
:100A80007C007C08040408004854545424000404E6
:100A90003F4424003C4040207C001C2040201C009F
:100AA0003C4030403C004428102844004C9090903A
:100AB0007C004464544C44000008364100000000AF
:100AC0007700000000413608000002010204020025
:100AD0003C2623263C000000000000000000C0E08F
:100AE000F0F8F81800C0F0FCFEFFFFFFFFFFFFFF6B
:100AF0007E00000000F8042252E2424242E252220A
:100B000022224282020222220204F80000F8040299
:100B10000282422242820202028242221222428245
:100B20000204F80000F8FCDEAE1EBEBEBE1EAEDE45
:100B3000DEDEBE7EFEFEDEDEFEFCF80000F8FCFE21
:100B4000FE7EBEDEBE7EFEFE000000000000808055
:100B500040402020101008081010202040408080C5
:100B60008080C0C0E0E0F0F0F8F8F0F0E0E0C0C055
:100B70008080808040402020101008081010202025
:100B800040408080808040C060A050B058A850B0E5
:100B900060A040C0808000F8FCFEFFE000FFFFFF87
:100BA000FFFFFF80FFFFFFFFFFFFFFFFFF1F0701AA
:100BB00000000000001F20444A47424242474A4486
:100BC000404040404142444440201F00001F20401C
:100BD000414040404040414041414F4848484F41DA
:100BE00041201F00001F3F7B75787D7D7D78757BE0
:100BF0007F7F7F7F7E7D7B7B7F3F1F00001F3F7F4E
:100C00007E7F7F7F7F7F7E7F0000000000008888DE
:100C10005D5D3E3E7C7CF8F87C7C3E3E5D5D888878
:100C200088885555232347478F8F4747232355559A
:100C300088888888D5D5E2E2C4C48888C4C4E2E242
:100C4000D5D5888888885DD56BB66DD6ADDA6DD67A
:100C50006BB65DD5888800030F1F3F3F3F3F1F1FC6
:100C60003F3F7F7F7F3F3F1F3F7F7F7F7F7C787845
:100C7000381C0F0004F80000F804201F00001F209B
:100C8000FCF80000F8043F1F00001F2004F80000DB
:100C9000F8FC201F00001F3FFCF80000F8FC3F1F7D
:100CA00000001F3FFE7EBEDEEEDEBE7EFEFCF800D4
:100CB0007E7E70777777707E7E3F1F000000000099
:100CC0000000000000000000000000000000000024
:100CD00001010202040408080404020201010000E8
:100CE00000000101020204040808040402020101D8
:100CF000000000000101030307070F0F07070303AC
:100D00000101000000000101030205060D0A0506AD
:100D100003020101000000010101010101010101C3
:100D2000020202020202020202030303030303039C
:100D30000304040404040404050505050506060669
:100D40000606070707070708080808090909090A26
:100D50000A0A0B0B0B0C0C0C0D0D0D0E0E0E0F0FCB
:100D60000F10101111111212131314141515161659
:100D70001717181819191A1A1B1B1C1D1D1E1E1FC8
:100D80002020212222232424252626272829292A17
:100D90002B2C2D2D2E2F303132323334353637383F
:100DA000393A3B3C3D3E3F4041424344454647483B
:100DB000494A4C4D4E4F50515354555658595A5B11
:100DC0005D5E5F616264656668696B6C6D6F7072B1
:100DD000737577787A7B7D7E8082838587888A8C1D
:100DE0008E8F91939596989A9C9EA0A2A3A5A7A951
:100DF000ABADAFB1B3B5B7BABCBEC0C2C4C6C9CB48
:100E0000CDCFD1D4D6D8DBDDDFE2E4E7E9EBEEF0FD
:100E1000F3F5F8FAFDFF11241FBECFEFDAE0DEBFD5
:100E2000CDBF04B603FE18C0809120079091210722
:100E3000A0912207B09123078730904BA740B04B79
:100E400059F4109220071092210710922207109255
:100E50002307E0E0F8E3099512E0A0E0B1E0E2EA60
:100E6000F1E602C005900D92A83DB107D9F727E041
:100E7000A8EDB2E001C01D92A032B207E1F70E94D6
:100E800045070C94CF300C940000A0E1B0E0EBE4F7
:100E9000F7E00C94013085B7806885BF85B780681E
:100EA00085BF84B7877F84BF0FB6F894A8958091DB
:100EB0006000886180936000109260000FBE90E037
:100EC00080E80FB6F89480936100909361000FBEA4
:100ED0008EED9AE19093D9028093D8020E94511529
:100EE0000E94C4158091E20084608093E2007894AF
:100EF00080912D048823A1F01091E9001F7090913A
:100F0000EC00892F817090FD80E8182B1092E90089
:100F10008091E80083FD0E94FC251F701093E9007A
:100F200082E084BD93E095BD9AEF97BD80936E00FB
:100F30001092DA021092DB021092DC021092DD02B3
:100F40008091D80080618093D8002AE12A95F1F73A
:100F500000C08091D900182F117080FD04C00E943C
:100F6000511510922D041093570385988D988FE892
:100F700091E00197F1F700C000008FB185FB882751
:100F800080F98093580380930B018091570381115E
:100F90000E94872E86E0ECE3F3E0DF011D928A9544
:100FA000E9F780910B0191E08927809303038091F9
:100FB0000B019093060380910B0180910B0181112D
:100FC00006C087EF80931D0186EF80931E0160E0CD
:100FD00080E00E94D21961E080E00E94D219EFE81F
:100FE000F1E03197F1F700C0000010E080910603B6
:100FF000181790F460E0812F0E94B619082F61E065
:10100000812F0E94B619E12FF0E0EC5FFC4F880FB2
:10101000082B00831F5FEACF80910B01811128C04C
:1010200085E0EEE6F1E0DE01199601900D928A95D9
:10103000E1F7FE013996A6E0B1E0CE010E962191CE
:101040002D93E817F907D9F786E0E3E7F1E0DE0131
:10105000119601900D928A95E1F7FE013196A0E07C
:10106000B1E0CE01079621912D938E179F07D9F7F6
:1010700080910B01811102C095E001C090E0909336
:10108000E90285E0891B8093E80200E011E096E028
:10109000E92E91E0F92ED8018D918D018F3F11F04D
:1010A0000E94AB1DE016F106B1F706E011E0F80171
:1010B00081918F018F3F11F00E94AB1DF1E00B3049
:1010C0001F07A9F78AE0ECEEF2E0DF01282F1D925E
:1010D0002A95E9F7EEEDF2E0DF011D928A95E9F736
:1010E00080E090E00E945930863E9E4F09F466C031
:1010F00066EE7EEF80E090E00E948D3060E082E05E
:1011000090E00E946F3081E090E09093080380931C
:10111000070361E083E090E00E946F3060E074E1DB
:1011200084E090E00E948D3060E086E090E00E94D4
:101130006F3060E087E090E00E946F3040E050E068
:10114000BA0188E090E00E94813060E084E290E0A3
:101150000E946F3060E087E190E00E946F3060E0B5
:101160008CE090E00E946F3060E08DE090E00E94A3
:101170006F3019821A821B821C821D821E821F827E
:10118000188648E050E068E170E0CE0101960E94C8
:101190005F3040E050E0BA0180E290E00E94813090
:1011A00040E050E0BA018FE090E00E94813040E0E2
:1011B00050E0BA0183E190E00E94813082E090E04B
:1011C0000E9451308093F60284E090E00E945930F2
:1011D0009093EB028093EA020E94871FEFEFF6E7FD
:1011E00021E0E150F0402040E1F700C000000E9403
:1011F000871F80915803811102C0E5E001C0E0E043
:10120000F0E0E451FD4F808180FF08C06FEF7FEF79
:1012100080E090E00E948D300E94541783E090E0BF
:101220000E94513090E00E94CB240E94EA2881E085
:101230008093370448E050E068E170E088E394E090
:101240000E94413010923704809138048C7FF9F469
:1012500085E0809338048091790190917A01A09182
:101260007B018093390490933A04A0933B048FE769
:1012700080933C048FEF80933D0448E050E068E1A8
:1012800070E088E394E00E945F301092370483E0BE
:1012900080932C0380E2809340040E94172D6BE022
:1012A00070E08BE691E00E948C1A882309F443C019
:1012B00080912C0365E070E081FD3AC086E691E004
:1012C0000E948C1A8823B9F16DE070E084E591E00A
:1012D0000E948C1A882379F10E94C917DC01CB0186
:1012E000805A9541AF4FBF4F809336039093370399
:1012F000A0933803B0933903E3E4F4E080E092E094
:10130000DF019C011D9221503040E1F7F0934A0625
:10131000E09349068FEF9FEF90934204809341043E
:1013200081E080933B0380933A0310922D0303C026
:1013300081E691E0C5CF80915703811102C00E94E0
:101340008A2E8CE091E090935C0380935B0308E12C
:10135000202E312C44244394512C80912D0485302F
:1013600009F046C000E112E180912D04853009F0BA
:101370003BC080912D04843031F10E94BF290E942E
:10138000991A10925F0330E40FB6F894A895209252
:1013900060000FBE3093600083B7817F846083BF9D
:1013A00083B7816083BF7894889583B78E7F83BF2E
:1013B0000FB6F894A89580916000886180936000D2
:1013C000109260000FBE80912C04882309F4CCCFCA
:1013D0000E94871FECEEF2E081918111B5C382E09B
:1013E000E63FF807C9F7C0CF0E94D0240E946E18CC
:1013F0000E94871FB7EFEB2EB2E0FB2E1CEEC12E32
:1014000012E0D12E21E033E0D601F70191918D91C8
:1014100089272E173F0719F08823C1F306C08111D1
:1014200004C00E94631FD12C38C08090570310E085
:1014300077247394D6019D906D01F701A080A924B3
:1014400011F100E0BB24B3948A2D8B21B1F08820E8
:10145000A1F009871A870E94D5179C878B877D8604
:1014600091E0892D8B2109F490E09E8749855A856A
:101470006B857C858D850E948D0E0F5FBB0C0630C1
:1014800019F7D7019C921F5FBFEFEB1AFB0A1A30C6
:1014900089F60E94C21DDD24D394809157038823CE
:1014A00089F080914603882369F00E94D517209126
:1014B000430330914403821B930B8F3F9F4710F4EB
:1014C0000E9494190E94BF2980915703882321F01C
:1014D0000E94131AE82E01C0E12CF12C8091060322
:1014E000F81608F042C061E08F2D0E94B619182F3F
:1014F00060E08F2D0E94B619E12FEE0F8E2B0F2D7D
:1015000010E0D801AC5FBC4FEC912E2F237030E07F
:10151000482F50E02417350731F1EE0FEE0FE82B7E
:10152000EC93809103038F0DEF70F0E0E458FE4FD1
:101530000F5F1C4FC080D8019C91C90ECC92B3E0C4
:10154000BC1514F460E004C0EDEFCE161CF461E0AD
:101550000E94F3198C2DCC0C990B64E070E00E9472
:101560009F30D8018C93F394B9CF8091570388238F
:1015700019F00E94131AE82AEE2021F00E94C21DE1
:10158000DD24D39480913B03882309F4D3C1809157
:101590002E0390912F030E94BA17C29708F4C3C07C
:1015A0000E94D51790932F0380932E0383E494E039
:1015B00090934A068093490680915703882309F443
:1015C000ACC060E870E086E791E00E94411A80912B
:1015D0004004B4E08B9FC00111248115E2E09E0716
:1015E00014F080E090E08D5B9B4F90934A068093CF
:1015F000490686EF91E00E94CC258CE392E00E94A0
:10160000CC252091090330910A0380910703909122
:101610000803822B932B292F33272115310519F02D
:10162000C90128E001C020E0AC01F4E056954795DF
:10163000FA95E1F74115510511F02C5FCA01AC0193
:1016400056954795569547954115510511F02E5FD2
:10165000CA0196958795892B09F02F5F223039F0C2
:10166000233041F0213049F48CE292E008C08CE153
:1016700092E005C08CE092E002C08CEF91E00E9405
:10168000CC258CE392E00E94CC2510910B03809135
:101690004203182B012F08781474002349F085E6C3
:1016A00092E00E94CC25112361F080E692E00CC00C
:1016B00082E692E00E94CC25112359F08CE592E05D
:1016C00003C08EE592E007C00E94CC251123A9F04B
:1016D00005C08AE592E00E94CC250FC087E592E024
:1016E0000E94CC25011146C28EE492E00E94CC25D6
:1016F000112381F08AE492E043C284E592E00E94E3
:10170000CC25002389F381E592E00E94CC258CE46E
:1017100092E084C288E492E081C260E072E080EAF4
:1017200092E00E94411A8091410490914204892BD9
:1017300031F480913A03882309F4FCC0E4C080911D
:101740003B038823B1F380912D038111F2CF0E94D6
:10175000B31A20914104309142042115310549F317
:1017600080E0082F10E07201082E02C0EE0CFF1C72
:101770000A94E2F7A70142235323452B11F48F5F0C
:10178000F0CF90912C03980165E0220F331F6A95EA
:10179000E1F790FF13C055E0369527955A95E1F78C
:1017A000220F220F220F2093180110921B01295F94
:1017B0002093190183E080931C0111C0220F232F75
:1017C000221F330B31958295880F80768093180104
:1017D00020931B01815E8093190120931C0124E654
:1017E00030E047E050E066E171E088E70E944C2D70
:1017F000892B09F09ECF80912C0380FF64C080E28A
:10180000ECE0F3E0DF011D928A95E9F7A80135E0ED
:10181000440F551F3A95E1F7E0E9F1E0F88BEF87C7
:101820000CE811E0AF85B8898D91B88BAF87F801CE
:1018300091918F01BA01690F711D6D5B7B4F90E033
:10184000845F9C4FFC0127E0922E9F01281B390BDF
:10185000742C01C0770C2A95EAF75B01812CD50125
:10186000CD905D01C720292D28192770622E022EE8
:10187000000C330BBC2D01C0BB0F6A94EAF76B2E32
:101880003195219531092770332701C0C6942A95D7
:10189000EAF76C28C0806C286082839428E082126A
:1018A000DECF9A9431963FEF9312CFCF8F859889F0
:1018B0008459914009F0B6CF04E610E020E230E010
:1018C0004CE053E00CC0A80185E0440F551F8A95F9
:1018D000E1F74D5B5B4F04E610E020E230E060E4AE
:1018E00088E70E94E32D892B09F023CFE094F09440
:1018F0008091410490914204E822F922F09242043E
:10190000E092410416CF0E94C9170091360310914E
:1019100037032091380330913903DC01CB01801B60
:10192000910BA20BB30B8F3F9F4FAF4FBF4710F4EC
:101930000E94991AD1100E94B31A86E0EEE4F3E0F7
:10194000DE01119601900D928A95E1F7D0904F0338
:101950001091500300915103E0905203F090530313
:10196000109250031092510310925203109253039D
:10197000111103C0002309F447C080914C039091DA
:101980004D030E94BA179C0190914703992309F4D3
:101990007FC125313105C0F19F3F19F09F5F9093C2
:1019A0004703112361F00E944F19111614F09FEFA5
:1019B00001C091E0899F802D112480935003002362
:1019C00061F00E944F19101614F491E001C09FEFCE
:1019D000899F802D11248093510380915003882387
:1019E00099F0C0905103CC2079F00E946F198111B9
:1019F00001C081E0809350038C2D0E946F198111EA
:101A000001C081E080935103E11003C0FF2009F47D
:101A100047C080914A0390914B030E94BA179C01E2
:101A200090914803992309F438C121353105C0F15B
:101A30009F3F19F09F5F90934803EE2061F00E9452
:101A40002D191E1414F09FEF01C091E0899F802D85
:101A5000112480935203FF2061F00E942D191F145E
:101A600014F491E001C09FEF899F802D1124809391
:101A7000530380915203882399F0C0905303CC20E4
:101A800079F00E946F19811101C081E080935203A7
:101A90008C2D0E946F19811101C081E08093530346
:101AA00080914F03D8121AC080915003882311F0FF
:101AB000181314C080915103882311F008130EC02D
:101AC00080915303882311F0F81208C090915203BB
:101AD000992331F081E0E91204C002C081E001C025
:101AE00080E080FD15C08091500381110FC080916E
:101AF000510381110BC080915203811107C081E015
:101B000090915303911103C080E001C081E080FDFA
:101B10000E940319DA821B830C83ED82FE8286E029
:101B2000FE013196AEE4B3E001900D928A95E1F7A3
:101B30000E946E1890913003891709F40ECC80939F
:101B400030030E94C91709CC09BD19BD09B400FEB4
:101B5000FDCF8091D8008F7D8093D8008091E000E8
:101B600082608093E0008091E00081FDFCCF0E94C4
:101B7000D024FACB81E592E00E94CC258CE492E05F
:101B80000E94CC2585E492E00E94CC2510910B03A5
:101B900080914203182B012F01711272002349F02A
:101BA0008BE892E00E94CC25112361F086E892E058
:101BB0000CC088E892E00E94CC25112359F082E8FD
:101BC00092E003C084E892E007C00E94CC25112374
:101BD000A9F005C080E892E00E94CC250FC08DE7F7
:101BE00092E00E94CC2501111EC084E792E00E9481
:101BF000CC25112381F080E792E01BC08AE792E0B8
:101C00000E94CC25002389F387E792E00E94CC252F
:101C100082E792E038C08EE692E035C00E94CC2583
:101C200082E492E0B1CF87E792E00E94CC2582E780
:101C300092E00E94CC258BE692E00E94CC250E9487
:101C40006E1881FB002700F982FB112710F980FD37
:101C500003C08AE992E002C08DE992E00E94CC259F
:101C6000011103C084E992E002C087E992E00E947A
:101C7000CC25111103C08EE892E002C081E992E008
:101C80000E94CC2550CD0E94CC2588E692E0D5CF8D
:101C90002B30310508F082CEB7CE2B30310508F05D
:101CA000C9CEFECEA6E0B0E0E8E5FEE00C94103030
:101CB00049835A8349815A81992361F0222351F043
:101CC000CA010E942422182F682F89819A810E94BC
:101CD000422404C0CA010E940F24182F69817A810E
:101CE000812F0E941C1E2696E3E00C942C300E944B
:101CF000D0242FEF84E39CE0215080409040E1F716
:101D000000C000009CE088E10FB6F894A89580938D
:101D100060000FBE90936000FFCFABE1B0E0E3E95D
:101D2000FEE00C940F304E8B5F8B688F798F8A8F1B
:101D30009B8F192F911110924503DE011F9687E0AA
:101D4000FD0111928A95E9F786E0FE0176960190F1
:101D50000D928A95E1F70A8D002341F021E04F852D
:101D6000588969897A89C8010E94520E0B8B1C8B95
:101D700087E0FE013F96DE01189601900D928A954C
:101D8000E1F7CE0108960E94882281112CC087E0DD
:101D9000FE013896DE01119601900D928A95E1F7C9
:101DA0006C85662301F12091DE0330E0C9010196C4
:101DB000877099274091170450E08417950761F1C7
:101DC0006D8397E0929FD001939FB00D1124A15293
:101DD000BC4FFE01319601900D929A95E1F78093E8
:101DE000DE030E94C12117E0809117049091DE0369
:101DF0008917F9F0189FC001112481529C4F0E944D
:101E000088228823B1F08091170490E001968770B2
:101E1000992780931704E8CF0E94D0241092DE0304
:101E200010921704E7EDF3E087E0DF011D928A9539
:101E3000E9F76B96E4E00C942B30A0E0B0E0E3E22D
:101E4000FFE00C940A30FC018481882309F449C521
:101E50007F0121E0408151816281738195810E94DF
:101E6000520EEC0183379C4779F4F7018581882372
:101E700009F4CEC180914603882319F00E94941979
:101E8000C7C10E94A219C4C1D0900B038091420324
:101E9000D82A809146038E0108511C47811135C014
:101EA000F2E2DF1204C00E94A21910925603F70159
:101EB0008581882309F4B6C0C13ED10521F0C23A1C
:101EC000F2E5DF07F9F480913303882371F0F7011D
:101ED000828193812091310330913203821B930BD5
:101EE0008F3F9F4710F00E94A21981E08093330337
:101EF000F7018281938188539F4F9093320380939F
:101F0000310390C01092330395C10E94D5178857B2
:101F10009C4E9093440380934303F701858188236B
:101F200009F480C08D2D8D7909F077C0C034F2E5B9
:101F3000DF07B8F4C11522E5D20708F073C0C11558
:101F400080E4D80748F4C11590E2D90740F5C63EB1
:101F5000D10509F044C066C0C115E0E5DE07B8F15F
:101F60003EC0C03EF2E5DF07A0F4C03C22E5D20748
:101F700008F058C0C03682E5D80788F1C03A92E52B
:101F8000D90708F44FC0C43BE2E5DE0709F44AC0B4
:101F900026C0CE0187579C47029708F543C0F7013A
:101FA0008681807FC9F48D2F8F71823169F028F48A
:101FB000823099F581EE90E013C0843199F1863139
:101FC00061F586EE92E10CC085EE90E009C0F70164
:101FD0008681807F09F42EC1CE01992701C0CE01F0
:101FE000109245038832910530F48E319105C0F48A
:101FF000049798F00EC08D32910559F018F48A9725
:1020000079F00BC08C34910559F08D32924041F03B
:1020100004C082E08093450303C00E94941902C06B
:102020000E9485210730110508F40AC1F701858156
:10203000882309F42EC110925603882309F429C17C
:10204000CE019057839708F07DC184E090E00E9414
:1020500059309093EB028093EA02FE01E150F04781
:10206000E232F10520F4EA5AFF4F0C94B33080912C
:10207000EA028160ACC08091EB028860B4C08091BC
:10208000EA028260A4C08091EA0220C08091EA0244
:1020900088609DC08091EB021EC08091EB0282603F
:1020A000A2C08091EA02806192C08091EA028062BF
:1020B0008EC08091EA0280648AC00E94D024809100
:1020C000EA02806884C08091EA02886084607FC0F0
:1020D0008091EB028260816086C08091EA028E7FEF
:1020E00076C08091EB02877F7EC08091EA028D7F6F
:1020F0006EC08091EA0220C08091EA02877F67C0AB
:102100008091EB021EC08091EB028D7F6CC08091AC
:10211000EA028F7E5CC08091EA028F7D58C0809178
:10212000EA028F7B54C00E94D0248091EA028F770C
:102130004EC08091EA02877F8B7F49C08091EB027D
:102140008D7F8E7F50C08091EA0282FB222720F98A
:1021500091E0922790FB82F990FB83F938C080913F
:10216000EB02982F909591708E7F892B90FB81F9CF
:102170003AC08091EA0286FB222720F991E092275B
:1021800090FB86F924C00E94D0248091EA0287FB4C
:10219000222720F991E0922790FB87F918C061E08F
:1021A00001C060E08EE090E00E946F301EC0809120
:1021B000EA0284FB222720F991E0922790FB84F920
:1021C00006C08091EA02982F909590FB80F9809349
:1021D000EA020BC08091EB0283FB222720F991E0F9
:1021E000922790FB83F98093EB026091EA02709151
:1021F000EB0284E090E00E948D300E94D02408C061
:1022000006E221EE41EE6AE17CE7C7010E947F18F9
:1022100080911804877009F464C3F70185818823CD
:1022200009F45FC38091EB0282FF5BC382E00E94EE
:102230008D2457C30730110518F0F7018581FBCEB7
:10224000F801E858FF4F0C94B33007E225EE45EE55
:102250006BE17CE7DACF06E221EE40EE68E17CE755
:10226000D4CF07E225EE44EE69E17CE7CECF06E26B
:1022700021EE42EE6CE17CE7C8CF07E225EE46EEA8
:102280006DE17CE7C2CF08E221E045EE6EE17CE73C
:10229000BCCFC631FCE7DF0709F4FBC280914203E3
:1022A0008272FE01E052F847E531F10508F04FC0B7
:1022B000E158FF4F0C94B3309091380481E08927A6
:1022C0008093380410926801809137048160809374
:1022D00037049ECF4AEA59E264EB79E22CC044EB22
:1022E00059E26AEA79E227C046E959E260EA79E20E
:1022F00022C040EA59E266E979E21DC04CE759E2A2
:1023000069E879E218C049E859E26CE779E213C05C
:1023100042E659E26FE679E20EC04FE659E262E624
:1023200079E209C04DEE58E26BEF78E204C04BEF62
:1023300058E26DEE78E20E94B8296ACF81E00E94EF
:10234000DA2566CFC6312CE7D20709F4B8C2F70107
:1023500085818823D9F1C330FCE7DF0721F140F400
:10236000C1158CE7D80789F0C130DC4711F12EC0C8
:10237000CB35ECE7DE0739F1CC35FCE7DF07D9F0E8
:10238000CA35DC4719F581E01FC00E94D0248FEFC9
:1023900094E3ECE081509040E040E1F700C00000A1
:1023A0000E94541735CF6FEF7FEF80E090E00E94DE
:1023B0008D300E94770E8091EB0282FB882780F996
:1023C00091E0892701C080E00E94A424F701858163
:1023D000C081D181882349F0CE010E942422182F88
:1023E000682FCE010E94422404C0CE010E940F2417
:1023F000182FBE01812F0E941C1E0E94391ED82F4B
:10240000C92FC82EF7011581068102950F708091A2
:102410001804877001F11123F1F0892F807F803437
:1024200069F080E28D0F8830B0F0892F807E803295
:1024300029F4F1E0FD1778F4002369F08091EB02B4
:1024400082FF09C082E00E948D2480911804877069
:10245000DD24D3948111D12CBC2EB2948FE0B8220C
:102460008B2D90E08C30910508F0EBC1FC01EC560F
:10247000FF4F0C94B3308C2F807FCF70882311F0E6
:10248000C295C07F1123B9F0CC2309F4C8C180E202
:102490008D0F883010F0C11006C090914203C92BF7
:1024A000C093420305C090914503C92BC0934503D7
:1024B0000E948521B4C18D2F0E94292CCC2309F4C0
:1024C000C0C1D05ED83088F1CC2079F1C095909110
:1024D0004503C923C09345032BC08C2F807FCF7049
:1024E000803211F0C295C07F8D2FCC2029F021E0E1
:1024F000C21609F44CC055C08091EB0282FD1BC08E
:10250000112369F0CC2339F090914203C92BC09379
:1025100042030E94852180E00E94652C92C180E0E8
:102520000E94292CCC2309F48CC18C2F0E945C1FA3
:102530000E94852186C1112381F00023B1F1013071
:1025400009F07FC190910B038C2F8923C81709F4E0
:1025500078C1C92BC0930B0374C1011172C18C2FB8
:102560000E94F72480910B039C2F982329F09C2F25
:102570009095892380930B03809135039C2F98239A
:1025800009F45FC1C0958C23809335035AC1112390
:1025900021F0063008F055C108C0053008F051C1DF
:1025A0000AC0112331F001113AC18C2F0E94FE2480
:1025B00048C1011138C18C2F0E94F72442C18C2FD1
:1025C00086958695837019F0813061F03AC11123A8
:1025D00021F08D2F9C2F937002C080E090E00E942C
:1025E000491835C1112321F08D2F9C2F937002C003
:1025F00080E090E00E9424182AC1612F8D2F0E9454
:102600003D2B25C18C2F837009F041C011111DC1D4
:102610002D2F229526952770220F220F8D2F8F7038
:1026200090E0022E02C0880F991F0A94E2F7D4FFAF
:102630000BC04FE050E002C0440F551F2A95E2F74F
:102640009A012095309502C020E030E0C695C695ED
:10265000C370C23099F068F44091070350910803A9
:10266000C13029F0822B932B8423952304C0842B23
:10267000952B822B932B0E94CB24E7C0822B932B8C
:10268000209107033091080382279327F4CF112369
:1026900019F08C2F817001C08695882309F4D5C06C
:1026A0002D2F229526952770220F220F8D2F8F70A8
:1026B00090E0022E02C0880F991F0A94E2F7D4FF1F
:1026C0000BC04FE050E002C0440F551F2A95E2F7BF
:1026D0009A012095309502C020E030E0C695C6955D
:1026E000C370C23079F0B8F44091090350910A03E5
:1026F000C13029F0822B932B842395230EC0842B89
:10270000952B09C0822B932B2091090330910A034A
:102710008227932702C0822B932B0E94762495C098
:10272000CF70112339F08C2F0E94BB248D2F0E9473
:10273000FE248BC08D2F0E94F7248C2F0E947B24B7
:1027400084C08D2FF2EFCF1689F1FC1538F020EF01
:10275000C21659F091EFC91621F15DC0E3EFCE1614
:1027600061F1F4EFCF16C9F056C0112391F0053096
:1027700008F067C0CF7181E090E002C0880F991F18
:10278000CA95E2F72091090330910A038227932723
:1027900021C0063008F055C0EDCF8091EB0282FDDC
:1027A0001CC0112329F08C2F8F7129C01123D9F35C
:1027B0008C2F8F710E947B2444C0112349F0CF716C
:1027C00081E090E002C0880F991FCA95E2F702C02D
:1027D00080E090E00E94762434C0112399F0CF71FC
:1027E0008C2F0E94BB248091EB0282FF07C028E05F
:1027F000C29FC00111248360809318048C2F0E9413
:10280000BB241FC081E00E948D240230D0F082E002
:102810000E948D2416C0112321F0002321F28D2F58
:102820007BCE002329F2893349F48FEF97EEE3E062
:1028300081509040E040E1F700C000008D2F0E94E1
:10284000292C88EF8B0D843010F40E946E18DD2047
:10285000A9F08091180480FD11C0F70115828695BA
:10286000869586950E94BB24C7010E941D0F80910A
:1028700018048695869586950E947B2420E0F701B2
:102880004081518162817381848195810E94520EC1
:1028900028C080913403811102C089E201C085E320
:1028A000EFEAF3E025EB33E09281891301C0128255
:1028B00031962E173F07C1F70E948521A9CC809140
:1028C00042038A7A91E009F490E0909334038111F5
:1028D00002C069E201C065E38FEA93E00E940A1832
:1028E000EBCFCDB7DEB7E9E00C9426302091E400C1
:1028F0003091E50095E64091EC00842F817040FF17
:1029000023C08091E80080FD1DC080912D048823A4
:1029100099F0853099F08091EB0085FD11C04091D0
:10292000E4005091E5002417350729F3915011F088
:102930009A01E1CF84E0089582E0089583E008954C
:1029400081E0089580E008954091E80042FFDDCFE6
:10295000089508958091220408950F931F93CF93B3
:10296000DF938B01EA0190912D04943079F58F70FB
:102970008093E9008FEF9091E800815095FD06C0AB
:1029800095ED9A95F1F700008111F5CF8091E8005F
:1029900085FF1CC00E947614882361F08091E800B6
:1029A0008E778093E80012C0F80181918F018093A7
:1029B000F1002197209791F38091E80085FDF4CFF5
:1029C0008091E8008E778093E800E4CFDF91CF918B
:1029D0001F910F91089543E050E0BC0182E00E94F6
:1029E000AD14089546E050E0BC0182E00E94AD14B1
:1029F0000895CF93DF93EC0148E050E0BC0181E003
:102A00000E94AD1488E0FE01A3E2B4E001900D92B3
:102A10008A95E1F7DF91CF9108951F920F920FB63B
:102A20000F9211242F933F934F935F936F937F9354
:102A30008F939F93AF93BF93CF93DF93EF93FF93C6
:102A4000C091E900CF708091EC00D82FD17080FD4B
:102A5000D0E81092E9008091F000877F8093F00029
:102A600078940E94FC251092E9008091F000886023
:102A70008093F000CD2BCF70C093E900FF91EF91D0
:102A8000DF91CF91BF91AF919F918F917F916F9186
:102A90005F914F913F912F910F900FBE0F901F901C
:102AA0001895E8EDF0E080818E7F80831092E2003F
:102AB0001092DA001092E100A0EEB0E08C918160FB
:102AC0008C9380818F77808319BCA7EDB0E08C91C7
:102AD0008E7F8C9380818F7E808310926403089513
:102AE00080912F0487FF11C08091E80082FD05C00E
:102AF00080912D048111F8CF11C08091E8008B776F
:102B00000BC080912D04882349F08091E80080FF5C
:102B1000F8CF8091E8008E778093E8000895982F91
:102B2000973068F59093E900981739F07091EC00B0
:102B30002091ED005091F00003C0242F762F50E03B
:102B400021FD02C09F5FECCF3091EB003E7F3093C0
:102B5000EB003091ED003D7F3093ED003091EB00C4
:102B600031603093EB007093EC002093ED005093B4
:102B7000F0002091EE0027FDE5CF80E008958F70F2
:102B80008093E90081E00895A0E0B0E0EAECF5E18F
:102B90000C940B30C8EDD0E088818F7E8883E7ED00
:102BA000F0E080818160808384E082BF81E0809357
:102BB000640388818E7F888302EE10E0F801108222
:102BC0001092DA0081EEC82ED12CF6011082888195
:102BD0008F77888388818068888388818F7D8883C8
:102BE00019BC10922D0410922E0410922C041092F5
:102BF0002B0490EEE92EF12CF70180818B7F8083EE
:102C000088818160888342E060E080E00E948F15C7
:102C1000F60180818E7F8083F801808181608083CE
:102C2000808188608083F70180818E7F80838881A6
:102C300080618883CDB7DEB7E8E00C9427301F921F
:102C40000F920FB60F9211242F933F934F935F93E0
:102C50006F937F938F939F93AF93BF93EF93FF9364
:102C60008091E10082FF09C08091E20082FF05C0EF
:102C70008091E1008B7F8093E1008091DA0080FFFA
:102C80002AC08091D80080FF26C08091DA008E7F14
:102C90008093DA008091D90080FF18C080E189BD5F
:102CA00082E189BD09B400FEFDCF81E080932D044F
:102CB0008091640381110FC00E9451150E94C415B8
:102CC0008091E20084608093E20005C019BC1092FC
:102CD0002D04109264038091E10080FF17C0809161
:102CE000E20080FF13C08091E2008E7F8093E200BB
:102CF0008091E20080618093E2008091D800806240
:102D00008093D80019BC85E080932D048091E10068
:102D100084FF30C08091E20084FF2CC080E189BD37
:102D200082E189BD09B400FEFDCF8091D8008F7D7E
:102D30008093D8008091E1008F7E8093E1008091A4
:102D4000E2008F7E8093E2008091E20081608093B8
:102D5000E20080912E04882311F084E007C0809166
:102D6000E30087FD02C081E001C083E080932D0471
:102D700080912D048091E10083FF27C08091E200C3
:102D800083FF23C08091E100877F8093E10082E090
:102D900080932D0410922E048091E1008E7F809309
:102DA000E1008091E2008E7F8093E2008091E2005A
:102DB00080618093E20042E060E080E00E948F1535
:102DC0008091F00088608093F000FF91EF91BF91B7
:102DD000AF919F918F917F916F915F914F913F91B3
:102DE0002F910F900FBE0F901F90189520913504D2
:102DF000309136042617370748F06115710539F40C
:102E00002091E8002E772093E80001C0B901FC0171
:102E100020E06115710579F180912D048823F1F18D
:102E20008530F1F18091E80083FD3CC08091E8009D
:102E300082FD2EC08091E80080FFEBCF2091F3004F
:102E40008091F20090E0922B6115710551F088306D
:102E5000910538F421912093F10061507109019698
:102E6000F3CF21E0089709F020E08091E8008E7709
:102E70008093E800CECF2111CFCF0AC080912D04DE
:102E8000882361F0853061F08091E80083FD0AC0FD
:102E90008091E80082FFF2CF80E0089582E00895FB
:102EA00083E0089581E0089581E08093E00080E26E
:102EB0008093D8001092C9008FE19EE40197F1F74A
:102EC00000C0000087E090EBDC0180932007909326
:102ED0002107A0932207B09323079CE088E10FB657
:102EE000F894A895809360000FBE90936000FFCF88
:102EF00078941F920F920FB60F9211248F939F9385
:102F0000AF93BF938091600390916103A09162039E
:102F1000B09163030196A11DB11D8093600390934E
:102F20006103A0936203B0936303BF91AF919F913C
:102F30008F910F900FBE0F901F901895CF92DF9238
:102F4000EF92FF922FB7F894C0906003D090610386
:102F5000E0906203F09063032FBFA7019601261B48
:102F6000370B480B590BCA01B901FF90EF90DF9066
:102F7000CF9008959C014FB7F89480916003909191
:102F80006103A0916203B09163034FBF821B930B57
:102F900008952FB7F8946091600370916103809158
:102FA0006203909163032FBF08952FB7F894809127
:102FB000600390916103A0916203B09163032FBFFE
:102FC00008951F920F920FB60F9211248F939F9323
:102FD000AF93BF9380915F03811113C08091600311
:102FE00090916103A0916203B09163034196A11D8A
:102FF000B11D8093600390936103A0936203B0932B
:103000006303BF91AF919F918F910F900FBE0F906F
:103010001F9018959C01FC0132969FEF80E0419132
:10302000461789F09F3F19F4411101C0982F8F5F17
:103030008630A9F79F3F39F0F901E90FF11D97FD9F
:10304000FA95628308950895A3E0B0E0EAE2F8E11A
:103050000C94113020915D0330915E0328173907DD
:10306000A1F090935E0380935D03E0915B03F09188
:103070005C03309751F024E029839B838A8300848A
:10308000F185E02DCE01019609952396E2E00C949E
:103090002D30A3E0B0E0EFE4F8E10C941130209182
:1030A000590330915A0328173907A1F090935A0316
:1030B00080935903E0915B03F0915C03309751F0EA
:1030C00023E029839B838A830084F185E02DCE0150
:1030D000019609952396E2E00C942D3080915703D8
:1030E000882359F0E0915B03F0915C03309729F05D
:1030F0000190F081E02D0995089580E008950F93E7
:103100001F93CF93DF93C42FD22FFC018581882397
:10311000B1F0409356030E94D517909355038093C6
:10312000540380E28C0F883008F068C0C77081E0DB
:1031300001C0880FCA95EAF70E94FE245FC0809103
:10314000560348133DC080915403909155030E944B
:10315000BA17883C9105A0F510E21D0FCD17E9F0D4
:1031600080E28C0F883040F4C77081E001C0880F86
:10317000CA95EAF70E94F724183078F581E09D2F70
:10318000977001C0880F9A95EAF70E94FE240933D0
:1031900051F560E570E089E329C0093319F460E571
:1031A00070E002C060E070E0802F0E9408251830B7
:1031B00028F5D77081E001C0880FDA95EAF70AC0D8
:1031C00080E28C0F8830D0F4C77081E001C0880F96
:1031D000CA95EAF70E94F72411C0093351F460E55B
:1031E00070E089E309C060E070E0802F0E9408254C
:1031F000E0CF60E070E0802F0E940825DF91CF9142
:103200001F910F9108950E94D5172091500321110D
:1032100004C020915103222321F090934D03809309
:103220004C0320915203211104C020915303222307
:1032300021F090934B0380934A03E0915B03F0915C
:103240005C03309749F082E080934E030680F7815B
:10325000E02D8EE493E0099508958091490380FD67
:1032600016C081FD16C082FD18C0809148038823D6
:1032700091F0883290F428E0829FC001112468E226
:1032800070E00E949F30862F672B29F007C082E0F4
:10329000089584E0089581E0089588E0089580917C
:1032A000490380FD14C081FD14C082FD16C08091C9
:1032B0004703882381F08E3180F420E5829FC0018E
:1032C00011246EE170E00E949F30862F089584E102
:1032D000089588E2089588E0089580E50895282FEC
:1032E00035EB2303C001112497FF03C080589109D7
:1032F00002C080589F4F892F0895FC01680F791FE5
:103300008FEF91E3E617F70771F02191822728E00C
:1033100030E087FF03C0880F892701C0880F215044
:103320003109B9F7EFCF089580914603882349F01A
:10333000809145038D7D809345030E9485211092E5
:10334000460308958091460381110FC010924203F5
:103350000E94561F0E94D51788579C4E9093440395
:103360008093430381E080934603089590E0FC013D
:10337000662319F0E25EFE4F02C0E35EFE4F20813D
:103380002F3F71F0E22FE295EF70F0E080A190E026
:103390002F7002C0959587952A95E2F78170089560
:1033A00080E0089590E0FC01662319F0E25EFE4F94
:1033B00002C0E35EFE4F80818F3FA1F0E82FE295CF
:1033C000EF70F0E031A1282F2F7081E090E001C074
:1033D000880F2A95EAF7982F9095932391A392A1AD
:1033E000892B82A3089590913C03E92FF0E0AF016F
:1033F0004F5F5F4F4370552720913D0330E04217E8
:10340000530779F0E25CFC4F8F7720812078822B84
:1034100060FB87F980839F5F937090933C0381E00A
:10342000089580E0089580E090913D0320913C0351
:10343000921731F1292F30E0F901E45CFC4F8281D1
:10344000F901E25CFC4F20812F779F5F937090938E
:103450003D038078211107C060E070E011F089EA37
:103460000BC08AEA09C0213049F460E070E088238B
:1034700011F08EE401C08BE40E94082581E0D4CFD6
:103480000895EF92FF920F931F93CF93DF932091B4
:10349000490630914A0623543440A901460F571F6C
:1034A0004130524020F060E072E0621B730BC0912B
:1034B0004104D0914204D901AD5BBB4FA901620F19
:1034C000731F01E010E046175707E8F4FA01E21B0A
:1034D000F30BE80FF91FE491FC91EF1781F0EC93E7
:1034E000FA01689414F8F695E7951694E1F77801D7
:1034F00002C0EE0CFF1CEA95E2F7CE29DF294F5FF0
:103500005F4F1196E0CFD0934204C0934104CDB7F2
:10351000DEB7E6E00C942930AB0124E630E0BC01D4
:1035200088E70E94972D21E0892B09F020E0822F67
:10353000089580913B0390913A03882389F0992361
:1035400069F062E070E082EA94E00E948C1A8111D6
:1035500003C080913A03089510923A0390913A0380
:1035600081E08927089580913B038823F9F00E9428
:10357000C917DC01CB01805A9541AF4FBF4F8093F3
:10358000360390933703A0933803B09339038091A7
:103590003A0381110BC062E070E080EA94E00E947F
:1035A0008C1A882319F081E080933A0380913A03C2
:1035B0000895FB01808180933D03089580E0089584
:1035C0009091EA0292FF10C041E0282F247124302C
:1035D00009F040E031E0282F2871283009F030E070
:1035E000431711F02CE0822793FF10C041E0282FF1
:1035F0002471243109F040E031E0282F287128316E
:1036000009F030E0431711F02CE082273091EB02F3
:1036100030FF10C051E0282F2171213009F050E017
:1036200041E0282F2871283009F040E0541711F0AC
:1036300029E0822731FF10C041E0282F217121317C
:1036400009F040E031E0282F2871283109F030E0FE
:10365000431711F029E0822794FD877E0895823870
:10366000910569F1B0F48133910509F475C048F40E
:103670008932910509F467C08A32910509F471C055
:1036800008958533910509F459C089339105B9F03E
:103690000895833E910589F138F4803E9105D1F07B
:1036A000823E910529F10895863E9105C9F1873E34
:1036B0009105D9F1843E910509F06CC027C0209195
:1036C000EA0220FD57C021FD55C02091EB0223FDE9
:1036D0005BC008958091EA0280FD48C08091EB02B2
:1036E00080FF48C08091EA0284FD46C083EE51C04D
:1036F0008091EA0282FF3CC0F5CF8091EA0282FD10
:1037000037C08091EB0280FD35C0ECCF8091EB0299
:1037100081FF36C08091EA0284FD2EC087EE39C059
:103720008091EA0283FF2AC0F5CF8091EA0283FDEF
:1037300025C08091EB0281FD23C0ECCF8091EA028D
:1037400085FD22C01FC08091EA0285FD1BC08091CB
:10375000EB0283FF19C00AC08091EA0286FD16C001
:1037600017C08091EA0286FD13C010C089E311C022
:1037700082EE0FC080EE0DC080E00BC086EE09C067
:1037800084EE07C085E305C089E203C08AE201C078
:1037900081E390E00895A0E0B0E0E1EDFBE10C945E
:1037A00009307C015B016A018091AE038A3018F018
:1037B00001E010E002C00AE010E0C1E0D0E0B50195
:1037C000C701F6010995811115C021960C171D0737
:1037D00094F0CC9F9001CD9F300D300D112480E0EE
:1037E00090E045E34A95F1F70000019682179307B0
:1037F000C1F7E5CF81E0CDB7DEB7EAE00C94253024
:10380000A0E0B0E0E6E0FCE10C940C307901C82FB8
:10381000880FDD0B41155105A9F0FE0193E0EE0F75
:10382000FF1F9A95E1F7E15EFE4F818192818F58EB
:103830009C4F208130E04217530708F49A01A901F8
:103840000E94C630CE010E94722FD82E8823D1F05C
:1038500001151105B9F083E0CC0FDD1F8A95E1F762
:10386000FE01E15EFE4F438150E00417150708F4A6
:10387000A801C15EDE4F6C817D816F587C4FC7010E
:103880000E94C6308D2DCDB7DEB7E7E00C9428300E
:10389000A0E0B0E0EEE4FCE10C940930C82F7B011D
:1038A000D42F69015801FB0160817181828193816C
:1038B0000E949E17643671058105910510F4DD2381
:1038C000A1F000E010E020E030E0A501B6018C2F6F
:1038D0000E94001CC82F882349F00E94C917F701D5
:1038E000608371838283938301C0C1E08C2FCDB745
:1038F000DEB7EAE00C942530A1E0B0E0E2E8FCE1BC
:103900000C940F3080913A0389832091900330E02A
:1039100090E041E02817390709F440E001E010E0A9
:103920009E012F5F3F4F6AEA73E088E00E94481CC7
:103930002196E4E00C942B30A9E0B0E0E2EAFCE14F
:103940000C940F3088E0E8E3F4E0DE01119601907A
:103950000D928A95E1F7198649E050E067E873E037
:10396000CE0101960E94B93041E0892B09F440E074
:1039700009E010E09E012F5F3F4F66EA73E087E0A9
:103980000E94481C2996E4E00C942B300F931F935F
:10399000CF93DF93EC0145E050E067E773E00E94CE
:1039A000B93041E0892B09F440E005E010E09E01C8
:1039B0006AE973E082E00E94481CDF91CF911F9179
:1039C0000F910895A1E0B0E0E8EEFCE10C94063020
:1039D000762E4A015901680101E010E09E012F5F37
:1039E0003F4F40E050E060E070E00E94001C182F64
:1039F000882379F1F40160817181828193810E9431
:103A00009E17643671058105910538F4B701C6012A
:103A10000E947D1999818917E1F08701950140E0A5
:103A200050E060E070E0872D0E94001C182FB70165
:103A3000C6010E947D1991E02981281390E0192385
:103A400069F00E94C917F4016083718382839383B4
:103A500005C0A701B601C5010E94C630812F21967D
:103A6000EDE00C942230A6E0B0E0E9E3FDE10C9437
:103A70000D3086E0E82EF12C0DE713E09E012F5F5C
:103A80003F4F4EE953E064E083E00E94E21CF82ED1
:103A9000882381F190917E0380917D039817B9F07E
:103AA000292F30E0F901EF58FC4F6685F901ED58F8
:103AB000FC4F84858F779F5F937090937E0360782F
:103AC000682B661F6627661F0E94F319E3CF00E08C
:103AD00010E020E030E041E050E06EE773E085E088
:103AE0000E94001C66E070E08DE793E00E947D1963
:103AF00080937C038F2D2696E6E00C942930A5E078
:103B0000B0E0E5E8FDE10C940B306B0185E0E82EB8
:103B1000F12C02E713E09E012F5F3F4F46E953E08F
:103B200061E080E00E94E21C882349F095E0FE01FC
:103B30003196A1E9B3E001900D929A95E1F795E0F5
:103B4000E1E9F3E0D60101900D929A95E1F725960F
:103B5000E8E00C942730F894E82FE295EF70F0E05D
:103B600031A1282F2F7081E090E001C0880F2A95A5
:103B7000EAF7982F9095932391A392A1892B82A382
:103B8000789408950F931F9380915703882319F019
:103B90000E94C9170EC00E94C9170091DA02109145
:103BA000DB022091DC023091DD02600F711F821F69
:103BB000931F1F910F910895A4E0B0E0E2EEFDE1A4
:103BC0000C940F306091A2037091A3038091A40321
:103BD0009091A5030E949E17643671058105910599
:103BE00028F10E94C21DDC01CB010296A11DB11D6E
:103BF00089839A83AB83BC8300E010E020E030E04F
:103C000044E050E0BE016F5F7F4F86E00E94001CE1
:103C1000182F882361F00E94C9176093A203709344
:103C2000A3038093A4039093A50301C011E0812F07
:103C30002496E4E00C942B307A30B0F46630A0F493
:103C40008430A0F49CE3899FF001112486E0789FE2
:103C5000E00DF11D1124E60FF11DEE0FFF1FEC55D5
:103C6000FB4F85919491089580E001C081E090E040
:103C700008951F93CF93DF930E942F1BEC01C11572
:103C800080E5D807E8F5C11590E4D90708F0A8C089
:103C9000C03ED10530F5CD3CD10508F094C0C83AFE
:103CA000D10578F4C53AD10508F083C0C130D105FB
:103CB00009F47CC008F4F2C0C430D10508F0F1C0AA
:103CC000EDC0C33CD10508F0E9C0C85AD0E0CC0F24
:103CD000DD1FC956DE4F0990D881C02DCE019464F6
:103CE000E1C0C11580E2D80708F0CBC0C11591E052
:103CF000D90708F06BC0C83ED10508F4D2C0CEC0C9
:103D0000C03682E5D80728F5C03492E5D90708F017
:103D100079C0C03282E5D80708F06CC0C11592E5C1
:103D2000D90708F481C04C2F4695469580E2489FFC
:103D3000A0011124C37021E030E0C90102C0880F46
:103D4000991FCA95E2F7EA01C82BD92BCE019D68CD
:103D5000A9C0C03A82E5D807B8F48C2F8F71C0385B
:103D600092E5D90708F07BC08695869590E2899FF9
:103D700090011124C37081E090E002C0880F991F68
:103D8000CA95E2F79A6868C0C03C82E5D80708F493
:103D90006DC0C03E92E5D90708F080C0CF71DD2725
:103DA000DC2FCC27CE01806F906A7CC081E090E050
:103DB00079C0C55AD0E0CC56DE4F8881C82FD0E0FC
:103DC000CE0190646FC0CE0190656CC08D2F0E94B3
:103DD000E01A182FCE0199270E942F1B1F715CC07B
:103DE000CE0199270E942F1BCC27DF70D06A8C2B25
:103DF0009D2B58C0CF71D0E0DC2FCC27CE01816F36
:103E0000906A50C08C2F8F718695869590E2899F1D
:103E100090011124C37081E090E002C0880F991FC7
:103E2000CA95E2F79C6818C08C2F8F710E94E01A27
:103E300095E0D695C7959A95E1F7CF70D0E0DC2F45
:103E4000CC27282F30E084FF05C084E0220F331FE9
:103E50008A95E1F7D069CE01822B932B23C090E0A5
:103E6000D82FCC27CE01846F906A1CC08C2F8F7105
:103E70000E94E01A8F7190E0D82FCC27CE0190627B
:103E800011C08D2F8F710E94E01A182FCE01992733
:103E90000E942F1B1F719062912B04C080E090E064
:103EA00001C0CE01DF91CF911F91089580910B0346
:103EB000811110920B0308958095909142038923FC
:103EC000809342030895A6E0B0E0E9E6FFE10C9498
:103ED0000F300E94D5178C01809165039091660385
:103EE0000817190781F019821A820E94D517682FC6
:103EF00049815A81792F80E090E00E948D0E1093C5
:103F00006603009365032696E4E00C942B304F92F1
:103F10005F927F928F929F92AF92BF92CF92DF92E9
:103F2000EF92FF920F931F93CF93DF93CDB7DEB73E
:103F30002F970FB6F894DEBF0FBECDBFAE014F5F17
:103F40005F4F7A018AE0DA011D928A95E9F700E075
:103F500011E096E0C92E91E0D92E77247394AA241B
:103F6000A394B12C4E01B6E08B0E911CF801808118
:103F70008F3F09F447C0F894E82FE295EF70F0E026
:103F800021A18F70A50102C0440F551F8A95E2F749
:103F9000CA01922F982B91A392A18095892382A385
:103FA000789400C086E0482E81E0582EF701472D16
:103FB0004095D2018D912D018F3FA1F0282F2295A0
:103FC0002F7030E0D90190962C9130E08F70B901BC
:103FD00002C0759567958A95E2F760FD03C0808100
:103FE000872902C080818423808331968E169F06A4
:103FF00001F7D8018C918F3F11F00E94AB1DB0EA00
:10400000BA95F1F7770C0F5F1F4FC016D10609F074
:10401000ADCF4AE050E0B7018EED92E00E94B9309A
:10402000892B99F08AE0F701AEEDB2E001900D9294
:104030008A95E1F781E0809369030E94D5179093F8
:10404000680380936703D12C27C08091690388237C
:10405000D1F30091E90280916703909168030E9477
:10406000BA17059780F310E004511D4F45E050E06A
:104070006EED72E0C8010E94B930892B09F423C1AA
:1040800085E0EEEDF2E0D80101900D928A95E1F71E
:10409000DD24D3941092690380915703E091E902E3
:1040A000882309F478C07E01FBE0EF0EF11C85E067
:1040B000D7011D928A95E9F70E2F10E004511D4F8C
:1040C0008091AE038A3048F44FE75DE1B701C80143
:1040D0000E94CB1B882399F10AC080916A039091BA
:1040E0006B030E94BA17843F914070F73AC046ECC8
:1040F0005CE1B701C8010E94CB1B882301F143E3B7
:104100005DE1B701C8010E94CB1B8823C1F04CEDD3
:104110005DE1B701C8010E94CB1B882381F04CE907
:104120005CE1B701C8010E94CB1B882341F04CE73A
:104130005CE1B701C8010E94CB1B8111B1C0809125
:10414000AE038F3F19F08F5F8093AE038091AE0373
:104150008A3008F4A7C00E94D51790936B03809310
:104160006A0380917003882309F482C085E0F70117
:1041700011928A95E9F710927003A091E802B0E0DD
:10418000A451BD4F85E0FE013B9601900D928A95AA
:10419000E1F781E06EC00091E80210E004511D4F8C
:1041A000F0E0E451FD4F85E0A2E7B3E001900D920D
:1041B0008A95E1F765E070E082E793E00E947D195F
:1041C0008093710385E0E7E7F3E0D80101900D9259
:1041D0008A95E1F786E0ECE3F3E0ADE7B3E0019028
:1041E0000D928A95E1F766E070E08DE793E00E941A
:1041F0007D1980937C038090830390908403A0902A
:104200008503B090860380916C0390916D03A0911B
:104210006E03B0916F0388169906AA06BB06B1F02B
:1042200080926C0390926D03A0926E03B0926F0324
:104230000E94C917861A970AA80AB90A8092DA0258
:104240009092DB02A092DC02B092DD0288E0E7E807
:10425000F3E0A8E3B4E001900D928A95E1F7809134
:104260009003882319F00E94B31A02C00E94991A81
:1042700080E08D292F960FB6F894DEBF0FBECDBF1C
:10428000DF91CF911F910F91FF90EF90DF90CF9032
:10429000BF90AF909F908F907F905F904F900895C8
:1042A0001092AE038091E80290E045E050E0B70143
:1042B00084519D4F0E94B93021E020937003892BD7
:1042C00009F05BCFD5CFD12CE5CE2091170490918A
:1042D000DE0357E02917A9F030E0529FF001539F09
:1042E000F00D1124E152FC4F7181761306C07081EC
:1042F000781303C07581741306C02F5F3F4F27707A
:10430000E9CF80E0089581E00895CF93C091420302
:1043100080914503C82B80910B03882379F0C82B2B
:10432000E1EBF3E097E080E0915029F02191222326
:10433000D9F38F5FF9CF81110E94561FC093AF034D
:1043400048E050E069E174E08FEA93E00E94B93000
:10435000892BA9F088E0EFEAF3E0A9E1B4E001904D
:104360000D928A95E1F7E0915B03F0915C03309741
:1043700031F00280F381E02D8FEA93E00995CF912F
:104380000895809117049091DE03891719F08F5FCB
:104390008770FBCF0895CF93DF938091DD038295E3
:1043A0008F7009F04EC08091DC03882309F449C066
:1043B000809117044091DE035091D8036091D70398
:1043C000C091D903D091DA0377E08417D1F190E05E
:1043D000789FF001799FF00D1124DF01A152BC4FAD
:1043E00014962C911497222349F111962C91119730
:1043F000251324C02C91261321C015962C911597B6
:1044000021111CC012962D913C9113972C1B3D0B32
:10441000283C310598F48091DD038F708061809392
:10442000DD03EB51FC4F80818F708061808387EDCD
:1044300093E00E941D0F0E94C12103C00196877066
:10444000C4CFDF91CF910895A0E0B0E0EAE2F2E2BC
:104450000C940A307C010091090310910A038091A9
:10446000070390910803082B192BCFE0D0E0CC2450
:10447000C394D12CC6010C2E02C0880F991F0A9438
:10448000E2F780239123892B21F4219798F7B12C0F
:1044900009C0BC2EB7018C2F0E941C1E0E94391E21
:1044A000019799F38B2DCDB7DEB7E9E00C94263058
:1044B000CF93DF93EC010E942422BE010E941C1EB8
:1044C0000E94391EDF91CF910895FC01248122239F
:1044D000D9F0808191810E94582292959F709630E8
:1044E00079F010F4925001C09A50923068F4803FF5
:1044F00069F018F4883E40F409C0843F29F406C0EE
:10450000883E20F0813F11F080E0089581E0089519
:10451000A4E1B0E0EEE8F2E20C9407308C0186E012
:10452000F801DE011F9601900D928A95E1F7F801DE
:104530008481E58097ED892E93E0992E9091DB039D
:10454000911120C0882309F463C1EE2009F442C010
:10455000C8010E946522F82E8823E1F187E0F80166
:10456000D40101900D928A95E1F78091DB038130AF
:1045700031F48091D7039091D8030E9458220E9471
:10458000CB2148C1F801D080C180A280B380F090D7
:10459000DC032091D9033091DA03FF2009F4E7C04E
:1045A000A501421B530B483C510508F09DC08823D0
:1045B00009F430C18091DD03282F207F9091D8032A
:1045C000222361F09C1509F460C0C8010E94652295
:1045D000811163C0C8010E941D0F1AC19C1113C034
:1045E0009091D7039D110FC0E1100DC08F708061B5
:1045F0008093DD0387ED93E00E941D0F8091DD0322
:10460000F801868303C1E1103AC040E06C2D8D2D86
:104610000E94652140E06C2D8D2D0E946521E82EC1
:104620008111F4C0DF86C88A8F8598890E9458223C
:10463000292F22952F70243020F49F70223028F0EB
:1046400009C02A50223080F014C0992349F081110A
:1046500007C013C0992321F0F8019681907F69F07B
:10466000805E883030F409C0803F38F0815F83304D
:1046700020F0C8010E941D0FEF2CFE2CCBC08091B2
:10468000DD0381608093DD03C1C09091D7039D114C
:104690009CCFE1109ACFF80198C0EE2009F49ACF90
:1046A0002091DD03822F82958F7090E002978CF02D
:1046B0008091D7039091D80399878887BB86AA8673
:1046C0008091DB038C871D862E87CE0108960E9481
:1046D0001D0F87E0F801A7EDB3E001900D928A95D8
:1046E000E1F70E94CB2194C09091DD03292F207F18
:1046F00051F487ED93E00E941D0F87E0F4011192C1
:104700008A95E9F783C0882309F484C08091D8038F
:104710008C110CC08091D7038D1108C0E11006C028
:10472000F8019683C8010E941D0F6AC0C8010E944B
:104730006522882309F44ECFEE2009F44BCF209157
:10474000DD03822F82958F7090E0029714F28091A2
:10475000D7039091D8039A838983BC82AB828091DE
:10476000DB038D831E822F83CE010196B0CFA21A68
:10477000B30AF8ECAF16B10408F042C0882309F47C
:1047800047C0FE2CEE2009F425CF8091D8038C1170
:1047900029C08091D7038D1125C09091DD0390FD34
:1047A00018C0892F82958F70282F30E02115310590
:1047B00081F0F80196832F30310541F08F5F982FFB
:1047C0009295907F86818F70892B8683C8010E9485
:1047D0001D0F87E0F801A7EDB3E001900D928A95D7
:1047E000E1F718C0C8010E946522811172CF809143
:1047F000DD0381608093DD03C8010E941D0F0AC0A4
:1048000087E0F40111928A95E9F704C0F12C02C007
:10481000FF24F3948F2D6496ECE00C9423309A30AF
:1048200078F5863068F5E82FF0E086E0989FE00D97
:10483000F11D11249E2F977083E0F695E7958A95D8
:10484000E1F7EE0FFF1FEE0FFF1FE954FC4F40E0B2
:1048500050E080E0219130E0092E02C03695279586
:104860000A94E2F721703327042E01C0220F0A9424
:10487000EAF7822B4F5F5F4F4430510559F7089597
:1048800080E008959A3088F5863078F5E82FF0E0DA
:1048900086E0989FE00DF11D11248E2F877051E066
:1048A00001C0550F8A95EAF783E0F695E7958A955A
:1048B000E1F7EE0FFF1FEE0FFF1FE954FC4F20E062
:1048C00030E070E04081CB01022E02C096958795C2
:1048D0000A94E2F781708195842785238427819348
:1048E0002F5F3F4F2430310569F7089590930A03F5
:1048F00080930903089521E030E002C0220F331FA6
:104900008A95E2F7209530958091090390910A03EA
:10491000822393230E947624089590911804809511
:10492000892380931804282F277069F4981759F069
:104930009091EB0292FF07C08695869586950E941E
:104940007B241092180408959091EB0292FB222789
:1049500020F9281779F080FB92F99093EB0260918F
:10496000EA027091EB0284E090E00E948D3082E0D8
:104970000E948D24089521E030E002C0220F331FF1
:104980008A95E2F78091090390910A03822B932B79
:104990000E94762408959093080380930703089556
:1049A000CF9310924203C6E0E1EBF3E0DF018C2FDE
:1049B0001D928A95E9F780E090E00E94491880E016
:1049C00090E00E942418109245030E948521EEE495
:1049D000F3E0DF011D92CA95E9F7109247031092A8
:1049E0004803109249030E940319CF910895882328
:1049F00021F00E945C1F0E9485210895882339F0D0
:104A000090914203892B809342030E94852108954F
:104A10001F93CF93DF93182FEB010E94652C2097F3
:104A200041F08FE99FE00197F1F700C00000219766
:104A3000F6CF812F0E94292CDF91CF911F910895ED
:104A4000CF93DF93C0914906D0914A068A30B1F4E2
:104A500020914004CE0183549440622F70E00E9464
:104A6000ED2F281B822F66E00E949330C82FC15083
:104A700008F48FC080E20E942025F9CF8D30E9F440
:104A8000C354D44020914004622F70E0CE010E94B4
:104A9000ED2F281B822F9E01280F311D211532403A
:104AA00018F080E0C0E0D0E0C80FD11DCD5BDB4F37
:104AB000D0934A06C09349066CC096E0FE01A3E479
:104AC000B6E001900D929A95E1F7803E30F086E0D5
:104AD000FE0111928A95E9F70BC0F6E08F9FB001B5
:104AE00011246A52784F46E050E0CE010E943830DF
:104AF000C0914906D0914A0646E050E0BE0183E4E9
:104B000096E00E94B930892B49F19E01235434402C
:104B1000A90185E0569547958A95E1F781E090E0F7
:104B2000BC0102C0660F771F4A95E2F7409141042D
:104B300050914204462B572B2B5F3F4F65E0369533
:104B400027956A95E1F702C0880F991F2A95E2F729
:104B5000842B952B90934204809341049E012D5306
:104B6000344040914004642F70E0C9010E94ED2F51
:104B7000481B463010F4240F311D211582E0380700
:104B800010F020E030E02D5B3B4F30934A0620933D
:104B90004906DF91CF910895CF93DF93EC01FE0199
:104BA0008491882321F00E9420252196F8CFDF915F
:104BB000CF91089580913804837051F08460809380
:104BC0003804109268018091370481608093370423
:104BD000089590913804937071F080933904609334
:104BE0003A04413808F040E840933B048091370490
:104BF0008160809337040895AAE2B0E0E2E0F6E233
:104C00000C941030EFE2F4E087E394E02091F1009F
:104C100021938E179F07D1F780913004833009F4D8
:104C200061C030F4813071F0823009F49BC0B2C0B1
:104C30008A3009F487C08B3009F46CC0893009F0E0
:104C4000A9C020C080912F04813A09F0A3C08091AF
:104C5000E800877F8093E8008091330490913404CA
:104C6000892B21F468E083E294E003C060E080E0F7
:104C700090E070E00E94F6168091E8008B778093B8
:104C8000E80088C080912F04813209F083C08091B0
:104C9000330490913404029708F07CC08091E800BE
:104CA000877F8093E8008091E80082FD05C08091B5
:104CB0002D048111F8CF6EC02091F3008091F20095
:104CC00090E0922B029731F48091F100813011F045
:104CD000863021F48091F100809322048091E800D5
:104CE0008B7754C080912F04813A09F053C0809192
:104CF000330490913404892B09F04CC08091E80072
:104D0000877F8093E8008091E80080FFFCCF80914E
:104D1000670137C080912F048132E1F5809133041F
:104D200090913404892BB1F58091E800877F8093BE
:104D3000E8000E94701580913104809367010E9401
:104D4000D02428C080912F04813221F58091E80081
:104D5000877F8093E8000E947015809132048093D1
:104D6000210418C080912F04813AA1F48091E800B9
:104D7000877F8093E8008091E80080FFFCCF8091DE
:104D800021048093F1008091E8008E778093E80001
:104D90000E9470158091E80083FFCEC180912F049E
:104DA00090913004492F50E04A30510508F0C4C1B9
:104DB000FA01E056FF4F0C94B330803821F082386E
:104DC00009F0BAC108C080912B0490912C0499235A
:104DD00089F082600FC0809133048F70873008F0B3
:104DE000ABC18093E9008091EB0085FB882780F9B7
:104DF0001092E9009091E800977F9093E8008093EB
:104E0000F1001092F10065C1282F2D7F09F094C1A7
:104E1000882319F0823061F08FC180913104813094
:104E200009F08AC1933009F080E080932C042EC0F1
:104E30008091310481112AC0809133048F702FEF4B
:104E4000280F263008F078C18093E9002091EB000C
:104E500020FF1CC0933021F48091EB00806214C0CD
:104E60009091EB0090619093EB0021E030E0A9017C
:104E700002C0440F551F8A95E2F74093EA00109252
:104E8000EA008091EB0088608093EB001092E900CB
:104E90008091E800877F20C181114EC110913104BB
:104EA0001F778091E3008078812B8093E3008091CD
:104EB000E800877F8093E8000E9470158091E800E9
:104EC00080FFFCCF8091E30080688093E3001111A4
:104ED00002C082E001C083E080932D042DC1805880
:104EE000823008F029C180913104909132048C3DC8
:104EF00053E0950779F583E08A838AE289834FB787
:104F0000F894DE01139620E03EE051E2E32FF0E05A
:104F100050935700E49120FF03C0E295EF703F5F8C
:104F2000EF708E2F90E0EA3010F0C79601C0C09667
:104F30008D939D932F5F243149F74FBF8091E800F7
:104F4000877F8093E8006AE270E0CE0101960E94BC
:104F5000F616AEC04091330450913404292F332704
:104F600023303105A9F068F42130310509F4F3C08C
:104F70002230310509F0E0C08BE390E0E3E4F7E094
:104F800044C02132310521F12232310571F1D4C002
:104F9000992781309105A1F058F0029709F0CCC013
:104FA000E0E9F7E0E4918E2F90E0E0E9F7E02AC035
:104FB000E2EDF7E0E4918E2F90E0E2EDF7E022C021
:104FC000E8EBF7E0E4918E2F90E0E8EBF7E01AC011
:104FD0004115510509F4C4C04130510509F0ACC078
:104FE00089E090E0EEE6F7E010C04115510509F4C4
:104FF000BCC04130510509F09FC08BE790E0E4E868
:10500000F6E003C0009709F497C02091E800277FDD
:105010002093E800209135043091360482179307DD
:1050200008F49C0140E02115310589F180912D049F
:10503000882309F43DC08530D9F18091E80083FDD3
:1050400037C08091E80082FD2FC08091E80080FF8A
:10505000EACF4091F3008091F20090E0942B21156B
:10506000310559F08830910540F444914093F100A6
:105070003196215031090196F2CF41E0089709F0AD
:1050800040E08091E8008E778093E800CCCF41111A
:10509000CDCF0AC080912D04882351F0853041F096
:1050A0008091E80083FD04C08091E80082FFF2CF88
:1050B0008091E8008B778093E8003EC08038E1F56E
:1050C0008091E800877F8093E80080912E04809390
:1050D000F1008091E8008E778093E8000E947015BF
:1050E0002BC0811129C080913104909132049927FD
:1050F000029714F58091E800877F8093E800109173
:10510000310410932E040E947015111106C0809175
:10511000E30087FD02C081E001C084E080932D049C
:1051200042E061EC81E00E948F1542E261EC82E096
:105130000E948F1580912D048091E80083FF1AC092
:105140008091E800877F8093E8008091EB00806287
:105150008093EB000FC082E190E0EEE7F7E055CFDF
:1051600089E090E0E5E5F7E050CF84E490E0EFEFF0
:10517000F6E04BCFAA96E3E00C942C303091580324
:10518000311105C08232910524F1829703C0823229
:105190009105FCF4FC01EE0FFF1FDF01A80FB91F02
:1051A000AC5AB94F11963C911197361307C03C91F8
:1051B000341304C012963C91321759F031E0309309
:1051C00053068E0F9F1FFC01EC5AF94F61834083F9
:1051D00022830895109253060895E8E3F4E02481B1
:1051E00030E1231B08F420E02483809137048160A0
:1051F000809337040895E8E3F4E0248130E1230F3D
:1052000008F42FEF24838091370481608093370462
:1052100008959EE0899F802D1124980F953408F001
:1052200094E420915803222321F0933228F092E253
:105230000895823208F482E20895FF920F931F933B
:10524000CF93DF93182F062FF42EC0E0D0E02F2D40
:10525000402F612FCE010E94BE282196C434D10573
:10526000B1F7CDB7DEB7E5E00C942A308091530654
:10527000882339F1539A8BB1877F9BB198602FB700
:10528000F894E4E5F6E037E0E032F30789F0319195
:1052900048E09BB9000000C037FF8BB9330F000016
:1052A00000C000C000C08BB900C04A9591F7EBCF99
:1052B0002FBF8FE594E00197F1F700C00000109236
:1052C00053060895E8E3F4E0438120E1421B08F42B
:1052D00040E08181628190E00E94E9250895E8E341
:1052E000F4E0438120E1420F08F44FEF81816281B5
:1052F00090E00E94E9250895E8E3F4E0628120E16E
:10530000621B08F460E08181438190E00E94E925FE
:105310000895E8E3F4E0628120E1620F08F46FEFA2
:105320008181438190E00E94E9250895E8E3F4E05B
:10533000818190E04381628108970E94E925089568
:10534000E8E3F4E0818190E04381628108960E9465
:10535000E92508958091380486958695815009F451
:1053600081E00E94DA25089581E00E94DA250895FF
:10537000882311F0FA0101C0FB01099508958F926D
:105380009F92AF92BF92DF92EF92FF920F931F9383
:10539000CF93DF930E94C21D60934B0670934C061F
:1053A00080934D0690934E0630913804232F23703E
:1053B00021F0C32FC695C69501C0C0E020916801B9
:1053C000213091F028F0223099F12330E9F149C1E0
:1053D00010926B0160934F067093500680935106B4
:1053E0009093520681E02DC090916A01C9130DC0BF
:1053F000832F837090E04091690150E021E0841791
:10540000950709F420E0822F01C081E0817080932C
:105410006D0180913D0490916C01981709F442C090
:1054200080936C0140E060E080E00E941D293AC05A
:10543000C0936A01832F8370809369010E9436298B
:1054400083E0809368010DC180913704882351F077
:1054500048E050E068E170E088E394E00E945F304B
:105460001092370480904F0690905006A0905106FD
:10547000B090520680915703882329F0C501B401EA
:105480000E949E1706C00E94C21D681979098A09E8
:105490009B09603171058105910508F4E2C0109205
:1054A0006801DFC0C1110AC080916D01882349F1F4
:1054B00040E060E080E00E941D2923C0C13009F077
:1054C000CAC080916B010E940929D92ED82F409122
:1054D000390420913A04E0913B04F0E021112CC002
:1054E000EA5EF24F1491012FF12EDD1508F49BC0F6
:1054F00080915803882309F4A8C081E051E25D152A
:1055000008F480E090916B019F5F90936B01811193
:1055100010C082E08093680180916D01811109C003
:10552000CC2309F48DCF80916B0181500E94092911
:1055300098C0C111F8CF95C0E22EF12CEA5EF24F6F
:105540003491F32FA32EB12C56E0459FC0011124B6
:105550000FEF10E0B8010E94ED2F5BEA5603C00187
:10556000579F900D1124840F911D840F911D982E2B
:10557000990C980EA8014E195F094A9DC0014B9DD8
:10558000900D5A9D900D1124E92F299DA001112401
:10559000452F5527D801A41BB50BAD014A9DD0015D
:1055A0004B9DB00D5A9DB00D1124A8014919510908
:1055B0004A018E9CA0018F9C500D9E9C500D112481
:1055C000452F5527041B150B0A9D70010B9DF00CF0
:1055D0001A9DF00C11244F2D6230710591F048F4A2
:1055E00061157105E1F061307105B9F4432F3B2F6E
:1055F00016C06430710569F040F06630710579F0CD
:105600000CC0432F392FEF2D0AC0392FEF2F4B2F0E
:1056100006C0492FE32F3F2D02C0492FEB2F1E2F2D
:10562000032FF42E62CFED2FF0E0DF01AD56BD4F1A
:105630008C9190916C01982331F0212F4F2D602F88
:10564000CF010E94BE28DF5F50CF81E093E49D151B
:1056500008F058CF56CF80916B018F5F80936B011C
:1056600058CFDF91CF911F910F91FF90EF90DF9076
:10567000BF90AF909F908F900895909150036623B4
:1056800009F470C091110CC090915103911108C0A0
:1056900090915303911104C090915203992331F0DA
:1056A00098E09093470391E0909348038D3C21F458
:1056B0000E944F19819504C08E3C29F40E944F1915
:1056C00080935103C3C08F3C21F40E944F198195F0
:1056D00004C0803D29F40E944F1980935003B6C046
:1056E000893D19F40E942D1905C08A3D31F40E94AC
:1056F0002D19819580935203A9C08B3D21F40E94FE
:105700002D19819504C08C3D29F40E942D19809398
:1057100053039CC09FE2980F983078F421E030E06A
:10572000A90102C0440F551F9A95E2F7CA01909152
:105730004F03892B80934F0389C08D3D21F48091C5
:10574000490381600CC08E3D21F480914903826041
:1057500006C08F3D09F07AC0809149038460809330
:10576000490374C08D3C39F49091510397FF33C0C5
:105770001092510357C08E3C29F490915103191691
:10578000BCF329C08F3C29F497FF25C01092500329
:1057900049C0803D19F41916CCF31DC090915203F5
:1057A000893D29F41916BCF4109252033BC08A3D7E
:1057B00019F497FF10C0F8CF8B3D39F49091530343
:1057C00097FF09C0109253032DC08C3D21F4909196
:1057D00053031916BCF39FE2980F983080F421E030
:1057E00030E0A90102C0440F551F9A95E2F7CA01A3
:1057F000809590914F03892380934F0313C08D3D73
:1058000021F4809149038E7F0BC08E3D21F480915D
:1058100049038D7F05C08F3D29F4809149038B7F1B
:105820008093490380915003811106C080915103F8
:10583000811102C01092470380915203811106C06A
:1058400080915303811102C0109248030E940319F2
:1058500008958823C9F19CEF980F913A60F4EFEA1C
:10586000F3E09281891301C01282319693E0E53B07
:10587000F907B9F70DC090E2980F983060F487707F
:1058800091E001C0990F8A95EAF7892F0E945C1F69
:105890000E94852108959BE5980F933028F480E0BD
:1058A00090E00E944918089598E5980F9B3128F4DC
:1058B00080E090E00E942418089593E3980F9331BC
:1058C00018F460E00E943D2B0895CF93882309F4DB
:1058D00059C0C82F8CEF8C0F813AF8F4E1EBF3E05C
:1058E00087EB93E02191C21721F08E179F07D1F724
:1058F0000EC0EFEAF3E085EB93E02281C21301C012
:10590000128231968E179F07C1F70E9485216C2F56
:105910008FEA93E00E940A1810C080E28C0F883052
:1059200078F4C77081E090E001C0880FCA95EAF76B
:1059300090914203892B809342030E94852122C0CB
:10594000EBE5EC0FE33040F4F0E0EC56FE4F8081E5
:1059500090E00E94491816C0E8E5EC0FEB3150F4D6
:10596000F0E0EE0FFF1FE956FE4F808191810E940B
:10597000241808C083E38C0F833120F461E08C2F5E
:105980000E943D2BCF910895EF92FF920F931F93AA
:10599000CF93DF93182FEB011092BC0084EA809321
:1059A000BC000E94D5177C018091BC0087FD0DC012
:1059B000CF3F8FEFD807C1F3C7010E94BA17C817AE
:1059C000D90790F78EEF9FEF2DC08091B900887FA7
:1059D000883041F08091B900887F803119F08FEFD5
:1059E0009FEF20C01093BB0084E88093BC000E940E
:1059F000D5178C018091BC0087FD0BC0CF3F8FEF86
:105A0000D807C1F3C8010E94BA17C817D90790F781
:105A1000D9CF8091B900887F883111F08034F9F6B0
:105A200080E090E0CDB7DEB7E6E00C94293010922C
:105A3000B9008CE08093B80008950F931F93CF9323
:105A4000DF93EB018093BB0084E88093BC000E944D
:105A5000D5178C018091BC0087FD0DC0CF3F8FEF23
:105A6000D807C1F3C8010E94BA17C817D90790F721
:105A70008EEF9FEF0CC02091B900287F81E090E06D
:105A8000283211F480E090E0919581959109DF91A1
:105A9000CF911F910F910895A0E0B0E0E2E5FDE203
:105AA0000C940630782EB62EA72E6A0189010E942A
:105AB000D5174C010431110558F00F3F8FEF18072F
:105AC00051F0C80164E170E00E94ED2FEB0105C0C8
:105AD000C1E0D0E002C0C5E0D0E0BE01872D0E9449
